{
  "contractName": "BarnFacetMock",
  "abi": [
    {
      "inputs": [
        {
          "internalType": "contract BarnBridgeToken",
          "name": "_bond",
          "type": "address"
        }
      ],
      "stateMutability": "nonpayable",
      "type": "constructor"
    },
    {
      "anonymous": false,
      "inputs": [
        {
          "indexed": true,
          "internalType": "address",
          "name": "user",
          "type": "address"
        },
        {
          "indexed": false,
          "internalType": "uint256",
          "name": "amount",
          "type": "uint256"
        },
        {
          "indexed": false,
          "internalType": "uint256",
          "name": "newBalance",
          "type": "uint256"
        }
      ],
      "name": "Deposit",
      "type": "event"
    },
    {
      "anonymous": false,
      "inputs": [
        {
          "indexed": true,
          "internalType": "address",
          "name": "user",
          "type": "address"
        },
        {
          "indexed": false,
          "internalType": "uint256",
          "name": "timestamp",
          "type": "uint256"
        }
      ],
      "name": "Lock",
      "type": "event"
    },
    {
      "anonymous": false,
      "inputs": [
        {
          "indexed": true,
          "internalType": "address",
          "name": "user",
          "type": "address"
        },
        {
          "indexed": false,
          "internalType": "uint256",
          "name": "amountWithdrew",
          "type": "uint256"
        },
        {
          "indexed": false,
          "internalType": "uint256",
          "name": "amountLeft",
          "type": "uint256"
        }
      ],
      "name": "Withdraw",
      "type": "event"
    },
    {
      "inputs": [],
      "name": "MAX_LOCK",
      "outputs": [
        {
          "internalType": "uint256",
          "name": "",
          "type": "uint256"
        }
      ],
      "stateMutability": "view",
      "type": "function"
    },
    {
      "inputs": [],
      "name": "bondStaked",
      "outputs": [
        {
          "internalType": "uint256",
          "name": "",
          "type": "uint256"
        }
      ],
      "stateMutability": "view",
      "type": "function"
    },
    {
      "inputs": [],
      "name": "token",
      "outputs": [
        {
          "internalType": "contract IERC20Upgradeable",
          "name": "",
          "type": "address"
        }
      ],
      "stateMutability": "view",
      "type": "function"
    },
    {
      "inputs": [],
      "name": "balance",
      "outputs": [
        {
          "internalType": "uint256",
          "name": "",
          "type": "uint256"
        }
      ],
      "stateMutability": "view",
      "type": "function"
    },
    {
      "inputs": [
        {
          "internalType": "uint256",
          "name": "_amount",
          "type": "uint256"
        }
      ],
      "name": "removeLiquidity",
      "outputs": [],
      "stateMutability": "nonpayable",
      "type": "function"
    },
    {
      "inputs": [
        {
          "internalType": "uint256",
          "name": "_amount",
          "type": "uint256"
        }
      ],
      "name": "deposit",
      "outputs": [],
      "stateMutability": "nonpayable",
      "type": "function"
    },
    {
      "inputs": [
        {
          "internalType": "uint256",
          "name": "timestamp",
          "type": "uint256"
        }
      ],
      "name": "lock",
      "outputs": [],
      "stateMutability": "nonpayable",
      "type": "function"
    },
    {
      "inputs": [
        {
          "internalType": "uint256",
          "name": "amount",
          "type": "uint256"
        },
        {
          "internalType": "uint256",
          "name": "timestamp",
          "type": "uint256"
        }
      ],
      "name": "depositAndLock",
      "outputs": [],
      "stateMutability": "nonpayable",
      "type": "function"
    },
    {
      "inputs": [
        {
          "internalType": "uint256",
          "name": "amount",
          "type": "uint256"
        }
      ],
      "name": "withdraw",
      "outputs": [],
      "stateMutability": "nonpayable",
      "type": "function"
    },
    {
      "inputs": [
        {
          "internalType": "address",
          "name": "user",
          "type": "address"
        }
      ],
      "name": "callRegisterUserAction",
      "outputs": [],
      "stateMutability": "nonpayable",
      "type": "function"
    },
    {
      "inputs": [
        {
          "internalType": "address",
          "name": "user",
          "type": "address"
        }
      ],
      "name": "balanceOf",
      "outputs": [
        {
          "internalType": "uint256",
          "name": "",
          "type": "uint256"
        }
      ],
      "stateMutability": "view",
      "type": "function"
    },
    {
      "inputs": [
        {
          "internalType": "address",
          "name": "user",
          "type": "address"
        }
      ],
      "name": "userLockedUntil",
      "outputs": [
        {
          "internalType": "uint256",
          "name": "",
          "type": "uint256"
        }
      ],
      "stateMutability": "view",
      "type": "function"
    }
  ],
  "bytecode": "0x608060405234801561001057600080fd5b50604051610b86380380610b868339818101604052602081101561003357600080fd5b5051600080546001600160a01b039092166001600160a01b0319909216919091179055610b21806100656000396000f3fe608060405234801561001057600080fd5b50600436106100d45760003560e01c8063bf0ae48c11610081578063dd4670641161005b578063dd467064146101cb578063f0bcb6cd146101e8578063fc0c546a1461020e576100d4565b8063bf0ae48c1461017a578063bfc10279146101a0578063c2077e81146101c3576100d4565b80639c8f9f23116100b25780639c8f9f2314610138578063b69ef8a814610155578063b6b55f251461015d576100d4565b80632e1a7d4d146100d957806365a5d5f0146100f857806370a0823114610112575b600080fd5b6100f6600480360360208110156100ef57600080fd5b5035610232565b005b610100610439565b60408051918252519081900360200190f35b6101006004803603602081101561012857600080fd5b50356001600160a01b0316610441565b6100f66004803603602081101561014e57600080fd5b503561045c565b6101006104e0565b6100f66004803603602081101561017357600080fd5b5035610576565b6101006004803603602081101561019057600080fd5b50356001600160a01b03166107d7565b6100f6600480360360408110156101b657600080fd5b50803590602001356107f2565b610100610808565b6100f6600480360360208110156101e157600080fd5b503561080e565b6100f6600480360360208110156101fe57600080fd5b50356001600160a01b0316610851565b610216610854565b604080516001600160a01b039092168252519081900360200190f35b3381610285576040805162461bcd60e51b815260206004820152601d60248201527f416d6f756e74206d7573742062652067726561746572207468616e2030000000604482015290519081900360640190fd5b4261028f336107d7565b11156102e2576040805162461bcd60e51b815260206004820152601660248201527f557365722062616c616e6365206973206c6f636b656400000000000000000000604482015290519081900360640190fd5b816102ec33610441565b101561033f576040805162461bcd60e51b815260206004820152601460248201527f496e73756666696369656e742062616c616e6365000000000000000000000000604482015290519081900360640190fd5b61034881610851565b600061035d8361035733610441565b90610863565b905061036982826108ac565b6001546103769084610863565b600155600080546040805163a9059cbb60e01b81523360048201526024810187905290516001600160a01b039092169263a9059cbb926044808401936020939083900390910190829087803b1580156103ce57600080fd5b505af11580156103e2573d6000803e3d6000fd5b505050506040513d60208110156103f857600080fd5b50506040805184815260208101839052815133927ff279e6a1f5e320cca91135676d9cb6e44ca8a08c0b88342bcdb1144f6511b568928290030190a2505050565b6301e1338081565b6001600160a01b031660009081526002602052604090205490565b600080546040805163a9059cbb60e01b81523360048201526024810185905290516001600160a01b039092169263a9059cbb926044808401936020939083900390910190829087803b1580156104b157600080fd5b505af11580156104c5573d6000803e3d6000fd5b505050506040513d60208110156104db57600080fd5b505050565b60008054604080517f70a0823100000000000000000000000000000000000000000000000000000000815230600482015290516001600160a01b03909216916370a0823191602480820192602092909190829003018186803b15801561054557600080fd5b505afa158015610559573d6000803e3d6000fd5b505050506040513d602081101561056f57600080fd5b5051905090565b60008054604080517fdd62ed3e000000000000000000000000000000000000000000000000000000008152336004820181905230602483015291519193926001600160a01b03169163dd62ed3e91604480820192602092909190829003018186803b1580156105e457600080fd5b505afa1580156105f8573d6000803e3d6000fd5b505050506040513d602081101561060e57600080fd5b5051905082610664576040805162461bcd60e51b815260206004820152601d60248201527f416d6f756e74206d7573742062652067726561746572207468616e2030000000604482015290519081900360640190fd5b828110156106b9576040805162461bcd60e51b815260206004820152601960248201527f546f6b656e20616c6c6f77616e636520746f6f20736d616c6c00000000000000604482015290519081900360640190fd5b6106c282610851565b60006106d7846106d185610441565b906108c8565b90506106e383826108ac565b6001546106f090856108c8565b60015560008054604080517f23b872dd0000000000000000000000000000000000000000000000000000000081526001600160a01b03878116600483015230602483015260448201899052915191909216926323b872dd92606480820193602093909283900390910190829087803b15801561076b57600080fd5b505af115801561077f573d6000803e3d6000fd5b505050506040513d602081101561079557600080fd5b50506040805185815260208101839052815133927f90890809c654f11d6e72a28fa60149770a0d11ec6c92319d6ceb2bb0a4ea1a15928290030190a250505050565b6001600160a01b031660009081526003602052604090205490565b6107fb82610576565b6108048161080e565b5050565b60015481565b6108183382610922565b60408051828152905133917f625fed9875dada8643f2418b838ae0bc78d9a148a18eee4ee1979ff0f3f5d427919081900360200190a250565b50565b6000546001600160a01b031690565b60006108a583836040518060400160405280601e81526020017f536166654d6174683a207375627472616374696f6e206f766572666c6f770000815250610a38565b9392505050565b6001600160a01b03909116600090815260026020526040902055565b6000828201838110156108a5576040805162461bcd60e51b815260206004820152601b60248201527f536166654d6174683a206164646974696f6e206f766572666c6f770000000000604482015290519081900360640190fd5b428111610976576040805162461bcd60e51b815260206004820152601f60248201527f54696d657374616d70206d75737420626520696e207468652066757475726500604482015290519081900360640190fd5b6301e1338042018111156109d1576040805162461bcd60e51b815260206004820152601160248201527f54696d657374616d7020746f6f20626967000000000000000000000000000000604482015290519081900360640190fd5b60006109dc83610441565b11610a2e576040805162461bcd60e51b815260206004820152601560248201527f53656e64657220686173206e6f2062616c616e63650000000000000000000000604482015290519081900360640190fd5b6108048282610acf565b60008184841115610ac75760405162461bcd60e51b81526004018080602001828103825283818151815260200191508051906020019080838360005b83811015610a8c578181015183820152602001610a74565b50505050905090810190601f168015610ab95780820380516001836020036101000a031916815260200191505b509250505060405180910390fd5b505050900390565b6001600160a01b0390911660009081526003602052604090205556fea2646970667358221220e9dc405dbdaf3c2531de9bcd257a6d602b2ddb854884bf6d20b814957bd0618464736f6c634300060c0033",
  "source": "pragma solidity >=0.6.0 <0.7.0;\n\nimport \"../external/barnbridge/BarnInterface.sol\";\nimport \"@pooltogether/fixed-point/contracts/FixedPoint.sol\";\nimport \"@openzeppelin/contracts-upgradeable/token/ERC20/IERC20Upgradeable.sol\";\nimport \"@openzeppelin/contracts/math/SafeMath.sol\";\nimport \"./BarnBridgeToken.sol\";\n\ncontract BarnFacetMock is BarnInterface {\n    using SafeMath for uint256;\n\n    uint256 public constant MAX_LOCK = 365 days;\n    uint256 constant BASE_MULTIPLIER = 1e18;\n\n    BarnBridgeToken private bond;\n    uint256 public override bondStaked;\n    mapping(address => uint256) private balances;\n    mapping(address => uint256) private lockedBalances;\n\n    event Deposit(address indexed user, uint256 amount, uint256 newBalance);\n    event Withdraw(\n        address indexed user,\n        uint256 amountWithdrew,\n        uint256 amountLeft\n    );\n    event Lock(address indexed user, uint256 timestamp);\n\n    constructor(BarnBridgeToken _bond) public {\n        bond = _bond;\n    }\n\n    function token() external view override returns (IERC20Upgradeable) {\n        return bond;\n    }\n\n    function balance() public view returns (uint256) {\n        return bond.balanceOf(address(this));\n    }\n\n    function removeLiquidity(uint256 _amount) external {\n        bond.transfer(msg.sender, _amount);\n    }\n\n    function deposit(uint256 _amount) public override {\n        address user = msg.sender;\n        uint256 allowance = bond.allowance(msg.sender, address(this));\n\n        require(_amount > 0, \"Amount must be greater than 0\");\n        require(allowance >= _amount, \"Token allowance too small\");\n\n        callRegisterUserAction(user);\n\n        uint256 newBalance = balanceOf(user).add(_amount);\n        _updateUserBalance(user, newBalance);\n\n        bondStaked = bondStaked.add(_amount);\n        bond.transferFrom(user, address(this), _amount);\n\n        emit Deposit(msg.sender, _amount, newBalance);\n    }\n\n    function lock(uint256 timestamp) public {\n        _lock(msg.sender, timestamp);\n        emit Lock(msg.sender, timestamp);\n    }\n\n    function depositAndLock(uint256 amount, uint256 timestamp) public override {\n        deposit(amount);\n        lock(timestamp);\n    }\n\n    function _lock(address user, uint256 timestamp) internal {\n        require(timestamp > block.timestamp, \"Timestamp must be in the future\");\n        require(timestamp <= block.timestamp + MAX_LOCK, \"Timestamp too big\");\n        require(balanceOf(user) > 0, \"Sender has no balance\");\n\n        _updateUserLock(user, timestamp);\n    }\n\n    function withdraw(uint256 amount) public override {\n        address user = msg.sender;\n        require(amount > 0, \"Amount must be greater than 0\");\n        require(\n            userLockedUntil(msg.sender) <= block.timestamp,\n            \"User balance is locked\"\n        );\n\n        require(balanceOf(msg.sender) >= amount, \"Insufficient balance\");\n\n        callRegisterUserAction(user);\n\n        uint256 balanceAfterWithdrawal = balanceOf(msg.sender).sub(amount);\n        _updateUserBalance(user, balanceAfterWithdrawal);\n\n        bondStaked = bondStaked.sub(amount);\n        bond.transfer(msg.sender, amount);\n\n        emit Withdraw(msg.sender, amount, balanceAfterWithdrawal);\n    }\n\n    function callRegisterUserAction(address user) public {}\n\n    function balanceOf(address user) public view override returns (uint256) {\n        return balances[user];\n    }\n\n    function _updateUserBalance(address user, uint256 amount) internal {\n        balances[user] = amount;\n    }\n\n    function _updateLockedBond(uint256 amount) internal {}\n\n    function _updateUserLock(address user, uint256 timestamp) internal {\n        lockedBalances[user] = timestamp;\n    }\n\n    function userLockedUntil(address user)\n        public\n        view\n        override\n        returns (uint256)\n    {\n        return lockedBalances[user];\n    }\n\n}\n",
  "sourcePath": "/Users/stelyangeorgiev/Documents/Coding/BarnBridge/pooltogether-pool-contracts/contracts/test/BarnFacetMock.sol",
  "compiler": {
    "name": "solc",
    "version": "0.6.12+commit.27d51765.Emscripten.clang",
    "optimizer": true,
    "runs": 999
  },
  "schemaVersion": "2.3.3",
  "updatedAt": "2021-01-20T13:29:57.846Z"
}