{
  "contractName": "BarnPrizePool",
  "abi": [
    {
      "anonymous": false,
      "inputs": [
        {
          "indexed": false,
          "internalType": "uint256",
          "name": "amount",
          "type": "uint256"
        }
      ],
      "name": "AwardCaptured",
      "type": "event"
    },
    {
      "anonymous": false,
      "inputs": [
        {
          "indexed": true,
          "internalType": "address",
          "name": "winner",
          "type": "address"
        },
        {
          "indexed": true,
          "internalType": "address",
          "name": "token",
          "type": "address"
        },
        {
          "indexed": false,
          "internalType": "uint256",
          "name": "amount",
          "type": "uint256"
        }
      ],
      "name": "Awarded",
      "type": "event"
    },
    {
      "anonymous": false,
      "inputs": [
        {
          "indexed": true,
          "internalType": "address",
          "name": "winner",
          "type": "address"
        },
        {
          "indexed": true,
          "internalType": "address",
          "name": "token",
          "type": "address"
        },
        {
          "indexed": false,
          "internalType": "uint256",
          "name": "amount",
          "type": "uint256"
        }
      ],
      "name": "AwardedExternalERC20",
      "type": "event"
    },
    {
      "anonymous": false,
      "inputs": [
        {
          "indexed": true,
          "internalType": "address",
          "name": "winner",
          "type": "address"
        },
        {
          "indexed": true,
          "internalType": "address",
          "name": "token",
          "type": "address"
        },
        {
          "indexed": false,
          "internalType": "uint256[]",
          "name": "tokenIds",
          "type": "uint256[]"
        }
      ],
      "name": "AwardedExternalERC721",
      "type": "event"
    },
    {
      "anonymous": false,
      "inputs": [
        {
          "indexed": true,
          "internalType": "address",
          "name": "barn",
          "type": "address"
        }
      ],
      "name": "BarnPrizePoolInitialized",
      "type": "event"
    },
    {
      "anonymous": false,
      "inputs": [
        {
          "indexed": true,
          "internalType": "contract ControlledTokenInterface",
          "name": "token",
          "type": "address"
        }
      ],
      "name": "ControlledTokenAdded",
      "type": "event"
    },
    {
      "anonymous": false,
      "inputs": [
        {
          "indexed": true,
          "internalType": "address",
          "name": "user",
          "type": "address"
        },
        {
          "indexed": true,
          "internalType": "address",
          "name": "token",
          "type": "address"
        },
        {
          "indexed": false,
          "internalType": "uint256",
          "name": "amount",
          "type": "uint256"
        }
      ],
      "name": "CreditBurned",
      "type": "event"
    },
    {
      "anonymous": false,
      "inputs": [
        {
          "indexed": true,
          "internalType": "address",
          "name": "user",
          "type": "address"
        },
        {
          "indexed": true,
          "internalType": "address",
          "name": "token",
          "type": "address"
        },
        {
          "indexed": false,
          "internalType": "uint256",
          "name": "amount",
          "type": "uint256"
        }
      ],
      "name": "CreditMinted",
      "type": "event"
    },
    {
      "anonymous": false,
      "inputs": [
        {
          "indexed": false,
          "internalType": "address",
          "name": "token",
          "type": "address"
        },
        {
          "indexed": false,
          "internalType": "uint128",
          "name": "creditLimitMantissa",
          "type": "uint128"
        },
        {
          "indexed": false,
          "internalType": "uint128",
          "name": "creditRateMantissa",
          "type": "uint128"
        }
      ],
      "name": "CreditPlanSet",
      "type": "event"
    },
    {
      "anonymous": false,
      "inputs": [
        {
          "indexed": true,
          "internalType": "address",
          "name": "operator",
          "type": "address"
        },
        {
          "indexed": true,
          "internalType": "address",
          "name": "to",
          "type": "address"
        },
        {
          "indexed": true,
          "internalType": "address",
          "name": "token",
          "type": "address"
        },
        {
          "indexed": false,
          "internalType": "uint256",
          "name": "amount",
          "type": "uint256"
        },
        {
          "indexed": false,
          "internalType": "address",
          "name": "referrer",
          "type": "address"
        }
      ],
      "name": "Deposited",
      "type": "event"
    },
    {
      "anonymous": false,
      "inputs": [
        {
          "indexed": false,
          "internalType": "address",
          "name": "reserveRegistry",
          "type": "address"
        },
        {
          "indexed": false,
          "internalType": "uint256",
          "name": "maxExitFeeMantissa",
          "type": "uint256"
        },
        {
          "indexed": false,
          "internalType": "uint256",
          "name": "maxTimelockDuration",
          "type": "uint256"
        }
      ],
      "name": "Initialized",
      "type": "event"
    },
    {
      "anonymous": false,
      "inputs": [
        {
          "indexed": true,
          "internalType": "address",
          "name": "operator",
          "type": "address"
        },
        {
          "indexed": true,
          "internalType": "address",
          "name": "from",
          "type": "address"
        },
        {
          "indexed": true,
          "internalType": "address",
          "name": "token",
          "type": "address"
        },
        {
          "indexed": false,
          "internalType": "uint256",
          "name": "amount",
          "type": "uint256"
        },
        {
          "indexed": false,
          "internalType": "uint256",
          "name": "redeemed",
          "type": "uint256"
        },
        {
          "indexed": false,
          "internalType": "uint256",
          "name": "exitFee",
          "type": "uint256"
        }
      ],
      "name": "InstantWithdrawal",
      "type": "event"
    },
    {
      "anonymous": false,
      "inputs": [
        {
          "indexed": false,
          "internalType": "uint256",
          "name": "liquidityCap",
          "type": "uint256"
        }
      ],
      "name": "LiquidityCapSet",
      "type": "event"
    },
    {
      "anonymous": false,
      "inputs": [
        {
          "indexed": true,
          "internalType": "address",
          "name": "previousOwner",
          "type": "address"
        },
        {
          "indexed": true,
          "internalType": "address",
          "name": "newOwner",
          "type": "address"
        }
      ],
      "name": "OwnershipTransferred",
      "type": "event"
    },
    {
      "anonymous": false,
      "inputs": [
        {
          "indexed": true,
          "internalType": "address",
          "name": "prizeStrategy",
          "type": "address"
        }
      ],
      "name": "PrizeStrategySet",
      "type": "event"
    },
    {
      "anonymous": false,
      "inputs": [
        {
          "indexed": false,
          "internalType": "uint256",
          "name": "amount",
          "type": "uint256"
        }
      ],
      "name": "ReserveFeeCaptured",
      "type": "event"
    },
    {
      "anonymous": false,
      "inputs": [
        {
          "indexed": true,
          "internalType": "address",
          "name": "to",
          "type": "address"
        },
        {
          "indexed": false,
          "internalType": "uint256",
          "name": "amount",
          "type": "uint256"
        }
      ],
      "name": "ReserveWithdrawal",
      "type": "event"
    },
    {
      "anonymous": false,
      "inputs": [
        {
          "indexed": true,
          "internalType": "address",
          "name": "operator",
          "type": "address"
        },
        {
          "indexed": true,
          "internalType": "address",
          "name": "to",
          "type": "address"
        },
        {
          "indexed": true,
          "internalType": "address",
          "name": "token",
          "type": "address"
        },
        {
          "indexed": false,
          "internalType": "uint256",
          "name": "amount",
          "type": "uint256"
        }
      ],
      "name": "TimelockDeposited",
      "type": "event"
    },
    {
      "anonymous": false,
      "inputs": [
        {
          "indexed": true,
          "internalType": "address",
          "name": "operator",
          "type": "address"
        },
        {
          "indexed": true,
          "internalType": "address",
          "name": "from",
          "type": "address"
        },
        {
          "indexed": true,
          "internalType": "address",
          "name": "token",
          "type": "address"
        },
        {
          "indexed": false,
          "internalType": "uint256",
          "name": "amount",
          "type": "uint256"
        },
        {
          "indexed": false,
          "internalType": "uint256",
          "name": "unlockTimestamp",
          "type": "uint256"
        }
      ],
      "name": "TimelockedWithdrawal",
      "type": "event"
    },
    {
      "anonymous": false,
      "inputs": [
        {
          "indexed": true,
          "internalType": "address",
          "name": "operator",
          "type": "address"
        },
        {
          "indexed": true,
          "internalType": "address",
          "name": "from",
          "type": "address"
        },
        {
          "indexed": false,
          "internalType": "uint256",
          "name": "amount",
          "type": "uint256"
        },
        {
          "indexed": false,
          "internalType": "uint256",
          "name": "redeemed",
          "type": "uint256"
        }
      ],
      "name": "TimelockedWithdrawalSwept",
      "type": "event"
    },
    {
      "anonymous": false,
      "inputs": [
        {
          "indexed": true,
          "internalType": "address",
          "name": "to",
          "type": "address"
        },
        {
          "indexed": true,
          "internalType": "address",
          "name": "token",
          "type": "address"
        },
        {
          "indexed": false,
          "internalType": "uint256",
          "name": "amount",
          "type": "uint256"
        }
      ],
      "name": "TransferredExternalERC20",
      "type": "event"
    },
    {
      "inputs": [],
      "name": "accountedBalance",
      "outputs": [
        {
          "internalType": "uint256",
          "name": "",
          "type": "uint256"
        }
      ],
      "stateMutability": "view",
      "type": "function"
    },
    {
      "inputs": [
        {
          "internalType": "contract ControlledTokenInterface",
          "name": "_controlledToken",
          "type": "address"
        }
      ],
      "name": "addControlledToken",
      "outputs": [],
      "stateMutability": "nonpayable",
      "type": "function"
    },
    {
      "inputs": [
        {
          "internalType": "address",
          "name": "to",
          "type": "address"
        },
        {
          "internalType": "uint256",
          "name": "amount",
          "type": "uint256"
        },
        {
          "internalType": "address",
          "name": "controlledToken",
          "type": "address"
        }
      ],
      "name": "award",
      "outputs": [],
      "stateMutability": "nonpayable",
      "type": "function"
    },
    {
      "inputs": [],
      "name": "awardBalance",
      "outputs": [
        {
          "internalType": "uint256",
          "name": "",
          "type": "uint256"
        }
      ],
      "stateMutability": "view",
      "type": "function"
    },
    {
      "inputs": [
        {
          "internalType": "address",
          "name": "to",
          "type": "address"
        },
        {
          "internalType": "address",
          "name": "externalToken",
          "type": "address"
        },
        {
          "internalType": "uint256",
          "name": "amount",
          "type": "uint256"
        }
      ],
      "name": "awardExternalERC20",
      "outputs": [],
      "stateMutability": "nonpayable",
      "type": "function"
    },
    {
      "inputs": [
        {
          "internalType": "address",
          "name": "to",
          "type": "address"
        },
        {
          "internalType": "address",
          "name": "externalToken",
          "type": "address"
        },
        {
          "internalType": "uint256[]",
          "name": "tokenIds",
          "type": "uint256[]"
        }
      ],
      "name": "awardExternalERC721",
      "outputs": [],
      "stateMutability": "nonpayable",
      "type": "function"
    },
    {
      "inputs": [],
      "name": "balance",
      "outputs": [
        {
          "internalType": "uint256",
          "name": "",
          "type": "uint256"
        }
      ],
      "stateMutability": "nonpayable",
      "type": "function"
    },
    {
      "inputs": [
        {
          "internalType": "address",
          "name": "user",
          "type": "address"
        },
        {
          "internalType": "address",
          "name": "controlledToken",
          "type": "address"
        }
      ],
      "name": "balanceOfCredit",
      "outputs": [
        {
          "internalType": "uint256",
          "name": "",
          "type": "uint256"
        }
      ],
      "stateMutability": "nonpayable",
      "type": "function"
    },
    {
      "inputs": [],
      "name": "barn",
      "outputs": [
        {
          "internalType": "contract BarnInterface",
          "name": "",
          "type": "address"
        }
      ],
      "stateMutability": "view",
      "type": "function"
    },
    {
      "inputs": [
        {
          "internalType": "address",
          "name": "from",
          "type": "address"
        },
        {
          "internalType": "address",
          "name": "to",
          "type": "address"
        },
        {
          "internalType": "uint256",
          "name": "amount",
          "type": "uint256"
        }
      ],
      "name": "beforeTokenTransfer",
      "outputs": [],
      "stateMutability": "nonpayable",
      "type": "function"
    },
    {
      "inputs": [],
      "name": "bond",
      "outputs": [
        {
          "internalType": "contract IERC20Upgradeable",
          "name": "",
          "type": "address"
        }
      ],
      "stateMutability": "view",
      "type": "function"
    },
    {
      "inputs": [
        {
          "internalType": "address",
          "name": "from",
          "type": "address"
        },
        {
          "internalType": "address",
          "name": "controlledToken",
          "type": "address"
        },
        {
          "internalType": "uint256",
          "name": "amount",
          "type": "uint256"
        }
      ],
      "name": "calculateEarlyExitFee",
      "outputs": [
        {
          "internalType": "uint256",
          "name": "exitFee",
          "type": "uint256"
        },
        {
          "internalType": "uint256",
          "name": "burnedCredit",
          "type": "uint256"
        }
      ],
      "stateMutability": "nonpayable",
      "type": "function"
    },
    {
      "inputs": [
        {
          "internalType": "uint256",
          "name": "amount",
          "type": "uint256"
        }
      ],
      "name": "calculateReserveFee",
      "outputs": [
        {
          "internalType": "uint256",
          "name": "",
          "type": "uint256"
        }
      ],
      "stateMutability": "view",
      "type": "function"
    },
    {
      "inputs": [
        {
          "internalType": "address",
          "name": "from",
          "type": "address"
        },
        {
          "internalType": "address",
          "name": "controlledToken",
          "type": "address"
        },
        {
          "internalType": "uint256",
          "name": "amount",
          "type": "uint256"
        }
      ],
      "name": "calculateTimelockDuration",
      "outputs": [
        {
          "internalType": "uint256",
          "name": "durationSeconds",
          "type": "uint256"
        },
        {
          "internalType": "uint256",
          "name": "burnedCredit",
          "type": "uint256"
        }
      ],
      "stateMutability": "nonpayable",
      "type": "function"
    },
    {
      "inputs": [
        {
          "internalType": "address",
          "name": "_externalToken",
          "type": "address"
        }
      ],
      "name": "canAwardExternal",
      "outputs": [
        {
          "internalType": "bool",
          "name": "",
          "type": "bool"
        }
      ],
      "stateMutability": "view",
      "type": "function"
    },
    {
      "inputs": [],
      "name": "captureAwardBalance",
      "outputs": [
        {
          "internalType": "uint256",
          "name": "",
          "type": "uint256"
        }
      ],
      "stateMutability": "nonpayable",
      "type": "function"
    },
    {
      "inputs": [
        {
          "internalType": "address",
          "name": "controlledToken",
          "type": "address"
        }
      ],
      "name": "creditPlanOf",
      "outputs": [
        {
          "internalType": "uint128",
          "name": "creditLimitMantissa",
          "type": "uint128"
        },
        {
          "internalType": "uint128",
          "name": "creditRateMantissa",
          "type": "uint128"
        }
      ],
      "stateMutability": "view",
      "type": "function"
    },
    {
      "inputs": [
        {
          "internalType": "address",
          "name": "to",
          "type": "address"
        },
        {
          "internalType": "uint256",
          "name": "amount",
          "type": "uint256"
        },
        {
          "internalType": "address",
          "name": "controlledToken",
          "type": "address"
        },
        {
          "internalType": "address",
          "name": "referrer",
          "type": "address"
        }
      ],
      "name": "depositTo",
      "outputs": [],
      "stateMutability": "nonpayable",
      "type": "function"
    },
    {
      "inputs": [
        {
          "internalType": "address",
          "name": "_controlledToken",
          "type": "address"
        },
        {
          "internalType": "uint256",
          "name": "_principal",
          "type": "uint256"
        },
        {
          "internalType": "uint256",
          "name": "_interest",
          "type": "uint256"
        }
      ],
      "name": "estimateCreditAccrualTime",
      "outputs": [
        {
          "internalType": "uint256",
          "name": "durationSeconds",
          "type": "uint256"
        }
      ],
      "stateMutability": "view",
      "type": "function"
    },
    {
      "inputs": [],
      "name": "liquidityCap",
      "outputs": [
        {
          "internalType": "uint256",
          "name": "",
          "type": "uint256"
        }
      ],
      "stateMutability": "view",
      "type": "function"
    },
    {
      "inputs": [],
      "name": "maxExitFeeMantissa",
      "outputs": [
        {
          "internalType": "uint256",
          "name": "",
          "type": "uint256"
        }
      ],
      "stateMutability": "view",
      "type": "function"
    },
    {
      "inputs": [],
      "name": "maxTimelockDuration",
      "outputs": [
        {
          "internalType": "uint256",
          "name": "",
          "type": "uint256"
        }
      ],
      "stateMutability": "view",
      "type": "function"
    },
    {
      "inputs": [],
      "name": "owner",
      "outputs": [
        {
          "internalType": "address",
          "name": "",
          "type": "address"
        }
      ],
      "stateMutability": "view",
      "type": "function"
    },
    {
      "inputs": [],
      "name": "prizeStrategy",
      "outputs": [
        {
          "internalType": "contract TokenListenerInterface",
          "name": "",
          "type": "address"
        }
      ],
      "stateMutability": "view",
      "type": "function"
    },
    {
      "inputs": [],
      "name": "renounceOwnership",
      "outputs": [],
      "stateMutability": "nonpayable",
      "type": "function"
    },
    {
      "inputs": [],
      "name": "reserveRegistry",
      "outputs": [
        {
          "internalType": "contract RegistryInterface",
          "name": "",
          "type": "address"
        }
      ],
      "stateMutability": "view",
      "type": "function"
    },
    {
      "inputs": [],
      "name": "reserveTotalSupply",
      "outputs": [
        {
          "internalType": "uint256",
          "name": "",
          "type": "uint256"
        }
      ],
      "stateMutability": "view",
      "type": "function"
    },
    {
      "inputs": [],
      "name": "rewards",
      "outputs": [
        {
          "internalType": "contract BarnRewardsInterface",
          "name": "",
          "type": "address"
        }
      ],
      "stateMutability": "view",
      "type": "function"
    },
    {
      "inputs": [
        {
          "internalType": "address",
          "name": "_controlledToken",
          "type": "address"
        },
        {
          "internalType": "uint128",
          "name": "_creditRateMantissa",
          "type": "uint128"
        },
        {
          "internalType": "uint128",
          "name": "_creditLimitMantissa",
          "type": "uint128"
        }
      ],
      "name": "setCreditPlanOf",
      "outputs": [],
      "stateMutability": "nonpayable",
      "type": "function"
    },
    {
      "inputs": [
        {
          "internalType": "uint256",
          "name": "_liquidityCap",
          "type": "uint256"
        }
      ],
      "name": "setLiquidityCap",
      "outputs": [],
      "stateMutability": "nonpayable",
      "type": "function"
    },
    {
      "inputs": [
        {
          "internalType": "contract TokenListenerInterface",
          "name": "_prizeStrategy",
          "type": "address"
        }
      ],
      "name": "setPrizeStrategy",
      "outputs": [],
      "stateMutability": "nonpayable",
      "type": "function"
    },
    {
      "inputs": [
        {
          "internalType": "address[]",
          "name": "users",
          "type": "address[]"
        }
      ],
      "name": "sweepTimelockBalances",
      "outputs": [
        {
          "internalType": "uint256",
          "name": "",
          "type": "uint256"
        }
      ],
      "stateMutability": "nonpayable",
      "type": "function"
    },
    {
      "inputs": [
        {
          "internalType": "address",
          "name": "user",
          "type": "address"
        }
      ],
      "name": "timelockBalanceAvailableAt",
      "outputs": [
        {
          "internalType": "uint256",
          "name": "",
          "type": "uint256"
        }
      ],
      "stateMutability": "view",
      "type": "function"
    },
    {
      "inputs": [
        {
          "internalType": "address",
          "name": "user",
          "type": "address"
        }
      ],
      "name": "timelockBalanceOf",
      "outputs": [
        {
          "internalType": "uint256",
          "name": "",
          "type": "uint256"
        }
      ],
      "stateMutability": "view",
      "type": "function"
    },
    {
      "inputs": [
        {
          "internalType": "address",
          "name": "to",
          "type": "address"
        },
        {
          "internalType": "uint256",
          "name": "amount",
          "type": "uint256"
        },
        {
          "internalType": "address",
          "name": "controlledToken",
          "type": "address"
        }
      ],
      "name": "timelockDepositTo",
      "outputs": [],
      "stateMutability": "nonpayable",
      "type": "function"
    },
    {
      "inputs": [],
      "name": "timelockTotalSupply",
      "outputs": [
        {
          "internalType": "uint256",
          "name": "",
          "type": "uint256"
        }
      ],
      "stateMutability": "view",
      "type": "function"
    },
    {
      "inputs": [],
      "name": "token",
      "outputs": [
        {
          "internalType": "address",
          "name": "",
          "type": "address"
        }
      ],
      "stateMutability": "view",
      "type": "function"
    },
    {
      "inputs": [],
      "name": "tokens",
      "outputs": [
        {
          "internalType": "address[]",
          "name": "",
          "type": "address[]"
        }
      ],
      "stateMutability": "view",
      "type": "function"
    },
    {
      "inputs": [
        {
          "internalType": "address",
          "name": "to",
          "type": "address"
        },
        {
          "internalType": "address",
          "name": "externalToken",
          "type": "address"
        },
        {
          "internalType": "uint256",
          "name": "amount",
          "type": "uint256"
        }
      ],
      "name": "transferExternalERC20",
      "outputs": [],
      "stateMutability": "nonpayable",
      "type": "function"
    },
    {
      "inputs": [
        {
          "internalType": "address",
          "name": "newOwner",
          "type": "address"
        }
      ],
      "name": "transferOwnership",
      "outputs": [],
      "stateMutability": "nonpayable",
      "type": "function"
    },
    {
      "inputs": [
        {
          "internalType": "address",
          "name": "from",
          "type": "address"
        },
        {
          "internalType": "uint256",
          "name": "amount",
          "type": "uint256"
        },
        {
          "internalType": "address",
          "name": "controlledToken",
          "type": "address"
        },
        {
          "internalType": "uint256",
          "name": "maximumExitFee",
          "type": "uint256"
        }
      ],
      "name": "withdrawInstantlyFrom",
      "outputs": [
        {
          "internalType": "uint256",
          "name": "",
          "type": "uint256"
        }
      ],
      "stateMutability": "nonpayable",
      "type": "function"
    },
    {
      "inputs": [
        {
          "internalType": "address",
          "name": "to",
          "type": "address"
        }
      ],
      "name": "withdrawReserve",
      "outputs": [
        {
          "internalType": "uint256",
          "name": "",
          "type": "uint256"
        }
      ],
      "stateMutability": "nonpayable",
      "type": "function"
    },
    {
      "inputs": [
        {
          "internalType": "address",
          "name": "from",
          "type": "address"
        },
        {
          "internalType": "uint256",
          "name": "amount",
          "type": "uint256"
        },
        {
          "internalType": "address",
          "name": "controlledToken",
          "type": "address"
        }
      ],
      "name": "withdrawWithTimelockFrom",
      "outputs": [
        {
          "internalType": "uint256",
          "name": "",
          "type": "uint256"
        }
      ],
      "stateMutability": "nonpayable",
      "type": "function"
    },
    {
      "inputs": [
        {
          "internalType": "contract RegistryInterface",
          "name": "_reserveRegistry",
          "type": "address"
        },
        {
          "internalType": "contract ControlledTokenInterface[]",
          "name": "_controlledTokens",
          "type": "address[]"
        },
        {
          "internalType": "uint256",
          "name": "_maxExitFeeMantissa",
          "type": "uint256"
        },
        {
          "internalType": "uint256",
          "name": "_maxTimelockDuration",
          "type": "uint256"
        }
      ],
      "name": "initialize",
      "outputs": [],
      "stateMutability": "nonpayable",
      "type": "function"
    },
    {
      "inputs": [
        {
          "internalType": "contract RegistryInterface",
          "name": "_reserveRegistry",
          "type": "address"
        },
        {
          "internalType": "contract ControlledTokenInterface[]",
          "name": "_controlledTokens",
          "type": "address[]"
        },
        {
          "internalType": "uint256",
          "name": "_maxExitFeeMantissa",
          "type": "uint256"
        },
        {
          "internalType": "uint256",
          "name": "_maxTimelockDuration",
          "type": "uint256"
        },
        {
          "internalType": "contract BarnInterface",
          "name": "_barn",
          "type": "address"
        },
        {
          "internalType": "contract BarnRewardsInterface",
          "name": "_rewards",
          "type": "address"
        },
        {
          "internalType": "contract IERC20Upgradeable",
          "name": "_bond",
          "type": "address"
        }
      ],
      "name": "initialize",
      "outputs": [],
      "stateMutability": "nonpayable",
      "type": "function"
    }
  ],
  "bytecode": "0x608060405234801561001057600080fd5b50614ff3806100206000396000f3fe608060405234801561001057600080fd5b50600436106102ff5760003560e01c80638f03daef1161019c578063abca6e71116100ee578063e603d32e11610097578063f2fde38b11610071578063f2fde38b14610af1578063f69bd42814610b17578063fc0c546a14610b1f576102ff565b8063e603d32e14610a08578063e6d8a94b14610ae1578063edb4e1cf14610ae9576102ff565b8063d4a1361d116100c8578063d4a1361d1461096f578063db92f7f0146109c4578063e323f825146109cc576102ff565b8063abca6e71146108fb578063b3a7b78a14610931578063b69ef8a814610967576102ff565b80639d63848a116101505780639fe32a911161012a5780639fe32a9114610867578063a016240b14610884578063a7b2cc31146108be576102ff565b80639d63848a146107ff5780639e167519146108575780639ec5a8941461085f576102ff565b8063941d505d11610181578063941d505d1461079b57806394d43e14146107c157806398bf3eb6146107f7576102ff565b80638f03daef1461074f57806391ca480e14610775576102ff565b80636968f8b31161025557806379cb856311610209578063888c2b6f116101e3578063888c2b6f146106f05780638da5cb5b1461073f5780638e71c1f614610747576102ff565b806379cb85631461066b5780637b99adb11461069d5780637cbab1c7146106ba576102ff565b80636b1b863a1161023a5780636b1b863a14610625578063715018a61461065b57806376687d3d14610663576102ff565b80636968f8b3146105c55780636a3fd4f9146105eb576102ff565b80632b0ab144116102b757806352a387ab1161029157806352a387ab1461058f578063630665b4146105b557806364c9ec6f146105bd576102ff565b80632b0ab144146104bb5780633e7580a9146104f1578063494de9f714610561576102ff565b806313f55e39116102e857806313f55e39146103d857806316960d551461040e578063194f480e14610497576102ff565b80630881cffb146103045780630937eb54146103be575b600080fd5b6103bc6004803603608081101561031a57600080fd5b6001600160a01b03823516919081019060408101602082013564010000000081111561034557600080fd5b82018360208201111561035757600080fd5b8035906020019184602083028401116401000000008311171561037957600080fd5b9190808060200260200160405190810160405280939291908181526020018383602002808284376000920191909152509295505082359350505060200135610b27565b005b6103c6610cd0565b60408051918252519081900360200190f35b6103bc600480360360608110156103ee57600080fd5b506001600160a01b03813581169160208101359091169060400135610cdf565b6103bc6004803603606081101561042457600080fd5b6001600160a01b03823581169260208101359091169181019060608101604082013564010000000081111561045857600080fd5b82018360208201111561046a57600080fd5b8035906020019184602083028401116401000000008311171561048c57600080fd5b509092509050610daf565b61049f610faa565b604080516001600160a01b039092168252519081900360200190f35b6103bc600480360360608110156104d157600080fd5b506001600160a01b03813581169160208101359091169060400135610fb9565b6103c66004803603602081101561050757600080fd5b81019060208101813564010000000081111561052257600080fd5b82018360208201111561053457600080fd5b8035906020019184602083028401116401000000008311171561055657600080fd5b509092509050611088565b6103c66004803603604081101561057757600080fd5b506001600160a01b038135811691602001351661112c565b6103c6600480360360208110156105a557600080fd5b50356001600160a01b031661123f565b6103c6611395565b61049f61139b565b6103c6600480360360208110156105db57600080fd5b50356001600160a01b03166113aa565b6106116004803603602081101561060157600080fd5b50356001600160a01b03166113c9565b604080519115158252519081900360200190f35b6103bc6004803603606081101561063b57600080fd5b506001600160a01b038135811691602081013591604090910135166113da565b6103bc611600565b6103c66116b4565b6103c66004803603606081101561068157600080fd5b506001600160a01b0381351690602081013590604001356116ba565b6103bc600480360360208110156106b357600080fd5b50356116d1565b6103bc600480360360608110156106d057600080fd5b506001600160a01b03813581169160208101359091169060400135611747565b6107266004803603606081101561070657600080fd5b506001600160a01b038135811691602081013590911690604001356119b8565b6040805192835260208301919091528051918290030190f35b61049f6119d2565b61049f6119e1565b6103c66004803603602081101561076557600080fd5b50356001600160a01b03166119f0565b6103bc6004803603602081101561078b57600080fd5b50356001600160a01b0316611a0b565b6103bc600480360360208110156107b157600080fd5b50356001600160a01b0316611a7e565b6103bc600480360360608110156107d757600080fd5b506001600160a01b03813581169160208101359160409091013516611af1565b61049f611cb7565b610807611cc6565b60408051602080825283518183015283519192839290830191858101910280838360005b8381101561084357818101518382015260200161082b565b505050509050019250505060405180910390f35b6103c6611cd2565b61049f611cd8565b6103c66004803603602081101561087d57600080fd5b5035611ce7565b6103c66004803603608081101561089a57600080fd5b506001600160a01b0381358116916020810135916040820135169060600135611e1d565b6103bc600480360360608110156108d457600080fd5b506001600160a01b03813516906001600160801b0360208201358116916040013516612060565b6107266004803603606081101561091157600080fd5b506001600160a01b038135811691602081013590911690604001356121ca565b6103c66004803603606081101561094757600080fd5b506001600160a01b038135811691602081013591604090910135166121d8565b6103c66123cb565b6109956004803603602081101561098557600080fd5b50356001600160a01b03166123d5565b60405180836001600160801b03168152602001826001600160801b031681526020019250505060405180910390f35b6103c6612405565b6103bc600480360360808110156109e257600080fd5b506001600160a01b0381358116916020810135916040820135811691606001351661240b565b6103bc600480360360e0811015610a1e57600080fd5b6001600160a01b038235169190810190604081016020820135640100000000811115610a4957600080fd5b820183602082011115610a5b57600080fd5b80359060200191846020830284011164010000000083111715610a7d57600080fd5b919080806020026020016040519081016040528093929190818152602001838360200280828437600092019190915250929550508235935050506020810135906001600160a01b0360408201358116916060810135821691608090910135166125cc565b6103c66126e9565b6103c661285f565b6103bc60048036036020811015610b0757600080fd5b50356001600160a01b0316612865565b6103c6612970565b61049f612976565b600054610100900460ff1680610b405750610b40612980565b80610b4e575060005460ff16155b610b895760405162461bcd60e51b815260040180806020018281038252602e815260200180614ef8602e913960400191505060405180910390fd5b600054610100900460ff16158015610bb4576000805460ff1961ff0019909116610100171660011790555b6001600160a01b038516610bf95760405162461bcd60e51b8152600401808060200182810382526022815260200180614eb06022913960400191505060405180910390fd5b610c036098612986565b60005b8451811015610c3357610c2b858281518110610c1e57fe5b60200260200101516129ff565b600101610c06565b50610c3c612b0b565b610c44612bbc565b610c4f600019612c51565b609780546001600160a01b0387166001600160a01b03199091168117909155609b849055609c8390556040805191825260208201859052818101849052517f0f91882b50d9330af0b1d4998e6af7f2eaee90ce7e77ea54fea089af166d021d9181900360600190a18015610cc9576000805461ff00191690555b5050505050565b6000610cda612c8c565b905090565b609a546001600160a01b0316610cf3612d78565b6001600160a01b031614610d4e576040805162461bcd60e51b815260206004820152601c60248201527f5072697a65506f6f6c2f6f6e6c792d7072697a65537472617465677900000000604482015290519081900360640190fd5b610d59838383612d7c565b15610daa57816001600160a01b0316836001600160a01b03167fb0bac59718cd343c80a813518afcf36846cfcfe6d56e2b3cab9bd49f5f9b251c836040518082815260200191505060405180910390a35b505050565b609a546001600160a01b0316610dc3612d78565b6001600160a01b031614610e1e576040805162461bcd60e51b815260206004820152601c60248201527f5072697a65506f6f6c2f6f6e6c792d7072697a65537472617465677900000000604482015290519081900360640190fd5b610e2783612e03565b610e78576040805162461bcd60e51b815260206004820181905260248201527f5072697a65506f6f6c2f696e76616c69642d65787465726e616c2d746f6b656e604482015290519081900360640190fd5b80610e8257610fa4565b60005b81811015610f2b57836001600160a01b03166323b872dd3087868686818110610eaa57fe5b905060200201356040518463ffffffff1660e01b815260040180846001600160a01b03168152602001836001600160a01b031681526020018281526020019350505050600060405180830381600087803b158015610f0757600080fd5b505af1158015610f1b573d6000803e3d6000fd5b505060019092019150610e859050565b50826001600160a01b0316846001600160a01b03167f69c2de32bc4d47f488e72626a6cfdee85089342e52675e7de79c4b417623960c848460405180806020018281038252848482818152602001925060200280828437600083820152604051601f909101601f19169092018290039550909350505050a35b50505050565b60a5546001600160a01b031681565b609a546001600160a01b0316610fcd612d78565b6001600160a01b031614611028576040805162461bcd60e51b815260206004820152601c60248201527f5072697a65506f6f6c2f6f6e6c792d7072697a65537472617465677900000000604482015290519081900360640190fd5b611033838383612d7c565b15610daa57816001600160a01b0316836001600160a01b03167fc65f48aca3b7a99b7443d04b8ffbb073156179bc628dc3f7def5047748973469836040518082815260200191505060405180910390a3505050565b6000600260655414156110e2576040805162461bcd60e51b815260206004820152601f60248201527f5265656e7472616e637947756172643a207265656e7472616e742063616c6c00604482015290519081900360640190fd5b6002606555604080516020808502828101820190935284825261112092869186918291850190849080828437600092019190915250612e1892505050565b60016065559392505050565b600081611138816130cc565b611183576040805162461bcd60e51b8152602060048201526017602482015276283934bd32a837b7b617bab735b737bbb716ba37b5b2b760491b604482015290519081900360640190fd5b6112088484856001600160a01b03166370a08231886040518263ffffffff1660e01b815260040180826001600160a01b0316815260200191505060206040518083038186803b1580156111d557600080fd5b505afa1580156111e9573d6000803e3d6000fd5b505050506040513d60208110156111ff57600080fd5b505160006130d9565b50506001600160a01b03908116600090815260a460209081526040808320949093168252929092529020546001600160c01b031690565b600080609760009054906101000a90046001600160a01b03166001600160a01b031663f5e3542b6040518163ffffffff1660e01b815260040160206040518083038186803b15801561129057600080fd5b505afa1580156112a4573d6000803e3d6000fd5b505050506040513d60208110156112ba57600080fd5b505190506001600160a01b038116331461131b576040805162461bcd60e51b815260206004820152601660248201527f5072697a65506f6f6c2f6f6e6c792d7265736572766500000000000000000000604482015290519081900360640190fd5b609e80546000918290559061132f826130ef565b905061134e858261133e61352e565b6001600160a01b0316919061353d565b6040805183815290516001600160a01b038716917f1c71c8e11fd443227c8f8d3dc1a237a3a5e8310b540c7fbcf5169754aedf42c9919081900360200190a2949350505050565b60a05490565b60a7546001600160a01b031681565b6001600160a01b038116600090815260a160205260409020545b919050565b60006113d482612e03565b92915050565b609a546001600160a01b03166113ee612d78565b6001600160a01b031614611449576040805162461bcd60e51b815260206004820152601c60248201527f5072697a65506f6f6c2f6f6e6c792d7072697a65537472617465677900000000604482015290519081900360640190fd5b80611453816130cc565b61149e576040805162461bcd60e51b8152602060048201526017602482015276283934bd32a837b7b617bab735b737bbb716ba37b5b2b760491b604482015290519081900360640190fd5b826114a857610fa4565b60a0548311156114ff576040805162461bcd60e51b815260206004820152601d60248201527f5072697a65506f6f6c2f61776172642d657863656564732d617661696c000000604482015290519081900360640190fd5b60a05461150c90846135a8565b60a05561151c84848460006135ea565b600061152883856136e9565b90506115ae8584856001600160a01b03166370a08231896040518263ffffffff1660e01b815260040180826001600160a01b0316815260200191505060206040518083038186803b15801561157c57600080fd5b505afa158015611590573d6000803e3d6000fd5b505050506040513d60208110156115a657600080fd5b5051846130d9565b826001600160a01b0316856001600160a01b03167fe2554529d99ab7a67db6b4cea2b32c7d55ae325f958861e05f304fdded867e31866040518082815260200191505060405180910390a35050505050565b611608612d78565b6033546001600160a01b0390811691161461166a576040805162461bcd60e51b815260206004820181905260248201527f4f776e61626c653a2063616c6c6572206973206e6f7420746865206f776e6572604482015290519081900360640190fd5b6033546040516000916001600160a01b0316907f8be0079c531659141344cd1fd0a4f28419497f9722a3daafe3b4186f6b6457e0908390a3603380546001600160a01b0319169055565b609f5481565b60006116c7848484613721565b90505b9392505050565b6116d9612d78565b6033546001600160a01b0390811691161461173b576040805162461bcd60e51b815260206004820181905260248201527f4f776e61626c653a2063616c6c6572206973206e6f7420746865206f776e6572604482015290519081900360640190fd5b61174481612c51565b50565b33611751816130cc565b61179c576040805162461bcd60e51b8152602060048201526017602482015276283934bd32a837b7b617bab735b737bbb716ba37b5b2b760491b604482015290519081900360640190fd5b6001600160a01b03841615611876576000336001600160a01b03166370a08231866040518263ffffffff1660e01b815260040180826001600160a01b0316815260200191505060206040518083038186803b1580156117fa57600080fd5b505afa15801561180e573d6000803e3d6000fd5b505050506040513d602081101561182457600080fd5b5051905060006118368633848461377b565b9050846001600160a01b0316866001600160a01b031614611868576118653361185f84876135a8565b8361380a565b90505b611873863383613850565b50505b6001600160a01b038316158015906118a05750836001600160a01b0316836001600160a01b031614155b156118f7576118f78333336001600160a01b03166370a08231876040518263ffffffff1660e01b815260040180826001600160a01b0316815260200191505060206040518083038186803b1580156111d557600080fd5b6001600160a01b038416158015906119195750609a546001600160a01b031615155b15610fa457609a54604080517fb22109570000000000000000000000000000000000000000000000000000000081526001600160a01b0387811660048301528681166024830152604482018690523360648301529151919092169163b221095791608480830192600092919082900301818387803b15801561199a57600080fd5b505af11580156119ae573d6000803e3d6000fd5b5050505050505050565b6000806119c6858585613a31565b91509150935093915050565b6033546001600160a01b031690565b6097546001600160a01b031681565b6001600160a01b0316600090815260a2602052604090205490565b611a13612d78565b6033546001600160a01b03908116911614611a75576040805162461bcd60e51b815260206004820181905260248201527f4f776e61626c653a2063616c6c6572206973206e6f7420746865206f776e6572604482015290519081900360640190fd5b61174481613bd6565b611a86612d78565b6033546001600160a01b03908116911614611ae8576040805162461bcd60e51b815260206004820181905260248201527f4f776e61626c653a2063616c6c6572206973206e6f7420746865206f776e6572604482015290519081900360640190fd5b611744816129ff565b80611afb816130cc565b611b46576040805162461bcd60e51b8152602060048201526017602482015276283934bd32a837b7b617bab735b737bbb716ba37b5b2b760491b604482015290519081900360640190fd5b82611b5081613cff565b611ba1576040805162461bcd60e51b815260206004820152601f60248201527f5072697a65506f6f6c2f657863656564732d6c69717569646974792d63617000604482015290519081900360640190fd5b60026065541415611bf9576040805162461bcd60e51b815260206004820152601f60248201527f5265656e7472616e637947756172643a207265656e7472616e742063616c6c00604482015290519081900360640190fd5b60026065556000611c08612d78565b9050611c1786868660006135ea565b6001600160a01b038116600090815260a16020526040902054611c3a90866135a8565b6001600160a01b038216600090815260a16020526040902055609d54611c6090866135a8565b609d556040805186815290516001600160a01b038087169289821692918516917f5e2892708ad1e30084c9b26159ffc666e18a9bffef3e61c8020110b5542db9cf9181900360200190a45050600160655550505050565b609a546001600160a01b031681565b6060610cda6098613d23565b609b5481565b60a6546001600160a01b031681565b600080609760009054906101000a90046001600160a01b03166001600160a01b031663f5e3542b6040518163ffffffff1660e01b815260040160206040518083038186803b158015611d3857600080fd5b505afa158015611d4c573d6000803e3d6000fd5b505050506040513d6020811015611d6257600080fd5b505190506001600160a01b038116611d7e5760009150506113c4565b6000816001600160a01b031663010dfa58306040518263ffffffff1660e01b815260040180826001600160a01b0316815260200191505060206040518083038186803b158015611dcd57600080fd5b505afa158015611de1573d6000803e3d6000fd5b505050506040513d6020811015611df757600080fd5b5051905080611e0b576000925050506113c4565b611e158482613dfa565b949350505050565b600060026065541415611e77576040805162461bcd60e51b815260206004820152601f60248201527f5265656e7472616e637947756172643a207265656e7472616e742063616c6c00604482015290519081900360640190fd5b600260655582611e86816130cc565b611ed1576040805162461bcd60e51b8152602060048201526017602482015276283934bd32a837b7b617bab735b737bbb716ba37b5b2b760491b604482015290519081900360640190fd5b600080611edf888789613a31565b9150915084821115611f225760405162461bcd60e51b8152600401808060200182810382526027815260200180614f476027913960400191505060405180910390fd5b611f2d888783613e1b565b856001600160a01b031663631b5dfb611f44612d78565b8a8a6040518463ffffffff1660e01b815260040180846001600160a01b03168152602001836001600160a01b031681526020018281526020019350505050600060405180830381600087803b158015611f9c57600080fd5b505af1158015611fb0573d6000803e3d6000fd5b505050506000611fc983896135a890919063ffffffff16565b90506000611fd6826130ef565b9050611fe58a8261133e61352e565b876001600160a01b03168a6001600160a01b0316612001612d78565b604080518d81526020810186905280820189905290516001600160a01b0392909216917f0271704a58fd2953e49b87d67a0a3ce28a58147de98a5457f60b4686f63850309181900360600190a450506001606555509695505050505050565b8261206a816130cc565b6120b5576040805162461bcd60e51b8152602060048201526017602482015276283934bd32a837b7b617bab735b737bbb716ba37b5b2b760491b604482015290519081900360640190fd5b6120bd612d78565b6033546001600160a01b0390811691161461211f576040805162461bcd60e51b815260206004820181905260248201527f4f776e61626c653a2063616c6c6572206973206e6f7420746865206f776e6572604482015290519081900360640190fd5b6040805180820182526001600160801b0380851680835286821660208085018281526001600160a01b038b16600081815260a384528890209651875492518716600160801b029087166fffffffffffffffffffffffffffffffff1990931692909217909516179094558451928352928201528083019190915290517ffb0ba2cf86a2b03bcf387753a2192da80a006afa99dd022bb301c78e323bf1b99181900360600190a150505050565b6000806119c6858585613ef4565b600060026065541415612232576040805162461bcd60e51b815260206004820152601f60248201527f5265656e7472616e637947756172643a207265656e7472616e742063616c6c00604482015290519081900360640190fd5b600260655581612241816130cc565b61228c576040805162461bcd60e51b8152602060048201526017602482015276283934bd32a837b7b617bab735b737bbb716ba37b5b2b760491b604482015290519081900360640190fd5b6000612296613f33565b90506000806122a6888789613ef4565b909250905060006122b78484613f37565b90506122c4898884613e1b565b866001600160a01b031663631b5dfb6122db612d78565b8b8b6040518463ffffffff1660e01b815260040180846001600160a01b03168152602001836001600160a01b031681526020018281526020019350505050600060405180830381600087803b15801561233357600080fd5b505af1158015612347573d6000803e3d6000fd5b50505050612356898983613f91565b866001600160a01b0316896001600160a01b0316612372612d78565b6001600160a01b03167f8525b0d0266acfc7f6134894f8c4bea88f1beb343d5a3c11b0f3b982a8becfab8b85604051808381526020018281526020019250505060405180910390a4600160655598975050505050505050565b6000610cda61405c565b6001600160a01b0316600090815260a360205260409020546001600160801b0380821692600160801b9092041690565b609d5481565b81612415816130cc565b612460576040805162461bcd60e51b8152602060048201526017602482015276283934bd32a837b7b617bab735b737bbb716ba37b5b2b760491b604482015290519081900360640190fd5b8361246a81613cff565b6124bb576040805162461bcd60e51b815260206004820152601f60248201527f5072697a65506f6f6c2f657863656564732d6c69717569646974792d63617000604482015290519081900360640190fd5b60026065541415612513576040805162461bcd60e51b815260206004820152601f60248201527f5265656e7472616e637947756172643a207265656e7472616e742063616c6c00604482015290519081900360640190fd5b60026065556000612522612d78565b9050612530878787876135ea565b61254f81308861253e61352e565b6001600160a01b0316929190614181565b612558866141f4565b846001600160a01b0316876001600160a01b0316826001600160a01b03167f6ce569498e0f86f147466ac49211cb2a1ffe06195adb805e383b3f2365109160898860405180838152602001826001600160a01b031681526020019250505060405180910390a4505060016065555050505050565b600054610100900460ff16806125e557506125e5612980565b806125f3575060005460ff16155b61262e5760405162461bcd60e51b815260040180806020018281038252602e815260200180614ef8602e913960400191505060405180910390fd5b600054610100900460ff16158015612659576000805460ff1961ff0019909116610100171660011790555b61266588888888610b27565b60a580546001600160a01b038087166001600160a01b0319928316179283905560a6805487831690841617905560a780548683169316929092179091556040519116907f41c68f28445dc010f1d6e0c34ef167ed0d8e5bdbe36aec6b6dd371f0602752ce90600090a280156119ae576000805461ff00191690555050505050505050565b600060026065541415612743576040805162461bcd60e51b815260206004820152601f60248201527f5265656e7472616e637947756172643a207265656e7472616e742063616c6c00604482015290519081900360640190fd5b60026065556000612752612c8c565b9050600061275e61405c565b9050600082821161277057600061277a565b61277a82846135a8565b9050600060a054821161278e57600061279c565b60a05461279c9083906135a8565b9050801561284e5760006127af82611ce7565b9050801561280957609e546127c49082613f37565b609e556127d182826135a8565b6040805183815290519193507f5f1703ccfa2730d4245350f228079926a37f26a44ecf6978a7eeafff0af11407919081900360200190a15b60a0546128169083613f37565b60a0556040805183815290517fce2b6e507c7ca1a20ce136810f524eefc19ba4c7e4866eb6cc0cba76e778d4be9181900360200190a1505b60a054945050505050600160655590565b609e5481565b61286d612d78565b6033546001600160a01b039081169116146128cf576040805162461bcd60e51b815260206004820181905260248201527f4f776e61626c653a2063616c6c6572206973206e6f7420746865206f776e6572604482015290519081900360640190fd5b6001600160a01b0381166129145760405162461bcd60e51b8152600401808060200182810382526026815260200180614e636026913960400191505060405180910390fd5b6033546040516001600160a01b038084169216907f8be0079c531659141344cd1fd0a4f28419497f9722a3daafe3b4186f6b6457e090600090a3603380546001600160a01b0319166001600160a01b0392909216919091179055565b609c5481565b6000610cda61352e565b303b1590565b8054156129da576040805162461bcd60e51b815260206004820152600c60248201527f416c726561647920696e69740000000000000000000000000000000000000000604482015290519081900360640190fd5b60016000818152918101602052604090912080546001600160a01b0319169091179055565b306001600160a01b0316816001600160a01b031663f77c47916040518163ffffffff1660e01b815260040160206040518083038186803b158015612a4257600080fd5b505afa158015612a56573d6000803e3d6000fd5b505050506040513d6020811015612a6c57600080fd5b50516001600160a01b031614612ac9576040805162461bcd60e51b815260206004820152601e60248201527f5072697a65506f6f6c2f746f6b656e2d6374726c722d6d69736d617463680000604482015290519081900360640190fd5b612ad46098826142ec565b6040516001600160a01b038216907f460e712b4a5d801d031ed673dea209b73ab854f7ddeb86b6c48082e92c3eee6690600090a250565b600054610100900460ff1680612b245750612b24612980565b80612b32575060005460ff16155b612b6d5760405162461bcd60e51b815260040180806020018281038252602e815260200180614ef8602e913960400191505060405180910390fd5b600054610100900460ff16158015612b98576000805460ff1961ff0019909116610100171660011790555b612ba061441e565b612ba86144be565b8015611744576000805461ff001916905550565b600054610100900460ff1680612bd55750612bd5612980565b80612be3575060005460ff16155b612c1e5760405162461bcd60e51b815260040180806020018281038252602e815260200180614ef8602e913960400191505060405180910390fd5b600054610100900460ff16158015612c49576000805460ff1961ff0019909116610100171660011790555b612ba86145b7565b609f8190556040805182815290517f3ff20538222f568f27ff436c0c49dfd3e48d5b8f86533a3f759dc1c7089775ab9181900360200190a150565b600080612ca6609e54609d54613f3790919063ffffffff16565b90506000612cb4609861465d565b90505b6001600160a01b03811615801590612cea5750612cd4609861467a565b6001600160a01b0316816001600160a01b031614155b15612d7257612d5e816001600160a01b03166318160ddd6040518163ffffffff1660e01b815260040160206040518083038186803b158015612d2b57600080fd5b505afa158015612d3f573d6000803e3d6000fd5b505050506040513d6020811015612d5557600080fd5b50518390613f37565b9150612d6b609882614680565b9050612cb7565b50905090565b3390565b6000612d8783612e03565b612dd8576040805162461bcd60e51b815260206004820181905260248201527f5072697a65506f6f6c2f696e76616c69642d65787465726e616c2d746f6b656e604482015290519081900360640190fd5b81612de5575060006116ca565b612df96001600160a01b038416858461353d565b5060019392505050565b60a7546001600160a01b039081169116141590565b600080612e23612d78565b90506060835167ffffffffffffffff81118015612e3f57600080fd5b50604051908082528060200260200182016040528015612e69578160200160208202803683370190505b5090506000805b8551811015612f38576000868281518110612e8757fe5b60200260200101519050612e99613f33565b6001600160a01b038216600090815260a2602052604090205411612f2f576001600160a01b038116600090815260a16020526040902054612edb908490613f37565b6001600160a01b038216600090815260a16020526040902054855191945090859084908110612f0657fe5b6020908102919091018101919091526001600160a01b038216600090815260a190915260408120555b50600101612e70565b81612f4a5760009450505050506113c4565b609d54612f5790836135a8565b609d556000612f65836130ef565b90506000612f7161352e565b9050600092505b87518310156130c0576000858481518110612f8f57fe5b602002602001015111156130b55760a26000898581518110612fad57fe5b60200260200101516001600160a01b03166001600160a01b03168152602001908152602001600020600090556000612ff8868581518110612fea57fe5b6020026020010151866146a3565b905060006130068483613dfa565b90506130398a868151811061301757fe5b602002602001015182856001600160a01b031661353d9092919063ffffffff16565b89858151811061304557fe5b60200260200101516001600160a01b0316886001600160a01b03167fbb0b86d17da09eb201fde0b40e5129e29184c65db2bf7e6ec15cf199daccd1d289888151811061308d57fe5b602002602001015184604051808381526020018281526020019250505060405180910390a350505b600190920191612f78565b50919695505050505050565b60006113d46098836146c4565b610fa484846130ea8787878761377b565b613850565b6000816130fa61405c565b101561314d576040805162461bcd60e51b815260206004820152601e60248201527f4261726e5072697a65506f6f6c2f696e737566662d6c69717569646974790000604482015290519081900360640190fd5b600061315761352e565b60a6546040805163df18e04760e01b8152306004820152905192935060009283926001600160a01b03169163df18e047916024808301926020929190829003018186803b1580156131a757600080fd5b505afa1580156131bb573d6000803e3d6000fd5b505050506040513d60208110156131d157600080fd5b5051905080156132445760a660009054906101000a90046001600160a01b03166001600160a01b0316634e71d92d6040518163ffffffff1660e01b8152600401600060405180830381600087803b15801561322b57600080fd5b505af115801561323f573d6000803e3d6000fd5b505050505b6000836001600160a01b03166370a08231306040518263ffffffff1660e01b815260040180826001600160a01b0316815260200191505060206040518083038186803b15801561329357600080fd5b505afa1580156132a7573d6000803e3d6000fd5b505050506040513d60208110156132bd57600080fd5b50519050858111156133be576132d381876135a8565b60a5546040805163095ea7b360e01b81526001600160a01b0392831660048201526024810184905290519295509086169163095ea7b3916044808201926020929091908290030181600087803b15801561332c57600080fd5b505af1158015613340573d6000803e3d6000fd5b505050506040513d602081101561335657600080fd5b505060a5546040805163b6b55f2560e01b81526004810186905290516001600160a01b039092169163b6b55f259160248082019260009290919082900301818387803b1580156133a557600080fd5b505af11580156133b9573d6000803e3d6000fd5b505050505b85811015613452576133d086826135a8565b60a554604080517f2e1a7d4d0000000000000000000000000000000000000000000000000000000081526004810184905290519295506001600160a01b0390911691632e1a7d4d9160248082019260009290919082900301818387803b15801561343957600080fd5b505af115801561344d573d6000803e3d6000fd5b505050505b6000846001600160a01b03166370a08231306040518263ffffffff1660e01b815260040180826001600160a01b0316815260200191505060206040518083038186803b1580156134a157600080fd5b505afa1580156134b5573d6000803e3d6000fd5b505050506040513d60208110156134cb57600080fd5b50519050868114613523576040805162461bcd60e51b815260206004820152601e60248201527f4261726e5072697a65506f6f6c2f696e737566662d6c69717569646974790000604482015290519081900360640190fd5b509495945050505050565b60a7546001600160a01b031690565b604080516001600160a01b038416602482015260448082018490528251808303909101815260649091019091526020810180516001600160e01b03167fa9059cbb00000000000000000000000000000000000000000000000000000000179052610daa908490614715565b60006116ca83836040518060400160405280601e81526020017f536166654d6174683a207375627472616374696f6e206f766572666c6f7700008152506147c6565b609a546001600160a01b03161561369257609a54604080517f4d7f3db00000000000000000000000000000000000000000000000000000000081526001600160a01b038781166004830152602482018790528581166044830152848116606483015291519190921691634d7f3db091608480830192600092919082900301818387803b15801561367957600080fd5b505af115801561368d573d6000803e3d6000fd5b505050505b816001600160a01b0316635d7b075885856040518363ffffffff1660e01b815260040180836001600160a01b0316815260200182815260200192505050600060405180830381600087803b15801561199a57600080fd5b6001600160a01b038216600090815260a360205260408120546116ca90839061371c9082906001600160801b0316613dfa565b61485d565b6001600160a01b038316600090815260a360205260408120548190613757908590600160801b90046001600160801b0316613dfa565b9050806137685760009150506116ca565b6137728382614882565b95945050505050565b6001600160a01b03838116600090815260a46020908152604080832093881683529290529081208054829190600160e01b900460ff166137be5760009150613800565b60006137cb8888886148c4565b82549091506137fc90889088906137f79089906137f1906001600160c01b031687613f37565b90613f37565b61380a565b9250505b5095945050505050565b6001600160a01b038316600090815260a3602052604081205481906138399085906001600160801b0316613dfa565b905080831115613847578092505b50909392505050565b6001600160a01b03808316600090815260a4602090815260408083209387168352929052819020548151606081019092526001600160c01b0316908061389584614975565b6001600160801b031681526020016138b36138ae613f33565b6149bd565b63ffffffff908116825260016020928301526001600160a01b03868116600090815260a484526040808220928a168252918452819020845181549486015195909201517fffffffffffffffff0000000000000000000000000000000000000000000000009094166001600160c01b03909216919091177fffffffff00000000ffffffffffffffffffffffffffffffffffffffffffffffff16600160c01b9490921693909302177fffffff00ffffffffffffffffffffffffffffffffffffffffffffffffffffffff16600160e01b91151591909102179055818110156139e1576001600160a01b038084169085167f2f92d56910619b38bc29fd8e4ca5e56359edac7a0c086cdcd305fb603fa374916139cb85856135a8565b60408051918252519081900360200190a3610fa4565b6001600160a01b038084169085167ff584c579437bc25785b953cc4d8d247251812751e1871c6130cbdecf95a106cf613a1a84866135a8565b60408051918252519081900360200190a350505050565b6000806000846001600160a01b03166370a08231876040518263ffffffff1660e01b815260040180826001600160a01b0316815260200191505060206040518083038186803b158015613a8357600080fd5b505afa158015613a97573d6000803e3d6000fd5b505050506040513d6020811015613aad57600080fd5b5051905083811015613b06576040805162461bcd60e51b815260206004820152601660248201527f5072697a65506f6f6c2f696e737566662d66756e647300000000000000000000604482015290519081900360640190fd5b613b1386868360006130d9565b6000613b2886613b2384886135a8565b6136e9565b6001600160a01b03808816600090815260a460209081526040808320938c16835292905290812054919250906001600160c01b03168211613b9f576001600160a01b03808816600090815260a460209081526040808320938c1683529290522054613b9c906001600160c01b0316836135a8565b90505b6000613bab88886136e9565b9050808211613bba5781613bbc565b805b9450613bc881866135a8565b955050505050935093915050565b6001600160a01b038116613c31576040805162461bcd60e51b815260206004820181905260248201527f5072697a65506f6f6c2f7072697a6553747261746567792d6e6f742d7a65726f604482015290519081900360640190fd5b613c646001600160a01b0382167fff5e34e700000000000000000000000000000000000000000000000000000000614a02565b613cb5576040805162461bcd60e51b815260206004820152601f60248201527f5072697a65506f6f6c2f7072697a6553747261746567792d696e76616c696400604482015290519081900360640190fd5b609a80546001600160a01b0319166001600160a01b0383169081179091556040517f7f58dc86bc2e435cb77ca0edb1df55e25f90caf2d6bd866971715437d456a21290600090a250565b600080613d0a612c8c565b609f54909150613d1a8285613f37565b11159392505050565b606080826000015467ffffffffffffffff81118015613d4157600080fd5b50604051908082528060200260200182016040528015613d6b578160200160208202803683370190505b50600160008181529085016020526040812054919250906001600160a01b03165b6001600160a01b03811615801590613dae57506001600160a01b038116600114155b156138475780838381518110613dc057fe5b6001600160a01b03928316602091820292909201810191909152918116600090815260018088019093526040902054929091019116613d8c565b600080613e078385614a1e565b9050611e1581670de0b6b3a7640000614882565b6001600160a01b03808316600090815260a46020908152604080832093871683529290522054613e5d90613e58906001600160c01b0316836135a8565b614975565b6001600160a01b03808416600081815260a4602090815260408083209489168084529482529182902080547fffffffffffffffff000000000000000000000000000000000000000000000000166001600160801b0396909616959095179094558051858152905191937ff584c579437bc25785b953cc4d8d247251812751e1871c6130cbdecf95a106cf92918290030190a3505050565b600080600080613f05878787613a31565b915091506000613f16878785613721565b9050609c54811115613f275750609c545b97909650945050505050565b4290565b6000828201838110156116ca576040805162461bcd60e51b815260206004820152601b60248201527f536166654d6174683a206164646974696f6e206f766572666c6f770000000000604482015290519081900360640190fd5b604080516001808252818301909252606091602080830190803683370190505090508381600081518110613fc157fe5b60200260200101906001600160a01b031690816001600160a01b031681525050613fea81612e18565b50609d54613ff89084613f37565b609d556001600160a01b038416600090815260a1602052604090205461401e9084613f37565b6001600160a01b038516600090815260a1602090815260408083209390935560a290522082905561404d613f33565b8211610fa457610cc981612e18565b60a554604080517f70a08231000000000000000000000000000000000000000000000000000000008152306004820152905160009283926001600160a01b03909116916370a0823191602480820192602092909190829003018186803b1580156140c557600080fd5b505afa1580156140d9573d6000803e3d6000fd5b505050506040513d60208110156140ef57600080fd5b505160a6546040805163df18e04760e01b815230600482015290519293506000926001600160a01b039092169163df18e04791602480820192602092909190829003018186803b15801561414257600080fd5b505afa158015614156573d6000803e3d6000fd5b505050506040513d602081101561416c57600080fd5b5051905061417a8282613f37565b9250505090565b604080516001600160a01b0380861660248301528416604482015260648082018490528251808303909101815260849091019091526020810180516001600160e01b03167f23b872dd00000000000000000000000000000000000000000000000000000000179052610fa4908590614715565b60006141fe61352e565b60a5546040805163095ea7b360e01b81526001600160a01b0392831660048201526024810186905290519293509083169163095ea7b3916044808201926020929091908290030181600087803b15801561425757600080fd5b505af115801561426b573d6000803e3d6000fd5b505050506040513d602081101561428157600080fd5b505060a5546040805163b6b55f2560e01b81526004810185905290516001600160a01b039092169163b6b55f259160248082019260009290919082900301818387803b1580156142d057600080fd5b505af11580156142e4573d6000803e3d6000fd5b505050505050565b6001600160a01b03811660011480159061430e57506001600160a01b03811615155b61435f576040805162461bcd60e51b815260206004820152600f60248201527f496e76616c696420616464726573730000000000000000000000000000000000604482015290519081900360640190fd5b6001600160a01b03818116600090815260018401602052604090205416156143ce576040805162461bcd60e51b815260206004820152600d60248201527f416c726561647920616464656400000000000000000000000000000000000000604482015290519081900360640190fd5b60016000818152838201602052604080822080546001600160a01b039586168085529284208054969091166001600160a01b03199687161790559183905281549093169092179091558154019055565b600054610100900460ff16806144375750614437612980565b80614445575060005460ff16155b6144805760405162461bcd60e51b815260040180806020018281038252602e815260200180614ef8602e913960400191505060405180910390fd5b600054610100900460ff16158015612ba8576000805460ff1961ff0019909116610100171660011790558015611744576000805461ff001916905550565b600054610100900460ff16806144d757506144d7612980565b806144e5575060005460ff16155b6145205760405162461bcd60e51b815260040180806020018281038252602e815260200180614ef8602e913960400191505060405180910390fd5b600054610100900460ff1615801561454b576000805460ff1961ff0019909116610100171660011790555b6000614555612d78565b603380546001600160a01b0319166001600160a01b038316908117909155604051919250906000907f8be0079c531659141344cd1fd0a4f28419497f9722a3daafe3b4186f6b6457e0908290a3508015611744576000805461ff001916905550565b600054610100900460ff16806145d057506145d0612980565b806145de575060005460ff16155b6146195760405162461bcd60e51b815260040180806020018281038252602e815260200180614ef8602e913960400191505060405180910390fd5b600054610100900460ff16158015614644576000805460ff1961ff0019909116610100171660011790555b60016065558015611744576000805461ff001916905550565b60016000818152910160205260409020546001600160a01b031690565b50600190565b6001600160a01b0380821660009081526001840160205260409020541692915050565b6000806146b884670de0b6b3a7640000614a1e565b9050611e158184614882565b60006001600160a01b0382166001148015906146e857506001600160a01b03821615155b80156116ca5750506001600160a01b03908116600090815260019290920160205260409091205416151590565b606061476a826040518060400160405280602081526020017f5361666545524332303a206c6f772d6c6576656c2063616c6c206661696c6564815250856001600160a01b0316614a779092919063ffffffff16565b805190915015610daa5780806020019051602081101561478957600080fd5b5051610daa5760405162461bcd60e51b815260040180806020018281038252602a815260200180614f94602a913960400191505060405180910390fd5b600081848411156148555760405162461bcd60e51b81526004018080602001828103825283818151815260200191508051906020019080838360005b8381101561481a578181015183820152602001614802565b50505050905090810190601f1680156148475780820380516001836020036101000a031916815260200191505b509250505060405180910390fd5b505050900390565b60008061486c84609b54613dfa565b90508083111561487a578092505b509092915050565b60006116ca83836040518060400160405280601a81526020017f536166654d6174683a206469766973696f6e206279207a65726f000000000000815250614a86565b6001600160a01b03828116600090815260a460209081526040808320938716835292905290812054600160c01b810463ffffffff1690600160e01b900460ff166149125760009150506116ca565b600061492682614920613f33565b906135a8565b6001600160a01b038616600090815260a360205260408120549192509061495e908690600160801b90046001600160801b0316613dfa565b905061496a8282614a1e565b979650505050505050565b6000600160801b82106149b95760405162461bcd60e51b8152600401808060200182810382526027815260200180614e896027913960400191505060405180910390fd5b5090565b600064010000000082106149b95760405162461bcd60e51b8152600401808060200182810382526026815260200180614f6e6026913960400191505060405180910390fd5b6000614a0d83614aeb565b80156116ca57506116ca8383614b36565b600082614a2d575060006113d4565b82820282848281614a3a57fe5b04146116ca5760405162461bcd60e51b8152600401808060200182810382526021815260200180614f266021913960400191505060405180910390fd5b60606116c78484600085614b59565b60008183614ad55760405162461bcd60e51b815260206004820181815283516024840152835190928392604490910191908501908083836000831561481a578181015183820152602001614802565b506000838581614ae157fe5b0495945050505050565b6000614afe826301ffc9a760e01b614b36565b80156113d45750614b2f827fffffffff00000000000000000000000000000000000000000000000000000000614b36565b1592915050565b6000806000614b458585614caa565b915091508180156137725750949350505050565b606082471015614b9a5760405162461bcd60e51b8152600401808060200182810382526026815260200180614ed26026913960400191505060405180910390fd5b614ba385614df6565b614bf4576040805162461bcd60e51b815260206004820152601d60248201527f416464726573733a2063616c6c20746f206e6f6e2d636f6e7472616374000000604482015290519081900360640190fd5b60006060866001600160a01b031685876040518082805190602001908083835b60208310614c335780518252601f199092019160209182019101614c14565b6001836020036101000a03801982511681845116808217855250505050505090500191505060006040518083038185875af1925050503d8060008114614c95576040519150601f19603f3d011682016040523d82523d6000602084013e614c9a565b606091505b509150915061496a828286614dfc565b604080517fffffffff00000000000000000000000000000000000000000000000000000000831660248083019190915282518083039091018152604490910182526020810180516001600160e01b03166301ffc9a760e01b1781529151815160009384939284926060926001600160a01b038a169261753092879282918083835b60208310614d4a5780518252601f199092019160209182019101614d2b565b6001836020036101000a0380198251168184511680821785525050505050509050019150506000604051808303818686fa925050503d8060008114614dab576040519150601f19603f3d011682016040523d82523d6000602084013e614db0565b606091505b5091509150602081511015614dce5760008094509450505050614def565b81818060200190516020811015614de457600080fd5b505190955093505050505b9250929050565b3b151590565b60608315614e0b5750816116ca565b825115614e1b5782518084602001fd5b60405162461bcd60e51b815260206004820181815284516024840152845185939192839260440191908501908083836000831561481a57818101518382015260200161480256fe4f776e61626c653a206e6577206f776e657220697320746865207a65726f206164647265737353616665436173743a2076616c756520646f65736e27742066697420696e2031323820626974735072697a65506f6f6c2f7265736572766552656769737472792d6e6f742d7a65726f416464726573733a20696e73756666696369656e742062616c616e636520666f722063616c6c496e697469616c697a61626c653a20636f6e747261637420697320616c726561647920696e697469616c697a6564536166654d6174683a206d756c7469706c69636174696f6e206f766572666c6f775072697a65506f6f6c2f657869742d6665652d657863656564732d757365722d6d6178696d756d53616665436173743a2076616c756520646f65736e27742066697420696e20333220626974735361666545524332303a204552433230206f7065726174696f6e20646964206e6f742073756363656564a2646970667358221220cc73a4fb7ca609025396d63093dd5dacd8872ce395ec51204ace2db7c425060064736f6c634300060c0033",
  "source": "// SPDX-License-Identifier: GPL-3.0\n\npragma solidity >=0.6.0 <0.7.0;\n\nimport \"@openzeppelin/contracts-upgradeable/proxy/Initializable.sol\";\nimport \"@openzeppelin/contracts-upgradeable/math/SafeMathUpgradeable.sol\";\nimport \"@openzeppelin/contracts-upgradeable/token/ERC20/IERC20Upgradeable.sol\";\n\nimport \"../../external/barnbridge/BarnInterface.sol\";\nimport \"../../external/barnbridge/BarnRewardsInterface.sol\";\nimport \"../PrizePool.sol\";\n\n/// @title Prize Pool for Barn Bridge $BOND token\ncontract BarnPrizePool is PrizePool {\n    using SafeMathUpgradeable for uint256;\n\n    event BarnPrizePoolInitialized(address indexed barn);\n\n    /// @notice Interface for the barn\n    BarnInterface public barn;\n\n    /// @notice Interface for the barn rewards\n    BarnRewardsInterface public rewards;\n\n    /// @notice $BOND token\n    IERC20Upgradeable public bond;\n\n    /// @notice Initializes the Prize Pool and Yield Service with the required contract connections\n    /// @param _controlledTokens Array of addresses for the Ticket and Sponsorship Tokens controlled by the Prize Pool\n    /// @param _maxExitFeeMantissa The maximum exit fee size, relative to the withdrawal amount\n    /// @param _maxTimelockDuration The maximum length of time the withdraw timelock could be\n    /// @param _barn Address of the barn\n    function initialize(\n        RegistryInterface _reserveRegistry,\n        ControlledTokenInterface[] memory _controlledTokens,\n        uint256 _maxExitFeeMantissa,\n        uint256 _maxTimelockDuration,\n        BarnInterface _barn,\n        BarnRewardsInterface _rewards,\n        IERC20Upgradeable _bond\n    ) public initializer {\n        PrizePool.initialize(\n            _reserveRegistry,\n            _controlledTokens,\n            _maxExitFeeMantissa,\n            _maxTimelockDuration\n        );\n        barn = _barn;\n        rewards = _rewards;\n        bond = _bond;\n\n        emit BarnPrizePoolInitialized(address(barn));\n    }\n\n    /// @dev Gets the balance of the underlying assets held by the Yield Service\n    /// @return The underlying balance of asset tokens\n    function _balance() internal override returns (uint256) {\n        uint256 balance = barn.balanceOf(address(this));\n        uint256 owed = rewards.owed(address(this));\n        return balance.add(owed);\n    }\n\n    /// @dev Allows a user to supply asset tokens in exchange for yield-bearing tokens\n    /// to be held in escrow by the Yield Service\n    function _supply(uint256 amount) internal override {\n        IERC20Upgradeable bondToken = _token();\n        bondToken.approve(address(barn), amount);\n        barn.deposit(amount);\n    }\n\n    /// @dev The external token cannot be yDai or Dai\n    /// @param _externalToken The address of the token to check\n    /// @return True if the token may be awarded, false otherwise\n    function _canAwardExternal(address _externalToken)\n        internal\n        view\n        override\n        returns (bool)\n    {\n        return _externalToken != address(bond);\n    }\n\n    /// @dev Allows a user to redeem yield-bearing tokens in exchange for the underlying\n    /// asset tokens held in escrow by the Yield Service\n    /// @param amount The amount of underlying tokens to be redeemed\n    /// @return The actual amount of tokens transferred\n    function _redeem(uint256 amount) internal override returns (uint256) {\n        require(_balance() >= amount, \"BarnPrizePool/insuff-liquidity\");\n        IERC20Upgradeable token = _token();\n\n        uint256 diff = 0;\n        uint256 amountToClaim = rewards.owed(address(this));\n\n        /// Check if there is anything to claim from the rewards\n        if (amountToClaim > 0) {\n            rewards.claim();\n        }\n\n        uint256 currentBalance = token.balanceOf(address(this));\n\n        /// If current bond balance is enough, deposit the difference back to Barn\n        if (currentBalance > amount) {\n            diff = currentBalance.sub(amount);\n            token.approve(address(barn), diff);\n            barn.deposit(diff);\n        }\n\n        /// If current bond balance is not enough, try to withdraw the difference from Barn\n        if (currentBalance < amount) {\n            diff = amount.sub(currentBalance);\n            barn.withdraw(diff);\n        }\n\n        uint256 postBalance = token.balanceOf(address(this));\n\n        require(postBalance == amount, \"BarnPrizePool/insuff-liquidity\");\n        return amount;\n    }\n\n    /// @dev Gets the underlying asset token used by the Yield Service\n    /// @return A reference to the interface of the underling asset token\n    function _token() internal view override returns (IERC20Upgradeable) {\n        return IERC20Upgradeable(bond);\n    }\n}\n",
  "sourcePath": "/Users/stelyangeorgiev/Documents/Coding/BarnBridge/pooltogether-pool-contracts/contracts/prize-pool/barnbridge/BarnPrizePool.sol",
  "compiler": {
    "name": "solc",
    "version": "0.6.12+commit.27d51765.Emscripten.clang",
    "optimizer": true,
    "runs": 999
  },
  "schemaVersion": "2.3.3",
  "updatedAt": "2021-01-22T15:28:42.491Z"
}