{
  "contractName": "BarnFacetMock",
  "abi": [
    {
      "inputs": [],
      "stateMutability": "nonpayable",
      "type": "constructor"
    },
    {
      "anonymous": false,
      "inputs": [
        {
          "indexed": true,
          "internalType": "address",
          "name": "user",
          "type": "address"
        },
        {
          "indexed": false,
          "internalType": "uint256",
          "name": "amount",
          "type": "uint256"
        },
        {
          "indexed": false,
          "internalType": "uint256",
          "name": "newBalance",
          "type": "uint256"
        }
      ],
      "name": "Deposit",
      "type": "event"
    },
    {
      "anonymous": false,
      "inputs": [
        {
          "indexed": true,
          "internalType": "address",
          "name": "user",
          "type": "address"
        },
        {
          "indexed": false,
          "internalType": "uint256",
          "name": "timestamp",
          "type": "uint256"
        }
      ],
      "name": "Lock",
      "type": "event"
    },
    {
      "anonymous": false,
      "inputs": [
        {
          "indexed": true,
          "internalType": "address",
          "name": "user",
          "type": "address"
        },
        {
          "indexed": false,
          "internalType": "uint256",
          "name": "amountWithdrew",
          "type": "uint256"
        },
        {
          "indexed": false,
          "internalType": "uint256",
          "name": "amountLeft",
          "type": "uint256"
        }
      ],
      "name": "Withdraw",
      "type": "event"
    },
    {
      "inputs": [],
      "name": "MAX_LOCK",
      "outputs": [
        {
          "internalType": "uint256",
          "name": "",
          "type": "uint256"
        }
      ],
      "stateMutability": "view",
      "type": "function"
    },
    {
      "inputs": [],
      "name": "bond",
      "outputs": [
        {
          "internalType": "contract BarnBridgeToken",
          "name": "",
          "type": "address"
        }
      ],
      "stateMutability": "view",
      "type": "function"
    },
    {
      "inputs": [],
      "name": "bondStaked",
      "outputs": [
        {
          "internalType": "uint256",
          "name": "",
          "type": "uint256"
        }
      ],
      "stateMutability": "view",
      "type": "function"
    },
    {
      "inputs": [],
      "name": "rewards",
      "outputs": [
        {
          "internalType": "contract BarnRewardsInterface",
          "name": "",
          "type": "address"
        }
      ],
      "stateMutability": "view",
      "type": "function"
    },
    {
      "inputs": [
        {
          "internalType": "address",
          "name": "_bond",
          "type": "address"
        },
        {
          "internalType": "address",
          "name": "_rewards",
          "type": "address"
        }
      ],
      "name": "initBarn",
      "outputs": [],
      "stateMutability": "nonpayable",
      "type": "function"
    },
    {
      "inputs": [],
      "name": "balance",
      "outputs": [
        {
          "internalType": "uint256",
          "name": "",
          "type": "uint256"
        }
      ],
      "stateMutability": "view",
      "type": "function"
    },
    {
      "inputs": [
        {
          "internalType": "uint256",
          "name": "_amount",
          "type": "uint256"
        }
      ],
      "name": "deposit",
      "outputs": [],
      "stateMutability": "nonpayable",
      "type": "function"
    },
    {
      "inputs": [
        {
          "internalType": "uint256",
          "name": "timestamp",
          "type": "uint256"
        }
      ],
      "name": "lock",
      "outputs": [],
      "stateMutability": "nonpayable",
      "type": "function"
    },
    {
      "inputs": [
        {
          "internalType": "uint256",
          "name": "amount",
          "type": "uint256"
        },
        {
          "internalType": "uint256",
          "name": "timestamp",
          "type": "uint256"
        }
      ],
      "name": "depositAndLock",
      "outputs": [],
      "stateMutability": "nonpayable",
      "type": "function"
    },
    {
      "inputs": [
        {
          "internalType": "uint256",
          "name": "amount",
          "type": "uint256"
        }
      ],
      "name": "withdraw",
      "outputs": [],
      "stateMutability": "nonpayable",
      "type": "function"
    },
    {
      "inputs": [
        {
          "internalType": "address",
          "name": "user",
          "type": "address"
        }
      ],
      "name": "callRegisterUserAction",
      "outputs": [],
      "stateMutability": "nonpayable",
      "type": "function"
    },
    {
      "inputs": [
        {
          "internalType": "address",
          "name": "user",
          "type": "address"
        }
      ],
      "name": "balanceOf",
      "outputs": [
        {
          "internalType": "uint256",
          "name": "",
          "type": "uint256"
        }
      ],
      "stateMutability": "view",
      "type": "function"
    },
    {
      "inputs": [
        {
          "internalType": "address",
          "name": "user",
          "type": "address"
        }
      ],
      "name": "userLockedUntil",
      "outputs": [
        {
          "internalType": "uint256",
          "name": "",
          "type": "uint256"
        }
      ],
      "stateMutability": "view",
      "type": "function"
    }
  ],
  "bytecode": "0x608060405234801561001057600080fd5b50610bb0806100206000396000f3fe608060405234801561001057600080fd5b50600436106100df5760003560e01c8063b69ef8a81161008c578063bfc1027911610066578063bfc10279146101e8578063c2077e811461020b578063dd46706414610213578063f0bcb6cd14610230576100df565b8063b69ef8a81461019d578063b6b55f25146101a5578063bf0ae48c146101c2576100df565b806365a5d5f0116100bd57806365a5d5f01461015557806370a082311461016f5780639ec5a89414610195576100df565b80632e1a7d4d146100e45780635107a3ae1461010357806364c9ec6f14610131575b600080fd5b610101600480360360208110156100fa57600080fd5b5035610256565b005b6101016004803603604081101561011957600080fd5b506001600160a01b0381358116916020013516610477565b6101396104bd565b604080516001600160a01b039092168252519081900360200190f35b61015d6104cc565b60408051918252519081900360200190f35b61015d6004803603602081101561018557600080fd5b50356001600160a01b03166104d4565b6101396104ef565b61015d6104fe565b610101600480360360208110156101bb57600080fd5b5035610594565b61015d600480360360208110156101d857600080fd5b50356001600160a01b03166107f6565b610101600480360360408110156101fe57600080fd5b5080359060200135610811565b61015d610827565b6101016004803603602081101561022957600080fd5b503561082d565b6101016004803603602081101561024657600080fd5b50356001600160a01b0316610870565b33816102a9576040805162461bcd60e51b815260206004820152601d60248201527f416d6f756e74206d7573742062652067726561746572207468616e2030000000604482015290519081900360640190fd5b426102b3336107f6565b1115610306576040805162461bcd60e51b815260206004820152601660248201527f557365722062616c616e6365206973206c6f636b656400000000000000000000604482015290519081900360640190fd5b81610310336104d4565b1015610363576040805162461bcd60e51b815260206004820152601460248201527f496e73756666696369656e742062616c616e6365000000000000000000000000604482015290519081900360640190fd5b600061037883610372336104d4565b906108f2565b9050610384828261093b565b60025461039190846108f2565b60025560008054604080517fa9059cbb0000000000000000000000000000000000000000000000000000000081523360048201526024810187905290516001600160a01b039092169263a9059cbb926044808401936020939083900390910190829087803b15801561040257600080fd5b505af1158015610416573d6000803e3d6000fd5b505050506040513d602081101561042c57600080fd5b50610438905082610870565b6040805184815260208101839052815133927ff279e6a1f5e320cca91135676d9cb6e44ca8a08c0b88342bcdb1144f6511b568928290030190a2505050565b600080546001600160a01b039384167fffffffffffffffffffffffff00000000000000000000000000000000000000009182161790915560018054929093169116179055565b6000546001600160a01b031681565b6301e1338081565b6001600160a01b031660009081526003602052604090205490565b6001546001600160a01b031681565b60008054604080517f70a0823100000000000000000000000000000000000000000000000000000000815230600482015290516001600160a01b03909216916370a0823191602480820192602092909190829003018186803b15801561056357600080fd5b505afa158015610577573d6000803e3d6000fd5b505050506040513d602081101561058d57600080fd5b5051905090565b60008054604080517fdd62ed3e000000000000000000000000000000000000000000000000000000008152336004820181905230602483015291519193926001600160a01b03169163dd62ed3e91604480820192602092909190829003018186803b15801561060257600080fd5b505afa158015610616573d6000803e3d6000fd5b505050506040513d602081101561062c57600080fd5b5051905082610682576040805162461bcd60e51b815260206004820152601d60248201527f416d6f756e74206d7573742062652067726561746572207468616e2030000000604482015290519081900360640190fd5b828110156106d7576040805162461bcd60e51b815260206004820152601960248201527f546f6b656e20616c6c6f77616e636520746f6f20736d616c6c00000000000000604482015290519081900360640190fd5b60006106ec846106e6856104d4565b90610957565b90506106f8838261093b565b6002546107059085610957565b60025560008054604080517f23b872dd0000000000000000000000000000000000000000000000000000000081526001600160a01b03878116600483015230602483015260448201899052915191909216926323b872dd92606480820193602093909283900390910190829087803b15801561078057600080fd5b505af1158015610794573d6000803e3d6000fd5b505050506040513d60208110156107aa57600080fd5b506107b6905083610870565b6040805185815260208101839052815133927f90890809c654f11d6e72a28fa60149770a0d11ec6c92319d6ceb2bb0a4ea1a15928290030190a250505050565b6001600160a01b031660009081526004602052604090205490565b61081a82610594565b6108238161082d565b5050565b60025481565b61083733826109b1565b60408051828152905133917f625fed9875dada8643f2418b838ae0bc78d9a148a18eee4ee1979ff0f3f5d427919081900360200190a250565b600154604080517f66a7d8210000000000000000000000000000000000000000000000000000000081526001600160a01b038481166004830152915191909216916366a7d82191602480830192600092919082900301818387803b1580156108d757600080fd5b505af11580156108eb573d6000803e3d6000fd5b5050505050565b600061093483836040518060400160405280601e81526020017f536166654d6174683a207375627472616374696f6e206f766572666c6f770000815250610ac7565b9392505050565b6001600160a01b03909116600090815260036020526040902055565b600082820183811015610934576040805162461bcd60e51b815260206004820152601b60248201527f536166654d6174683a206164646974696f6e206f766572666c6f770000000000604482015290519081900360640190fd5b428111610a05576040805162461bcd60e51b815260206004820152601f60248201527f54696d657374616d70206d75737420626520696e207468652066757475726500604482015290519081900360640190fd5b6301e133804201811115610a60576040805162461bcd60e51b815260206004820152601160248201527f54696d657374616d7020746f6f20626967000000000000000000000000000000604482015290519081900360640190fd5b6000610a6b836104d4565b11610abd576040805162461bcd60e51b815260206004820152601560248201527f53656e64657220686173206e6f2062616c616e63650000000000000000000000604482015290519081900360640190fd5b6108238282610b5e565b60008184841115610b565760405162461bcd60e51b81526004018080602001828103825283818151815260200191508051906020019080838360005b83811015610b1b578181015183820152602001610b03565b50505050905090810190601f168015610b485780820380516001836020036101000a031916815260200191505b509250505060405180910390fd5b505050900390565b6001600160a01b0390911660009081526004602052604090205556fea26469706673582212206b61797b92656355e027e7c9c0442b8e62003aeaf0a2afc5a05f019251de74fa64736f6c634300060c0033",
  "source": "pragma solidity >=0.6.0 <0.7.0;\n\nimport \"../external/barnbridge/BarnInterface.sol\";\nimport \"../external/barnbridge/BarnRewardsInterface.sol\";\nimport \"./ERC20Mintable.sol\";\nimport \"@pooltogether/fixed-point/contracts/FixedPoint.sol\";\nimport \"@openzeppelin/contracts-upgradeable/token/ERC20/IERC20Upgradeable.sol\";\nimport \"@openzeppelin/contracts/math/SafeMath.sol\";\nimport \"./BarnBridgeToken.sol\";\n\ncontract BarnFacetMock is BarnInterface {\n    using SafeMath for uint256;\n\n    uint256 public constant MAX_LOCK = 365 days;\n    uint256 constant BASE_MULTIPLIER = 1e18;\n\n    BarnBridgeToken public bond;\n    BarnRewardsInterface public rewards;\n\n    uint256 public override bondStaked;\n    mapping(address => uint256) private balances;\n    mapping(address => uint256) private lockedBalances;\n\n    event Deposit(address indexed user, uint256 amount, uint256 newBalance);\n    event Withdraw(\n        address indexed user,\n        uint256 amountWithdrew,\n        uint256 amountLeft\n    );\n    event Lock(address indexed user, uint256 timestamp);\n\n    constructor() public {}\n\n    function initBarn(address _bond, address _rewards) public {\n        bond = BarnBridgeToken(_bond);\n        rewards = BarnRewardsInterface(_rewards);\n    }\n\n    function balance() public view returns (uint256) {\n        return bond.balanceOf(address(this));\n    }\n\n    function deposit(uint256 _amount) public override {\n        address user = msg.sender;\n        uint256 allowance = bond.allowance(msg.sender, address(this));\n\n        require(_amount > 0, \"Amount must be greater than 0\");\n        require(allowance >= _amount, \"Token allowance too small\");\n\n        uint256 newBalance = balanceOf(user).add(_amount);\n        _updateUserBalance(user, newBalance);\n\n        bondStaked = bondStaked.add(_amount);\n        bond.transferFrom(user, address(this), _amount);\n        callRegisterUserAction(user);\n        emit Deposit(msg.sender, _amount, newBalance);\n    }\n\n    function lock(uint256 timestamp) public {\n        _lock(msg.sender, timestamp);\n        emit Lock(msg.sender, timestamp);\n    }\n\n    function depositAndLock(uint256 amount, uint256 timestamp) public override {\n        deposit(amount);\n        lock(timestamp);\n    }\n\n    function _lock(address user, uint256 timestamp) internal {\n        require(timestamp > block.timestamp, \"Timestamp must be in the future\");\n        require(timestamp <= block.timestamp + MAX_LOCK, \"Timestamp too big\");\n        require(balanceOf(user) > 0, \"Sender has no balance\");\n\n        _updateUserLock(user, timestamp);\n    }\n\n    function withdraw(uint256 amount) public override {\n        address user = msg.sender;\n        require(amount > 0, \"Amount must be greater than 0\");\n        require(\n            userLockedUntil(msg.sender) <= block.timestamp,\n            \"User balance is locked\"\n        );\n\n        require(balanceOf(msg.sender) >= amount, \"Insufficient balance\");\n\n        uint256 balanceAfterWithdrawal = balanceOf(msg.sender).sub(amount);\n        _updateUserBalance(user, balanceAfterWithdrawal);\n\n        bondStaked = bondStaked.sub(amount);\n        bond.transfer(msg.sender, amount);\n        callRegisterUserAction(user);\n        emit Withdraw(msg.sender, amount, balanceAfterWithdrawal);\n    }\n\n    function callRegisterUserAction(address user) public {\n      rewards.registerUserAction(user);\n    }\n\n    function balanceOf(address user) public view override returns (uint256) {\n        return balances[user];\n    }\n\n    function _updateUserBalance(address user, uint256 amount) internal {\n        balances[user] = amount;\n    }\n\n    function _updateLockedBond(uint256 amount) internal {}\n\n    function _updateUserLock(address user, uint256 timestamp) internal {\n        lockedBalances[user] = timestamp;\n    }\n\n    function userLockedUntil(address user)\n        public\n        view\n        override\n        returns (uint256)\n    {\n        return lockedBalances[user];\n    }\n\n}\n",
  "sourcePath": "/Users/stelyangeorgiev/Documents/Coding/BarnBridge/pooltogether-pool-contracts/contracts/test/BarnFacetMock.sol",
  "compiler": {
    "name": "solc",
    "version": "0.6.12+commit.27d51765.Emscripten.clang",
    "optimizer": true,
    "runs": 999
  },
  "schemaVersion": "2.3.3",
  "updatedAt": "2021-01-22T15:28:42.521Z"
}