{
  "_format": "hh-sol-artifact-1",
  "contractName": "BarnPrizePool",
  "sourceName": "contracts/prize-pool/barnbridge/BarnPrizePool.sol",
  "abi": [
    {
      "anonymous": false,
      "inputs": [
        {
          "indexed": false,
          "internalType": "uint256",
          "name": "amount",
          "type": "uint256"
        }
      ],
      "name": "AwardCaptured",
      "type": "event"
    },
    {
      "anonymous": false,
      "inputs": [
        {
          "indexed": true,
          "internalType": "address",
          "name": "winner",
          "type": "address"
        },
        {
          "indexed": true,
          "internalType": "address",
          "name": "token",
          "type": "address"
        },
        {
          "indexed": false,
          "internalType": "uint256",
          "name": "amount",
          "type": "uint256"
        }
      ],
      "name": "Awarded",
      "type": "event"
    },
    {
      "anonymous": false,
      "inputs": [
        {
          "indexed": true,
          "internalType": "address",
          "name": "winner",
          "type": "address"
        },
        {
          "indexed": true,
          "internalType": "address",
          "name": "token",
          "type": "address"
        },
        {
          "indexed": false,
          "internalType": "uint256",
          "name": "amount",
          "type": "uint256"
        }
      ],
      "name": "AwardedExternalERC20",
      "type": "event"
    },
    {
      "anonymous": false,
      "inputs": [
        {
          "indexed": true,
          "internalType": "address",
          "name": "winner",
          "type": "address"
        },
        {
          "indexed": true,
          "internalType": "address",
          "name": "token",
          "type": "address"
        },
        {
          "indexed": false,
          "internalType": "uint256[]",
          "name": "tokenIds",
          "type": "uint256[]"
        }
      ],
      "name": "AwardedExternalERC721",
      "type": "event"
    },
    {
      "anonymous": false,
      "inputs": [
        {
          "indexed": true,
          "internalType": "address",
          "name": "barn",
          "type": "address"
        }
      ],
      "name": "BarnPrizePoolInitialized",
      "type": "event"
    },
    {
      "anonymous": false,
      "inputs": [
        {
          "indexed": true,
          "internalType": "contract ControlledTokenInterface",
          "name": "token",
          "type": "address"
        }
      ],
      "name": "ControlledTokenAdded",
      "type": "event"
    },
    {
      "anonymous": false,
      "inputs": [
        {
          "indexed": true,
          "internalType": "address",
          "name": "user",
          "type": "address"
        },
        {
          "indexed": true,
          "internalType": "address",
          "name": "token",
          "type": "address"
        },
        {
          "indexed": false,
          "internalType": "uint256",
          "name": "amount",
          "type": "uint256"
        }
      ],
      "name": "CreditBurned",
      "type": "event"
    },
    {
      "anonymous": false,
      "inputs": [
        {
          "indexed": true,
          "internalType": "address",
          "name": "user",
          "type": "address"
        },
        {
          "indexed": true,
          "internalType": "address",
          "name": "token",
          "type": "address"
        },
        {
          "indexed": false,
          "internalType": "uint256",
          "name": "amount",
          "type": "uint256"
        }
      ],
      "name": "CreditMinted",
      "type": "event"
    },
    {
      "anonymous": false,
      "inputs": [
        {
          "indexed": false,
          "internalType": "address",
          "name": "token",
          "type": "address"
        },
        {
          "indexed": false,
          "internalType": "uint128",
          "name": "creditLimitMantissa",
          "type": "uint128"
        },
        {
          "indexed": false,
          "internalType": "uint128",
          "name": "creditRateMantissa",
          "type": "uint128"
        }
      ],
      "name": "CreditPlanSet",
      "type": "event"
    },
    {
      "anonymous": false,
      "inputs": [
        {
          "indexed": true,
          "internalType": "address",
          "name": "operator",
          "type": "address"
        },
        {
          "indexed": true,
          "internalType": "address",
          "name": "to",
          "type": "address"
        },
        {
          "indexed": true,
          "internalType": "address",
          "name": "token",
          "type": "address"
        },
        {
          "indexed": false,
          "internalType": "uint256",
          "name": "amount",
          "type": "uint256"
        },
        {
          "indexed": false,
          "internalType": "address",
          "name": "referrer",
          "type": "address"
        }
      ],
      "name": "Deposited",
      "type": "event"
    },
    {
      "anonymous": false,
      "inputs": [
        {
          "indexed": false,
          "internalType": "address",
          "name": "reserveRegistry",
          "type": "address"
        },
        {
          "indexed": false,
          "internalType": "uint256",
          "name": "maxExitFeeMantissa",
          "type": "uint256"
        },
        {
          "indexed": false,
          "internalType": "uint256",
          "name": "maxTimelockDuration",
          "type": "uint256"
        }
      ],
      "name": "Initialized",
      "type": "event"
    },
    {
      "anonymous": false,
      "inputs": [
        {
          "indexed": true,
          "internalType": "address",
          "name": "operator",
          "type": "address"
        },
        {
          "indexed": true,
          "internalType": "address",
          "name": "from",
          "type": "address"
        },
        {
          "indexed": true,
          "internalType": "address",
          "name": "token",
          "type": "address"
        },
        {
          "indexed": false,
          "internalType": "uint256",
          "name": "amount",
          "type": "uint256"
        },
        {
          "indexed": false,
          "internalType": "uint256",
          "name": "redeemed",
          "type": "uint256"
        },
        {
          "indexed": false,
          "internalType": "uint256",
          "name": "exitFee",
          "type": "uint256"
        }
      ],
      "name": "InstantWithdrawal",
      "type": "event"
    },
    {
      "anonymous": false,
      "inputs": [
        {
          "indexed": false,
          "internalType": "uint256",
          "name": "liquidityCap",
          "type": "uint256"
        }
      ],
      "name": "LiquidityCapSet",
      "type": "event"
    },
    {
      "anonymous": false,
      "inputs": [
        {
          "indexed": true,
          "internalType": "address",
          "name": "previousOwner",
          "type": "address"
        },
        {
          "indexed": true,
          "internalType": "address",
          "name": "newOwner",
          "type": "address"
        }
      ],
      "name": "OwnershipTransferred",
      "type": "event"
    },
    {
      "anonymous": false,
      "inputs": [
        {
          "indexed": true,
          "internalType": "address",
          "name": "prizeStrategy",
          "type": "address"
        }
      ],
      "name": "PrizeStrategySet",
      "type": "event"
    },
    {
      "anonymous": false,
      "inputs": [
        {
          "indexed": false,
          "internalType": "uint256",
          "name": "amount",
          "type": "uint256"
        }
      ],
      "name": "ReserveFeeCaptured",
      "type": "event"
    },
    {
      "anonymous": false,
      "inputs": [
        {
          "indexed": true,
          "internalType": "address",
          "name": "to",
          "type": "address"
        },
        {
          "indexed": false,
          "internalType": "uint256",
          "name": "amount",
          "type": "uint256"
        }
      ],
      "name": "ReserveWithdrawal",
      "type": "event"
    },
    {
      "anonymous": false,
      "inputs": [
        {
          "indexed": true,
          "internalType": "address",
          "name": "operator",
          "type": "address"
        },
        {
          "indexed": true,
          "internalType": "address",
          "name": "to",
          "type": "address"
        },
        {
          "indexed": true,
          "internalType": "address",
          "name": "token",
          "type": "address"
        },
        {
          "indexed": false,
          "internalType": "uint256",
          "name": "amount",
          "type": "uint256"
        }
      ],
      "name": "TimelockDeposited",
      "type": "event"
    },
    {
      "anonymous": false,
      "inputs": [
        {
          "indexed": true,
          "internalType": "address",
          "name": "operator",
          "type": "address"
        },
        {
          "indexed": true,
          "internalType": "address",
          "name": "from",
          "type": "address"
        },
        {
          "indexed": true,
          "internalType": "address",
          "name": "token",
          "type": "address"
        },
        {
          "indexed": false,
          "internalType": "uint256",
          "name": "amount",
          "type": "uint256"
        },
        {
          "indexed": false,
          "internalType": "uint256",
          "name": "unlockTimestamp",
          "type": "uint256"
        }
      ],
      "name": "TimelockedWithdrawal",
      "type": "event"
    },
    {
      "anonymous": false,
      "inputs": [
        {
          "indexed": true,
          "internalType": "address",
          "name": "operator",
          "type": "address"
        },
        {
          "indexed": true,
          "internalType": "address",
          "name": "from",
          "type": "address"
        },
        {
          "indexed": false,
          "internalType": "uint256",
          "name": "amount",
          "type": "uint256"
        },
        {
          "indexed": false,
          "internalType": "uint256",
          "name": "redeemed",
          "type": "uint256"
        }
      ],
      "name": "TimelockedWithdrawalSwept",
      "type": "event"
    },
    {
      "anonymous": false,
      "inputs": [
        {
          "indexed": true,
          "internalType": "address",
          "name": "to",
          "type": "address"
        },
        {
          "indexed": true,
          "internalType": "address",
          "name": "token",
          "type": "address"
        },
        {
          "indexed": false,
          "internalType": "uint256",
          "name": "amount",
          "type": "uint256"
        }
      ],
      "name": "TransferredExternalERC20",
      "type": "event"
    },
    {
      "inputs": [],
      "name": "accountedBalance",
      "outputs": [
        {
          "internalType": "uint256",
          "name": "",
          "type": "uint256"
        }
      ],
      "stateMutability": "view",
      "type": "function"
    },
    {
      "inputs": [
        {
          "internalType": "contract ControlledTokenInterface",
          "name": "_controlledToken",
          "type": "address"
        }
      ],
      "name": "addControlledToken",
      "outputs": [],
      "stateMutability": "nonpayable",
      "type": "function"
    },
    {
      "inputs": [
        {
          "internalType": "address",
          "name": "to",
          "type": "address"
        },
        {
          "internalType": "uint256",
          "name": "amount",
          "type": "uint256"
        },
        {
          "internalType": "address",
          "name": "controlledToken",
          "type": "address"
        }
      ],
      "name": "award",
      "outputs": [],
      "stateMutability": "nonpayable",
      "type": "function"
    },
    {
      "inputs": [],
      "name": "awardBalance",
      "outputs": [
        {
          "internalType": "uint256",
          "name": "",
          "type": "uint256"
        }
      ],
      "stateMutability": "view",
      "type": "function"
    },
    {
      "inputs": [
        {
          "internalType": "address",
          "name": "to",
          "type": "address"
        },
        {
          "internalType": "address",
          "name": "externalToken",
          "type": "address"
        },
        {
          "internalType": "uint256",
          "name": "amount",
          "type": "uint256"
        }
      ],
      "name": "awardExternalERC20",
      "outputs": [],
      "stateMutability": "nonpayable",
      "type": "function"
    },
    {
      "inputs": [
        {
          "internalType": "address",
          "name": "to",
          "type": "address"
        },
        {
          "internalType": "address",
          "name": "externalToken",
          "type": "address"
        },
        {
          "internalType": "uint256[]",
          "name": "tokenIds",
          "type": "uint256[]"
        }
      ],
      "name": "awardExternalERC721",
      "outputs": [],
      "stateMutability": "nonpayable",
      "type": "function"
    },
    {
      "inputs": [],
      "name": "balance",
      "outputs": [
        {
          "internalType": "uint256",
          "name": "",
          "type": "uint256"
        }
      ],
      "stateMutability": "nonpayable",
      "type": "function"
    },
    {
      "inputs": [
        {
          "internalType": "address",
          "name": "user",
          "type": "address"
        },
        {
          "internalType": "address",
          "name": "controlledToken",
          "type": "address"
        }
      ],
      "name": "balanceOfCredit",
      "outputs": [
        {
          "internalType": "uint256",
          "name": "",
          "type": "uint256"
        }
      ],
      "stateMutability": "nonpayable",
      "type": "function"
    },
    {
      "inputs": [],
      "name": "barn",
      "outputs": [
        {
          "internalType": "contract BarnInterface",
          "name": "",
          "type": "address"
        }
      ],
      "stateMutability": "view",
      "type": "function"
    },
    {
      "inputs": [
        {
          "internalType": "address",
          "name": "from",
          "type": "address"
        },
        {
          "internalType": "address",
          "name": "to",
          "type": "address"
        },
        {
          "internalType": "uint256",
          "name": "amount",
          "type": "uint256"
        }
      ],
      "name": "beforeTokenTransfer",
      "outputs": [],
      "stateMutability": "nonpayable",
      "type": "function"
    },
    {
      "inputs": [],
      "name": "bond",
      "outputs": [
        {
          "internalType": "contract IERC20Upgradeable",
          "name": "",
          "type": "address"
        }
      ],
      "stateMutability": "view",
      "type": "function"
    },
    {
      "inputs": [
        {
          "internalType": "address",
          "name": "from",
          "type": "address"
        },
        {
          "internalType": "address",
          "name": "controlledToken",
          "type": "address"
        },
        {
          "internalType": "uint256",
          "name": "amount",
          "type": "uint256"
        }
      ],
      "name": "calculateEarlyExitFee",
      "outputs": [
        {
          "internalType": "uint256",
          "name": "exitFee",
          "type": "uint256"
        },
        {
          "internalType": "uint256",
          "name": "burnedCredit",
          "type": "uint256"
        }
      ],
      "stateMutability": "nonpayable",
      "type": "function"
    },
    {
      "inputs": [
        {
          "internalType": "uint256",
          "name": "amount",
          "type": "uint256"
        }
      ],
      "name": "calculateReserveFee",
      "outputs": [
        {
          "internalType": "uint256",
          "name": "",
          "type": "uint256"
        }
      ],
      "stateMutability": "view",
      "type": "function"
    },
    {
      "inputs": [
        {
          "internalType": "address",
          "name": "from",
          "type": "address"
        },
        {
          "internalType": "address",
          "name": "controlledToken",
          "type": "address"
        },
        {
          "internalType": "uint256",
          "name": "amount",
          "type": "uint256"
        }
      ],
      "name": "calculateTimelockDuration",
      "outputs": [
        {
          "internalType": "uint256",
          "name": "durationSeconds",
          "type": "uint256"
        },
        {
          "internalType": "uint256",
          "name": "burnedCredit",
          "type": "uint256"
        }
      ],
      "stateMutability": "nonpayable",
      "type": "function"
    },
    {
      "inputs": [
        {
          "internalType": "address",
          "name": "_externalToken",
          "type": "address"
        }
      ],
      "name": "canAwardExternal",
      "outputs": [
        {
          "internalType": "bool",
          "name": "",
          "type": "bool"
        }
      ],
      "stateMutability": "view",
      "type": "function"
    },
    {
      "inputs": [],
      "name": "captureAwardBalance",
      "outputs": [
        {
          "internalType": "uint256",
          "name": "",
          "type": "uint256"
        }
      ],
      "stateMutability": "nonpayable",
      "type": "function"
    },
    {
      "inputs": [
        {
          "internalType": "address",
          "name": "controlledToken",
          "type": "address"
        }
      ],
      "name": "creditPlanOf",
      "outputs": [
        {
          "internalType": "uint128",
          "name": "creditLimitMantissa",
          "type": "uint128"
        },
        {
          "internalType": "uint128",
          "name": "creditRateMantissa",
          "type": "uint128"
        }
      ],
      "stateMutability": "view",
      "type": "function"
    },
    {
      "inputs": [
        {
          "internalType": "address",
          "name": "to",
          "type": "address"
        },
        {
          "internalType": "uint256",
          "name": "amount",
          "type": "uint256"
        },
        {
          "internalType": "address",
          "name": "controlledToken",
          "type": "address"
        },
        {
          "internalType": "address",
          "name": "referrer",
          "type": "address"
        }
      ],
      "name": "depositTo",
      "outputs": [],
      "stateMutability": "nonpayable",
      "type": "function"
    },
    {
      "inputs": [
        {
          "internalType": "address",
          "name": "_controlledToken",
          "type": "address"
        },
        {
          "internalType": "uint256",
          "name": "_principal",
          "type": "uint256"
        },
        {
          "internalType": "uint256",
          "name": "_interest",
          "type": "uint256"
        }
      ],
      "name": "estimateCreditAccrualTime",
      "outputs": [
        {
          "internalType": "uint256",
          "name": "durationSeconds",
          "type": "uint256"
        }
      ],
      "stateMutability": "view",
      "type": "function"
    },
    {
      "inputs": [
        {
          "internalType": "contract RegistryInterface",
          "name": "_reserveRegistry",
          "type": "address"
        },
        {
          "internalType": "contract ControlledTokenInterface[]",
          "name": "_controlledTokens",
          "type": "address[]"
        },
        {
          "internalType": "uint256",
          "name": "_maxExitFeeMantissa",
          "type": "uint256"
        },
        {
          "internalType": "uint256",
          "name": "_maxTimelockDuration",
          "type": "uint256"
        }
      ],
      "name": "initialize",
      "outputs": [],
      "stateMutability": "nonpayable",
      "type": "function"
    },
    {
      "inputs": [
        {
          "internalType": "contract RegistryInterface",
          "name": "_reserveRegistry",
          "type": "address"
        },
        {
          "internalType": "contract ControlledTokenInterface[]",
          "name": "_controlledTokens",
          "type": "address[]"
        },
        {
          "internalType": "uint256",
          "name": "_maxExitFeeMantissa",
          "type": "uint256"
        },
        {
          "internalType": "uint256",
          "name": "_maxTimelockDuration",
          "type": "uint256"
        },
        {
          "internalType": "contract BarnInterface",
          "name": "_barn",
          "type": "address"
        },
        {
          "internalType": "contract BarnRewardsInterface",
          "name": "_rewards",
          "type": "address"
        },
        {
          "internalType": "contract IERC20Upgradeable",
          "name": "_bond",
          "type": "address"
        }
      ],
      "name": "initialize",
      "outputs": [],
      "stateMutability": "nonpayable",
      "type": "function"
    },
    {
      "inputs": [],
      "name": "liquidityCap",
      "outputs": [
        {
          "internalType": "uint256",
          "name": "",
          "type": "uint256"
        }
      ],
      "stateMutability": "view",
      "type": "function"
    },
    {
      "inputs": [],
      "name": "maxExitFeeMantissa",
      "outputs": [
        {
          "internalType": "uint256",
          "name": "",
          "type": "uint256"
        }
      ],
      "stateMutability": "view",
      "type": "function"
    },
    {
      "inputs": [],
      "name": "maxTimelockDuration",
      "outputs": [
        {
          "internalType": "uint256",
          "name": "",
          "type": "uint256"
        }
      ],
      "stateMutability": "view",
      "type": "function"
    },
    {
      "inputs": [],
      "name": "owner",
      "outputs": [
        {
          "internalType": "address",
          "name": "",
          "type": "address"
        }
      ],
      "stateMutability": "view",
      "type": "function"
    },
    {
      "inputs": [],
      "name": "prizeStrategy",
      "outputs": [
        {
          "internalType": "contract TokenListenerInterface",
          "name": "",
          "type": "address"
        }
      ],
      "stateMutability": "view",
      "type": "function"
    },
    {
      "inputs": [],
      "name": "renounceOwnership",
      "outputs": [],
      "stateMutability": "nonpayable",
      "type": "function"
    },
    {
      "inputs": [],
      "name": "reserveRegistry",
      "outputs": [
        {
          "internalType": "contract RegistryInterface",
          "name": "",
          "type": "address"
        }
      ],
      "stateMutability": "view",
      "type": "function"
    },
    {
      "inputs": [],
      "name": "reserveTotalSupply",
      "outputs": [
        {
          "internalType": "uint256",
          "name": "",
          "type": "uint256"
        }
      ],
      "stateMutability": "view",
      "type": "function"
    },
    {
      "inputs": [],
      "name": "rewards",
      "outputs": [
        {
          "internalType": "contract BarnRewardsInterface",
          "name": "",
          "type": "address"
        }
      ],
      "stateMutability": "view",
      "type": "function"
    },
    {
      "inputs": [
        {
          "internalType": "address",
          "name": "_controlledToken",
          "type": "address"
        },
        {
          "internalType": "uint128",
          "name": "_creditRateMantissa",
          "type": "uint128"
        },
        {
          "internalType": "uint128",
          "name": "_creditLimitMantissa",
          "type": "uint128"
        }
      ],
      "name": "setCreditPlanOf",
      "outputs": [],
      "stateMutability": "nonpayable",
      "type": "function"
    },
    {
      "inputs": [
        {
          "internalType": "uint256",
          "name": "_liquidityCap",
          "type": "uint256"
        }
      ],
      "name": "setLiquidityCap",
      "outputs": [],
      "stateMutability": "nonpayable",
      "type": "function"
    },
    {
      "inputs": [
        {
          "internalType": "contract TokenListenerInterface",
          "name": "_prizeStrategy",
          "type": "address"
        }
      ],
      "name": "setPrizeStrategy",
      "outputs": [],
      "stateMutability": "nonpayable",
      "type": "function"
    },
    {
      "inputs": [
        {
          "internalType": "address[]",
          "name": "users",
          "type": "address[]"
        }
      ],
      "name": "sweepTimelockBalances",
      "outputs": [
        {
          "internalType": "uint256",
          "name": "",
          "type": "uint256"
        }
      ],
      "stateMutability": "nonpayable",
      "type": "function"
    },
    {
      "inputs": [
        {
          "internalType": "address",
          "name": "user",
          "type": "address"
        }
      ],
      "name": "timelockBalanceAvailableAt",
      "outputs": [
        {
          "internalType": "uint256",
          "name": "",
          "type": "uint256"
        }
      ],
      "stateMutability": "view",
      "type": "function"
    },
    {
      "inputs": [
        {
          "internalType": "address",
          "name": "user",
          "type": "address"
        }
      ],
      "name": "timelockBalanceOf",
      "outputs": [
        {
          "internalType": "uint256",
          "name": "",
          "type": "uint256"
        }
      ],
      "stateMutability": "view",
      "type": "function"
    },
    {
      "inputs": [
        {
          "internalType": "address",
          "name": "to",
          "type": "address"
        },
        {
          "internalType": "uint256",
          "name": "amount",
          "type": "uint256"
        },
        {
          "internalType": "address",
          "name": "controlledToken",
          "type": "address"
        }
      ],
      "name": "timelockDepositTo",
      "outputs": [],
      "stateMutability": "nonpayable",
      "type": "function"
    },
    {
      "inputs": [],
      "name": "timelockTotalSupply",
      "outputs": [
        {
          "internalType": "uint256",
          "name": "",
          "type": "uint256"
        }
      ],
      "stateMutability": "view",
      "type": "function"
    },
    {
      "inputs": [],
      "name": "token",
      "outputs": [
        {
          "internalType": "address",
          "name": "",
          "type": "address"
        }
      ],
      "stateMutability": "view",
      "type": "function"
    },
    {
      "inputs": [],
      "name": "tokens",
      "outputs": [
        {
          "internalType": "address[]",
          "name": "",
          "type": "address[]"
        }
      ],
      "stateMutability": "view",
      "type": "function"
    },
    {
      "inputs": [
        {
          "internalType": "address",
          "name": "to",
          "type": "address"
        },
        {
          "internalType": "address",
          "name": "externalToken",
          "type": "address"
        },
        {
          "internalType": "uint256",
          "name": "amount",
          "type": "uint256"
        }
      ],
      "name": "transferExternalERC20",
      "outputs": [],
      "stateMutability": "nonpayable",
      "type": "function"
    },
    {
      "inputs": [
        {
          "internalType": "address",
          "name": "newOwner",
          "type": "address"
        }
      ],
      "name": "transferOwnership",
      "outputs": [],
      "stateMutability": "nonpayable",
      "type": "function"
    },
    {
      "inputs": [
        {
          "internalType": "address",
          "name": "from",
          "type": "address"
        },
        {
          "internalType": "uint256",
          "name": "amount",
          "type": "uint256"
        },
        {
          "internalType": "address",
          "name": "controlledToken",
          "type": "address"
        },
        {
          "internalType": "uint256",
          "name": "maximumExitFee",
          "type": "uint256"
        }
      ],
      "name": "withdrawInstantlyFrom",
      "outputs": [
        {
          "internalType": "uint256",
          "name": "",
          "type": "uint256"
        }
      ],
      "stateMutability": "nonpayable",
      "type": "function"
    },
    {
      "inputs": [
        {
          "internalType": "address",
          "name": "to",
          "type": "address"
        }
      ],
      "name": "withdrawReserve",
      "outputs": [
        {
          "internalType": "uint256",
          "name": "",
          "type": "uint256"
        }
      ],
      "stateMutability": "nonpayable",
      "type": "function"
    },
    {
      "inputs": [
        {
          "internalType": "address",
          "name": "from",
          "type": "address"
        },
        {
          "internalType": "uint256",
          "name": "amount",
          "type": "uint256"
        },
        {
          "internalType": "address",
          "name": "controlledToken",
          "type": "address"
        }
      ],
      "name": "withdrawWithTimelockFrom",
      "outputs": [
        {
          "internalType": "uint256",
          "name": "",
          "type": "uint256"
        }
      ],
      "stateMutability": "nonpayable",
      "type": "function"
    }
  ],
  "bytecode": "0x60806040523480156200001157600080fd5b5061823380620000226000396000f3fe608060405234801561001057600080fd5b506004361061027f5760003560e01c80638f03daef1161015c578063abca6e71116100ce578063e603d32e11610087578063e603d32e1461101c578063e6d8a94b14611168578063edb4e1cf14611186578063f2fde38b146111a4578063f69bd428146111e8578063fc0c546a146112065761027f565b8063abca6e7114610dc4578063b3a7b78a14610e4d578063b69ef8a814610ecf578063d4a1361d14610eed578063db92f7f014610f70578063e323f82514610f8e5761027f565b80639d63848a116101205780639d63848a14610bc95780639e16751914610c285780639ec5a89414610c465780639fe32a9114610c7a578063a016240b14610cbc578063a7b2cc3114610d485761027f565b80638f03daef14610a4757806391ca480e14610a9f578063941d505d14610ae357806394d43e1414610b2757806398bf3eb614610b955761027f565b80636968f8b3116101f557806379cb8563116101b957806379cb85631461084e5780637b99adb1146108ba5780637cbab1c7146108e8578063888c2b6f146109565780638da5cb5b146109df5780638e71c1f614610a135761027f565b80636968f8b3146107065780636a3fd4f91461075e5780636b1b863a146107b8578063715018a61461082657806376687d3d146108305761027f565b80632b0ab144116102475780632b0ab144146104e95780633e7580a914610557578063494de9f7146105e457806352a387ab1461065c578063630665b4146106b457806364c9ec6f146106d25761027f565b80630881cffb146102845780630937eb541461037057806313f55e391461038e57806316960d55146103fc578063194f480e146104b5575b600080fd5b61036e6004803603608081101561029a57600080fd5b81019080803573ffffffffffffffffffffffffffffffffffffffff169060200190929190803590602001906401000000008111156102d757600080fd5b8201836020820111156102e957600080fd5b8035906020019184602083028401116401000000008311171561030b57600080fd5b919080806020026020016040519081016040528093929190818152602001838360200280828437600081840152601f19601f820116905080830192505050505050509192919290803590602001909291908035906020019092919050505061123a565b005b6103786114eb565b6040518082815260200191505060405180910390f35b6103fa600480360360608110156103a457600080fd5b81019080803573ffffffffffffffffffffffffffffffffffffffff169060200190929190803573ffffffffffffffffffffffffffffffffffffffff169060200190929190803590602001909291905050506114fa565b005b6104b36004803603606081101561041257600080fd5b81019080803573ffffffffffffffffffffffffffffffffffffffff169060200190929190803573ffffffffffffffffffffffffffffffffffffffff1690602001909291908035906020019064010000000081111561046f57600080fd5b82018360208201111561048157600080fd5b803590602001918460208302840111640100000000831117156104a357600080fd5b909192939192939050505061163f565b005b6104bd611905565b604051808273ffffffffffffffffffffffffffffffffffffffff16815260200191505060405180910390f35b610555600480360360608110156104ff57600080fd5b81019080803573ffffffffffffffffffffffffffffffffffffffff169060200190929190803573ffffffffffffffffffffffffffffffffffffffff1690602001909291908035906020019092919050505061192b565b005b6105ce6004803603602081101561056d57600080fd5b810190808035906020019064010000000081111561058a57600080fd5b82018360208201111561059c57600080fd5b803590602001918460208302840111640100000000831117156105be57600080fd5b9091929391929390505050611a70565b6040518082815260200191505060405180910390f35b610646600480360360408110156105fa57600080fd5b81019080803573ffffffffffffffffffffffffffffffffffffffff169060200190929190803573ffffffffffffffffffffffffffffffffffffffff169060200190929190505050611b4d565b6040518082815260200191505060405180910390f35b61069e6004803603602081101561067257600080fd5b81019080803573ffffffffffffffffffffffffffffffffffffffff169060200190929190505050611d40565b6040518082815260200191505060405180910390f35b6106bc611f30565b6040518082815260200191505060405180910390f35b6106da611f3a565b604051808273ffffffffffffffffffffffffffffffffffffffff16815260200191505060405180910390f35b6107486004803603602081101561071c57600080fd5b81019080803573ffffffffffffffffffffffffffffffffffffffff169060200190929190505050611f60565b6040518082815260200191505060405180910390f35b6107a06004803603602081101561077457600080fd5b81019080803573ffffffffffffffffffffffffffffffffffffffff169060200190929190505050611fa9565b60405180821515815260200191505060405180910390f35b610824600480360360608110156107ce57600080fd5b81019080803573ffffffffffffffffffffffffffffffffffffffff16906020019092919080359060200190929190803573ffffffffffffffffffffffffffffffffffffffff169060200190929190505050611fbb565b005b61082e6122d7565b005b610838612462565b6040518082815260200191505060405180910390f35b6108a46004803603606081101561086457600080fd5b81019080803573ffffffffffffffffffffffffffffffffffffffff1690602001909291908035906020019092919080359060200190929190505050612468565b6040518082815260200191505060405180910390f35b6108e6600480360360208110156108d057600080fd5b810190808035906020019092919050505061247e565b005b610954600480360360608110156108fe57600080fd5b81019080803573ffffffffffffffffffffffffffffffffffffffff169060200190929190803573ffffffffffffffffffffffffffffffffffffffff16906020019092919080359060200190929190505050612554565b005b6109c26004803603606081101561096c57600080fd5b81019080803573ffffffffffffffffffffffffffffffffffffffff169060200190929190803573ffffffffffffffffffffffffffffffffffffffff169060200190929190803590602001909291905050506129b8565b604051808381526020018281526020019250505060405180910390f35b6109e76129d2565b604051808273ffffffffffffffffffffffffffffffffffffffff16815260200191505060405180910390f35b610a1b6129fc565b604051808273ffffffffffffffffffffffffffffffffffffffff16815260200191505060405180910390f35b610a8960048036036020811015610a5d57600080fd5b81019080803573ffffffffffffffffffffffffffffffffffffffff169060200190929190505050612a22565b6040518082815260200191505060405180910390f35b610ae160048036036020811015610ab557600080fd5b81019080803573ffffffffffffffffffffffffffffffffffffffff169060200190929190505050612a6b565b005b610b2560048036036020811015610af957600080fd5b81019080803573ffffffffffffffffffffffffffffffffffffffff169060200190929190505050612b41565b005b610b9360048036036060811015610b3d57600080fd5b81019080803573ffffffffffffffffffffffffffffffffffffffff16906020019092919080359060200190929190803573ffffffffffffffffffffffffffffffffffffffff169060200190929190505050612c17565b005b610b9d612ee5565b604051808273ffffffffffffffffffffffffffffffffffffffff16815260200191505060405180910390f35b610bd1612f0b565b6040518080602001828103825283818151815260200191508051906020019060200280838360005b83811015610c14578082015181840152602081019050610bf9565b505050509050019250505060405180910390f35b610c30612f1c565b6040518082815260200191505060405180910390f35b610c4e612f22565b604051808273ffffffffffffffffffffffffffffffffffffffff16815260200191505060405180910390f35b610ca660048036036020811015610c9057600080fd5b8101908080359060200190929190505050612f48565b6040518082815260200191505060405180910390f35b610d3260048036036080811015610cd257600080fd5b81019080803573ffffffffffffffffffffffffffffffffffffffff16906020019092919080359060200190929190803573ffffffffffffffffffffffffffffffffffffffff169060200190929190803590602001909291905050506130fd565b6040518082815260200191505060405180910390f35b610dc260048036036060811015610d5e57600080fd5b81019080803573ffffffffffffffffffffffffffffffffffffffff16906020019092919080356fffffffffffffffffffffffffffffffff16906020019092919080356fffffffffffffffffffffffffffffffff169060200190929190505050613421565b005b610e3060048036036060811015610dda57600080fd5b81019080803573ffffffffffffffffffffffffffffffffffffffff169060200190929190803573ffffffffffffffffffffffffffffffffffffffff169060200190929190803590602001909291905050506136e7565b604051808381526020018281526020019250505060405180910390f35b610eb960048036036060811015610e6357600080fd5b81019080803573ffffffffffffffffffffffffffffffffffffffff16906020019092919080359060200190929190803573ffffffffffffffffffffffffffffffffffffffff169060200190929190505050613701565b6040518082815260200191505060405180910390f35b610ed761399b565b6040518082815260200191505060405180910390f35b610f2f60048036036020811015610f0357600080fd5b81019080803573ffffffffffffffffffffffffffffffffffffffff1690602001909291905050506139aa565b60405180836fffffffffffffffffffffffffffffffff168152602001826fffffffffffffffffffffffffffffffff1681526020019250505060405180910390f35b610f78613a74565b6040518082815260200191505060405180910390f35b61101a60048036036080811015610fa457600080fd5b81019080803573ffffffffffffffffffffffffffffffffffffffff16906020019092919080359060200190929190803573ffffffffffffffffffffffffffffffffffffffff169060200190929190803573ffffffffffffffffffffffffffffffffffffffff169060200190929190505050613a7a565b005b611166600480360360e081101561103257600080fd5b81019080803573ffffffffffffffffffffffffffffffffffffffff1690602001909291908035906020019064010000000081111561106f57600080fd5b82018360208201111561108157600080fd5b803590602001918460208302840111640100000000831117156110a357600080fd5b919080806020026020016040519081016040528093929190818152602001838360200280828437600081840152601f19601f8201169050808301925050505050505091929192908035906020019092919080359060200190929190803573ffffffffffffffffffffffffffffffffffffffff169060200190929190803573ffffffffffffffffffffffffffffffffffffffff169060200190929190803573ffffffffffffffffffffffffffffffffffffffff169060200190929190505050613cf3565b005b611170613f2c565b6040518082815260200191505060405180910390f35b61118e614106565b6040518082815260200191505060405180910390f35b6111e6600480360360208110156111ba57600080fd5b81019080803573ffffffffffffffffffffffffffffffffffffffff16906020019092919050505061410c565b005b6111f061431c565b6040518082815260200191505060405180910390f35b61120e614322565b604051808273ffffffffffffffffffffffffffffffffffffffff16815260200191505060405180910390f35b600060019054906101000a900460ff16806112595750611258614331565b5b8061126f575060008054906101000a900460ff16155b6112c4576040517f08c379a000000000000000000000000000000000000000000000000000000000815260040180806020018281038252602e815260200180618138602e913960400191505060405180910390fd5b60008060019054906101000a900460ff161590508015611314576001600060016101000a81548160ff02191690831515021790555060016000806101000a81548160ff0219169083151502179055505b600073ffffffffffffffffffffffffffffffffffffffff168573ffffffffffffffffffffffffffffffffffffffff16141561139a576040517f08c379a00000000000000000000000000000000000000000000000000000000081526004018080602001828103825260228152602001806180f06022913960400191505060405180910390fd5b6113a46098614348565b60005b84518110156113d9576113cc8582815181106113bf57fe5b6020026020010151614447565b80806001019150506113a7565b506113e26145c2565b6113ea6146d0565b6114137fffffffffffffffffffffffffffffffffffffffffffffffffffffffffffffffff6147d6565b84609760006101000a81548173ffffffffffffffffffffffffffffffffffffffff021916908373ffffffffffffffffffffffffffffffffffffffff16021790555082609b8190555081609c819055507f0f91882b50d9330af0b1d4998e6af7f2eaee90ce7e77ea54fea089af166d021d85609b54609c54604051808473ffffffffffffffffffffffffffffffffffffffff168152602001838152602001828152602001935050505060405180910390a180156114e45760008060016101000a81548160ff0219169083151502179055505b5050505050565b60006114f5614817565b905090565b609a60009054906101000a900473ffffffffffffffffffffffffffffffffffffffff1673ffffffffffffffffffffffffffffffffffffffff1661153b614971565b73ffffffffffffffffffffffffffffffffffffffff16146115c4576040517f08c379a000000000000000000000000000000000000000000000000000000000815260040180806020018281038252601c8152602001807f5072697a65506f6f6c2f6f6e6c792d7072697a6553747261746567790000000081525060200191505060405180910390fd5b6115cf838383614979565b1561163a578173ffffffffffffffffffffffffffffffffffffffff168373ffffffffffffffffffffffffffffffffffffffff167fb0bac59718cd343c80a813518afcf36846cfcfe6d56e2b3cab9bd49f5f9b251c836040518082815260200191505060405180910390a35b505050565b609a60009054906101000a900473ffffffffffffffffffffffffffffffffffffffff1673ffffffffffffffffffffffffffffffffffffffff16611680614971565b73ffffffffffffffffffffffffffffffffffffffff1614611709576040517f08c379a000000000000000000000000000000000000000000000000000000000815260040180806020018281038252601c8152602001807f5072697a65506f6f6c2f6f6e6c792d7072697a6553747261746567790000000081525060200191505060405180910390fd5b61171283614a3f565b611784576040517f08c379a00000000000000000000000000000000000000000000000000000000081526004018080602001828103825260208152602001807f5072697a65506f6f6c2f696e76616c69642d65787465726e616c2d746f6b656e81525060200191505060405180910390fd5b6000828290501415611795576118ff565b60005b82829050811015611869578373ffffffffffffffffffffffffffffffffffffffff166323b872dd30878686868181106117cd57fe5b905060200201356040518463ffffffff1660e01b8152600401808473ffffffffffffffffffffffffffffffffffffffff1681526020018373ffffffffffffffffffffffffffffffffffffffff1681526020018281526020019350505050600060405180830381600087803b15801561184457600080fd5b505af1158015611858573d6000803e3d6000fd5b505050508080600101915050611798565b508273ffffffffffffffffffffffffffffffffffffffff168473ffffffffffffffffffffffffffffffffffffffff167f69c2de32bc4d47f488e72626a6cfdee85089342e52675e7de79c4b417623960c848460405180806020018281038252848482818152602001925060200280828437600081840152601f19601f820116905080830192505050935050505060405180910390a35b50505050565b60a560009054906101000a900473ffffffffffffffffffffffffffffffffffffffff1681565b609a60009054906101000a900473ffffffffffffffffffffffffffffffffffffffff1673ffffffffffffffffffffffffffffffffffffffff1661196c614971565b73ffffffffffffffffffffffffffffffffffffffff16146119f5576040517f08c379a000000000000000000000000000000000000000000000000000000000815260040180806020018281038252601c8152602001807f5072697a65506f6f6c2f6f6e6c792d7072697a6553747261746567790000000081525060200191505060405180910390fd5b611a00838383614979565b15611a6b578173ffffffffffffffffffffffffffffffffffffffff168373ffffffffffffffffffffffffffffffffffffffff167fc65f48aca3b7a99b7443d04b8ffbb073156179bc628dc3f7def5047748973469836040518082815260200191505060405180910390a35b505050565b600060026065541415611aeb576040517f08c379a000000000000000000000000000000000000000000000000000000000815260040180806020018281038252601f8152602001807f5265656e7472616e637947756172643a207265656e7472616e742063616c6c0081525060200191505060405180910390fd5b6002606581905550611b3d838380806020026020016040519081016040528093929190818152602001838360200280828437600081840152601f19601f82011690508083019250505050505050614b74565b9050600160658190555092915050565b600081611b5981614f2a565b611bcb576040517f08c379a00000000000000000000000000000000000000000000000000000000081526004018080602001828103825260178152602001807f5072697a65506f6f6c2f756e6b6e6f776e2d746f6b656e00000000000000000081525060200191505060405180910390fd5b611c7984848573ffffffffffffffffffffffffffffffffffffffff166370a08231886040518263ffffffff1660e01b8152600401808273ffffffffffffffffffffffffffffffffffffffff16815260200191505060206040518083038186803b158015611c3757600080fd5b505afa158015611c4b573d6000803e3d6000fd5b505050506040513d6020811015611c6157600080fd5b81019080805190602001909291905050506000614f47565b60a460008473ffffffffffffffffffffffffffffffffffffffff1673ffffffffffffffffffffffffffffffffffffffff16815260200190815260200160002060008573ffffffffffffffffffffffffffffffffffffffff1673ffffffffffffffffffffffffffffffffffffffff16815260200190815260200160002060000160009054906101000a900477ffffffffffffffffffffffffffffffffffffffffffffffff1677ffffffffffffffffffffffffffffffffffffffffffffffff1691505092915050565b600080609760009054906101000a900473ffffffffffffffffffffffffffffffffffffffff1673ffffffffffffffffffffffffffffffffffffffff1663f5e3542b6040518163ffffffff1660e01b815260040160206040518083038186803b158015611dab57600080fd5b505afa158015611dbf573d6000803e3d6000fd5b505050506040513d6020811015611dd557600080fd5b810190808051906020019092919050505090503373ffffffffffffffffffffffffffffffffffffffff168173ffffffffffffffffffffffffffffffffffffffff1614611e89576040517f08c379a00000000000000000000000000000000000000000000000000000000081526004018080602001828103825260168152602001807f5072697a65506f6f6c2f6f6e6c792d726573657276650000000000000000000081525060200191505060405180910390fd5b6000609e5490506000609e819055506000611ea382614f63565b9050611ed78582611eb26152ce565b73ffffffffffffffffffffffffffffffffffffffff166152f89092919063ffffffff16565b8473ffffffffffffffffffffffffffffffffffffffff167f1c71c8e11fd443227c8f8d3dc1a237a3a5e8310b540c7fbcf5169754aedf42c9836040518082815260200191505060405180910390a2809350505050919050565b600060a054905090565b60a760009054906101000a900473ffffffffffffffffffffffffffffffffffffffff1681565b600060a160008373ffffffffffffffffffffffffffffffffffffffff1673ffffffffffffffffffffffffffffffffffffffff168152602001908152602001600020549050919050565b6000611fb482614a3f565b9050919050565b609a60009054906101000a900473ffffffffffffffffffffffffffffffffffffffff1673ffffffffffffffffffffffffffffffffffffffff16611ffc614971565b73ffffffffffffffffffffffffffffffffffffffff1614612085576040517f08c379a000000000000000000000000000000000000000000000000000000000815260040180806020018281038252601c8152602001807f5072697a65506f6f6c2f6f6e6c792d7072697a6553747261746567790000000081525060200191505060405180910390fd5b8061208f81614f2a565b612101576040517f08c379a00000000000000000000000000000000000000000000000000000000081526004018080602001828103825260178152602001807f5072697a65506f6f6c2f756e6b6e6f776e2d746f6b656e00000000000000000081525060200191505060405180910390fd5b600083141561210f576122d1565b60a054831115612187576040517f08c379a000000000000000000000000000000000000000000000000000000000815260040180806020018281038252601d8152602001807f5072697a65506f6f6c2f61776172642d657863656564732d617661696c00000081525060200191505060405180910390fd5b61219c8360a05461539a90919063ffffffff16565b60a0819055506121af84848460006153e4565b60006121bb83856155b1565b905061226a85848573ffffffffffffffffffffffffffffffffffffffff166370a08231896040518263ffffffff1660e01b8152600401808273ffffffffffffffffffffffffffffffffffffffff16815260200191505060206040518083038186803b15801561222957600080fd5b505afa15801561223d573d6000803e3d6000fd5b505050506040513d602081101561225357600080fd5b810190808051906020019092919050505084614f47565b8273ffffffffffffffffffffffffffffffffffffffff168573ffffffffffffffffffffffffffffffffffffffff167fe2554529d99ab7a67db6b4cea2b32c7d55ae325f958861e05f304fdded867e31866040518082815260200191505060405180910390a3505b50505050565b6122df614971565b73ffffffffffffffffffffffffffffffffffffffff16603360009054906101000a900473ffffffffffffffffffffffffffffffffffffffff1673ffffffffffffffffffffffffffffffffffffffff16146123a1576040517f08c379a00000000000000000000000000000000000000000000000000000000081526004018080602001828103825260208152602001807f4f776e61626c653a2063616c6c6572206973206e6f7420746865206f776e657281525060200191505060405180910390fd5b600073ffffffffffffffffffffffffffffffffffffffff16603360009054906101000a900473ffffffffffffffffffffffffffffffffffffffff1673ffffffffffffffffffffffffffffffffffffffff167f8be0079c531659141344cd1fd0a4f28419497f9722a3daafe3b4186f6b6457e060405160405180910390a36000603360006101000a81548173ffffffffffffffffffffffffffffffffffffffff021916908373ffffffffffffffffffffffffffffffffffffffff160217905550565b609f5481565b600061247584848461563e565b90509392505050565b612486614971565b73ffffffffffffffffffffffffffffffffffffffff16603360009054906101000a900473ffffffffffffffffffffffffffffffffffffffff1673ffffffffffffffffffffffffffffffffffffffff1614612548576040517f08c379a00000000000000000000000000000000000000000000000000000000081526004018080602001828103825260208152602001807f4f776e61626c653a2063616c6c6572206973206e6f7420746865206f776e657281525060200191505060405180910390fd5b612551816147d6565b50565b3361255e81614f2a565b6125d0576040517f08c379a00000000000000000000000000000000000000000000000000000000081526004018080602001828103825260178152602001807f5072697a65506f6f6c2f756e6b6e6f776e2d746f6b656e00000000000000000081525060200191505060405180910390fd5b600073ffffffffffffffffffffffffffffffffffffffff168473ffffffffffffffffffffffffffffffffffffffff161461271c5760003373ffffffffffffffffffffffffffffffffffffffff166370a08231866040518263ffffffff1660e01b8152600401808273ffffffffffffffffffffffffffffffffffffffff16815260200191505060206040518083038186803b15801561266d57600080fd5b505afa158015612681573d6000803e3d6000fd5b505050506040513d602081101561269757600080fd5b8101908080519060200190929190505050905060006126b986338460006156ee565b90508473ffffffffffffffffffffffffffffffffffffffff168673ffffffffffffffffffffffffffffffffffffffff161461270e5761270b33612705868561539a90919063ffffffff16565b83615821565b90505b6127198633836158b7565b50505b600073ffffffffffffffffffffffffffffffffffffffff168373ffffffffffffffffffffffffffffffffffffffff161415801561278557508373ffffffffffffffffffffffffffffffffffffffff168373ffffffffffffffffffffffffffffffffffffffff1614155b156128395761283883333373ffffffffffffffffffffffffffffffffffffffff166370a08231876040518263ffffffff1660e01b8152600401808273ffffffffffffffffffffffffffffffffffffffff16815260200191505060206040518083038186803b1580156127f657600080fd5b505afa15801561280a573d6000803e3d6000fd5b505050506040513d602081101561282057600080fd5b81019080805190602001909291905050506000614f47565b5b600073ffffffffffffffffffffffffffffffffffffffff168473ffffffffffffffffffffffffffffffffffffffff16141580156128c55750600073ffffffffffffffffffffffffffffffffffffffff16609a60009054906101000a900473ffffffffffffffffffffffffffffffffffffffff1673ffffffffffffffffffffffffffffffffffffffff1614155b156129b257609a60009054906101000a900473ffffffffffffffffffffffffffffffffffffffff1673ffffffffffffffffffffffffffffffffffffffff1663b2210957858585336040518563ffffffff1660e01b8152600401808573ffffffffffffffffffffffffffffffffffffffff1681526020018473ffffffffffffffffffffffffffffffffffffffff1681526020018381526020018273ffffffffffffffffffffffffffffffffffffffff168152602001945050505050600060405180830381600087803b15801561299957600080fd5b505af11580156129ad573d6000803e3d6000fd5b505050505b50505050565b6000806129c6858585615bf7565b91509150935093915050565b6000603360009054906101000a900473ffffffffffffffffffffffffffffffffffffffff16905090565b609760009054906101000a900473ffffffffffffffffffffffffffffffffffffffff1681565b600060a260008373ffffffffffffffffffffffffffffffffffffffff1673ffffffffffffffffffffffffffffffffffffffff168152602001908152602001600020549050919050565b612a73614971565b73ffffffffffffffffffffffffffffffffffffffff16603360009054906101000a900473ffffffffffffffffffffffffffffffffffffffff1673ffffffffffffffffffffffffffffffffffffffff1614612b35576040517f08c379a00000000000000000000000000000000000000000000000000000000081526004018080602001828103825260208152602001807f4f776e61626c653a2063616c6c6572206973206e6f7420746865206f776e657281525060200191505060405180910390fd5b612b3e81615f1c565b50565b612b49614971565b73ffffffffffffffffffffffffffffffffffffffff16603360009054906101000a900473ffffffffffffffffffffffffffffffffffffffff1673ffffffffffffffffffffffffffffffffffffffff1614612c0b576040517f08c379a00000000000000000000000000000000000000000000000000000000081526004018080602001828103825260208152602001807f4f776e61626c653a2063616c6c6572206973206e6f7420746865206f776e657281525060200191505060405180910390fd5b612c1481614447565b50565b80612c2181614f2a565b612c93576040517f08c379a00000000000000000000000000000000000000000000000000000000081526004018080602001828103825260178152602001807f5072697a65506f6f6c2f756e6b6e6f776e2d746f6b656e00000000000000000081525060200191505060405180910390fd5b82612c9d816160e8565b612d0f576040517f08c379a000000000000000000000000000000000000000000000000000000000815260040180806020018281038252601f8152602001807f5072697a65506f6f6c2f657863656564732d6c69717569646974792d6361700081525060200191505060405180910390fd5b60026065541415612d88576040517f08c379a000000000000000000000000000000000000000000000000000000000815260040180806020018281038252601f8152602001807f5265656e7472616e637947756172643a207265656e7472616e742063616c6c0081525060200191505060405180910390fd5b60026065819055506000612d9a614971565b9050612da986868660006153e4565b612dfb8560a160008473ffffffffffffffffffffffffffffffffffffffff1673ffffffffffffffffffffffffffffffffffffffff1681526020019081526020016000205461539a90919063ffffffff16565b60a160008373ffffffffffffffffffffffffffffffffffffffff1673ffffffffffffffffffffffffffffffffffffffff16815260200190815260200160002081905550612e5385609d5461539a90919063ffffffff16565b609d819055508373ffffffffffffffffffffffffffffffffffffffff168673ffffffffffffffffffffffffffffffffffffffff168273ffffffffffffffffffffffffffffffffffffffff167f5e2892708ad1e30084c9b26159ffc666e18a9bffef3e61c8020110b5542db9cf886040518082815260200191505060405180910390a45060016065819055505050505050565b609a60009054906101000a900473ffffffffffffffffffffffffffffffffffffffff1681565b6060612f176098616115565b905090565b609b5481565b60a660009054906101000a900473ffffffffffffffffffffffffffffffffffffffff1681565b600080609760009054906101000a900473ffffffffffffffffffffffffffffffffffffffff1673ffffffffffffffffffffffffffffffffffffffff1663f5e3542b6040518163ffffffff1660e01b815260040160206040518083038186803b158015612fb357600080fd5b505afa158015612fc7573d6000803e3d6000fd5b505050506040513d6020811015612fdd57600080fd5b81019080805190602001909291905050509050600073ffffffffffffffffffffffffffffffffffffffff168173ffffffffffffffffffffffffffffffffffffffff16141561302f5760009150506130f8565b60008173ffffffffffffffffffffffffffffffffffffffff1663010dfa58306040518263ffffffff1660e01b8152600401808273ffffffffffffffffffffffffffffffffffffffff16815260200191505060206040518083038186803b15801561309857600080fd5b505afa1580156130ac573d6000803e3d6000fd5b505050506040513d60208110156130c257600080fd5b8101908080519060200190929190505050905060008114156130e9576000925050506130f8565b6130f38482616300565b925050505b919050565b600060026065541415613178576040517f08c379a000000000000000000000000000000000000000000000000000000000815260040180806020018281038252601f8152602001807f5265656e7472616e637947756172643a207265656e7472616e742063616c6c0081525060200191505060405180910390fd5b60026065819055508261318a81614f2a565b6131fc576040517f08c379a00000000000000000000000000000000000000000000000000000000081526004018080602001828103825260178152602001807f5072697a65506f6f6c2f756e6b6e6f776e2d746f6b656e00000000000000000081525060200191505060405180910390fd5b60008061320a888789615bf7565b9150915084821115613267576040517f08c379a00000000000000000000000000000000000000000000000000000000081526004018080602001828103825260278152602001806181876027913960400191505060405180910390fd5b61327288878361633f565b8573ffffffffffffffffffffffffffffffffffffffff1663631b5dfb613296614971565b8a8a6040518463ffffffff1660e01b8152600401808473ffffffffffffffffffffffffffffffffffffffff1681526020018373ffffffffffffffffffffffffffffffffffffffff1681526020018281526020019350505050600060405180830381600087803b15801561330857600080fd5b505af115801561331c573d6000803e3d6000fd5b505050506000613335838961539a90919063ffffffff16565b9050600061334282614f63565b90506133768a826133516152ce565b73ffffffffffffffffffffffffffffffffffffffff166152f89092919063ffffffff16565b8773ffffffffffffffffffffffffffffffffffffffff168a73ffffffffffffffffffffffffffffffffffffffff166133ac614971565b73ffffffffffffffffffffffffffffffffffffffff167f0271704a58fd2953e49b87d67a0a3ce28a58147de98a5457f60b4686f63850308c858960405180848152602001838152602001828152602001935050505060405180910390a483955050505050506001606581905550949350505050565b8261342b81614f2a565b61349d576040517f08c379a00000000000000000000000000000000000000000000000000000000081526004018080602001828103825260178152602001807f5072697a65506f6f6c2f756e6b6e6f776e2d746f6b656e00000000000000000081525060200191505060405180910390fd5b6134a5614971565b73ffffffffffffffffffffffffffffffffffffffff16603360009054906101000a900473ffffffffffffffffffffffffffffffffffffffff1673ffffffffffffffffffffffffffffffffffffffff1614613567576040517f08c379a00000000000000000000000000000000000000000000000000000000081526004018080602001828103825260208152602001807f4f776e61626c653a2063616c6c6572206973206e6f7420746865206f776e657281525060200191505060405180910390fd5b6040518060400160405280836fffffffffffffffffffffffffffffffff168152602001846fffffffffffffffffffffffffffffffff1681525060a360008673ffffffffffffffffffffffffffffffffffffffff1673ffffffffffffffffffffffffffffffffffffffff16815260200190815260200160002060008201518160000160006101000a8154816fffffffffffffffffffffffffffffffff02191690836fffffffffffffffffffffffffffffffff16021790555060208201518160000160106101000a8154816fffffffffffffffffffffffffffffffff02191690836fffffffffffffffffffffffffffffffff1602179055509050507ffb0ba2cf86a2b03bcf387753a2192da80a006afa99dd022bb301c78e323bf1b9848385604051808473ffffffffffffffffffffffffffffffffffffffff168152602001836fffffffffffffffffffffffffffffffff168152602001826fffffffffffffffffffffffffffffffff168152602001935050505060405180910390a150505050565b6000806136f5858585616558565b91509150935093915050565b60006002606554141561377c576040517f08c379a000000000000000000000000000000000000000000000000000000000815260040180806020018281038252601f8152602001807f5265656e7472616e637947756172643a207265656e7472616e742063616c6c0081525060200191505060405180910390fd5b60026065819055508161378e81614f2a565b613800576040517f08c379a00000000000000000000000000000000000000000000000000000000081526004018080602001828103825260178152602001807f5072697a65506f6f6c2f756e6b6e6f776e2d746f6b656e00000000000000000081525060200191505060405180910390fd5b600061380a61659d565b905060008061381a888789616558565b91509150600061383383856165a590919063ffffffff16565b905061384089888461633f565b8673ffffffffffffffffffffffffffffffffffffffff1663631b5dfb613864614971565b8b8b6040518463ffffffff1660e01b8152600401808473ffffffffffffffffffffffffffffffffffffffff1681526020018373ffffffffffffffffffffffffffffffffffffffff1681526020018281526020019350505050600060405180830381600087803b1580156138d657600080fd5b505af11580156138ea573d6000803e3d6000fd5b505050506138f989898361662d565b8673ffffffffffffffffffffffffffffffffffffffff168973ffffffffffffffffffffffffffffffffffffffff1661392f614971565b73ffffffffffffffffffffffffffffffffffffffff167f8525b0d0266acfc7f6134894f8c4bea88f1beb343d5a3c11b0f3b982a8becfab8b85604051808381526020018281526020019250505060405180910390a4809550505050505060016065819055509392505050565b60006139a56167de565b905090565b60008060a360008473ffffffffffffffffffffffffffffffffffffffff1673ffffffffffffffffffffffffffffffffffffffff16815260200190815260200160002060000160009054906101000a90046fffffffffffffffffffffffffffffffff16915060a360008473ffffffffffffffffffffffffffffffffffffffff1673ffffffffffffffffffffffffffffffffffffffff16815260200190815260200160002060000160109054906101000a90046fffffffffffffffffffffffffffffffff169050915091565b609d5481565b81613a8481614f2a565b613af6576040517f08c379a00000000000000000000000000000000000000000000000000000000081526004018080602001828103825260178152602001807f5072697a65506f6f6c2f756e6b6e6f776e2d746f6b656e00000000000000000081525060200191505060405180910390fd5b83613b00816160e8565b613b72576040517f08c379a000000000000000000000000000000000000000000000000000000000815260040180806020018281038252601f8152602001807f5072697a65506f6f6c2f657863656564732d6c69717569646974792d6361700081525060200191505060405180910390fd5b60026065541415613beb576040517f08c379a000000000000000000000000000000000000000000000000000000000815260040180806020018281038252601f8152602001807f5265656e7472616e637947756172643a207265656e7472616e742063616c6c0081525060200191505060405180910390fd5b60026065819055506000613bfd614971565b9050613c0b878787876153e4565b613c3f813088613c196152ce565b73ffffffffffffffffffffffffffffffffffffffff166168ae909392919063ffffffff16565b613c488661696f565b8473ffffffffffffffffffffffffffffffffffffffff168773ffffffffffffffffffffffffffffffffffffffff168273ffffffffffffffffffffffffffffffffffffffff167f6ce569498e0f86f147466ac49211cb2a1ffe06195adb805e383b3f23651091608988604051808381526020018273ffffffffffffffffffffffffffffffffffffffff1681526020019250505060405180910390a4506001606581905550505050505050565b600060019054906101000a900460ff1680613d125750613d11614331565b5b80613d28575060008054906101000a900460ff16155b613d7d576040517f08c379a000000000000000000000000000000000000000000000000000000000815260040180806020018281038252602e815260200180618138602e913960400191505060405180910390fd5b60008060019054906101000a900460ff161590508015613dcd576001600060016101000a81548160ff02191690831515021790555060016000806101000a81548160ff0219169083151502179055505b613dd98888888861123a565b8360a560006101000a81548173ffffffffffffffffffffffffffffffffffffffff021916908373ffffffffffffffffffffffffffffffffffffffff1602179055508260a660006101000a81548173ffffffffffffffffffffffffffffffffffffffff021916908373ffffffffffffffffffffffffffffffffffffffff1602179055508160a760006101000a81548173ffffffffffffffffffffffffffffffffffffffff021916908373ffffffffffffffffffffffffffffffffffffffff16021790555060a560009054906101000a900473ffffffffffffffffffffffffffffffffffffffff1673ffffffffffffffffffffffffffffffffffffffff167f41c68f28445dc010f1d6e0c34ef167ed0d8e5bdbe36aec6b6dd371f0602752ce60405160405180910390a28015613f225760008060016101000a81548160ff0219169083151502179055505b5050505050505050565b600060026065541415613fa7576040517f08c379a000000000000000000000000000000000000000000000000000000000815260040180806020018281038252601f8152602001807f5265656e7472616e637947756172643a207265656e7472616e742063616c6c0081525060200191505060405180910390fd5b60026065819055506000613fb9614817565b90506000613fc56167de565b90506000828211613fd7576000613feb565b613fea838361539a90919063ffffffff16565b5b9050600060a0548211613fff576000614015565b61401460a0548361539a90919063ffffffff16565b5b905060008111156140f257600061402b82612f48565b9050600081111561409e5761404b81609e546165a590919063ffffffff16565b609e81905550614064818361539a90919063ffffffff16565b91507f5f1703ccfa2730d4245350f228079926a37f26a44ecf6978a7eeafff0af11407816040518082815260200191505060405180910390a15b6140b38260a0546165a590919063ffffffff16565b60a0819055507fce2b6e507c7ca1a20ce136810f524eefc19ba4c7e4866eb6cc0cba76e778d4be826040518082815260200191505060405180910390a1505b60a054945050505050600160658190555090565b609e5481565b614114614971565b73ffffffffffffffffffffffffffffffffffffffff16603360009054906101000a900473ffffffffffffffffffffffffffffffffffffffff1673ffffffffffffffffffffffffffffffffffffffff16146141d6576040517f08c379a00000000000000000000000000000000000000000000000000000000081526004018080602001828103825260208152602001807f4f776e61626c653a2063616c6c6572206973206e6f7420746865206f776e657281525060200191505060405180910390fd5b600073ffffffffffffffffffffffffffffffffffffffff168173ffffffffffffffffffffffffffffffffffffffff16141561425c576040517f08c379a00000000000000000000000000000000000000000000000000000000081526004018080602001828103825260268152602001806180a36026913960400191505060405180910390fd5b8073ffffffffffffffffffffffffffffffffffffffff16603360009054906101000a900473ffffffffffffffffffffffffffffffffffffffff1673ffffffffffffffffffffffffffffffffffffffff167f8be0079c531659141344cd1fd0a4f28419497f9722a3daafe3b4186f6b6457e060405160405180910390a380603360006101000a81548173ffffffffffffffffffffffffffffffffffffffff021916908373ffffffffffffffffffffffffffffffffffffffff16021790555050565b609c5481565b600061432c6152ce565b905090565b6000803090506000813b9050600081149250505090565b60008160000154146143c2576040517f08c379a000000000000000000000000000000000000000000000000000000000815260040180806020018281038252600c8152602001807f416c726561647920696e6974000000000000000000000000000000000000000081525060200191505060405180910390fd5b6001816001016000600173ffffffffffffffffffffffffffffffffffffffff1673ffffffffffffffffffffffffffffffffffffffff16815260200190815260200160002060006101000a81548173ffffffffffffffffffffffffffffffffffffffff021916908373ffffffffffffffffffffffffffffffffffffffff16021790555050565b3073ffffffffffffffffffffffffffffffffffffffff168173ffffffffffffffffffffffffffffffffffffffff1663f77c47916040518163ffffffff1660e01b815260040160206040518083038186803b1580156144a457600080fd5b505afa1580156144b8573d6000803e3d6000fd5b505050506040513d60208110156144ce57600080fd5b810190808051906020019092919050505073ffffffffffffffffffffffffffffffffffffffff1614614568576040517f08c379a000000000000000000000000000000000000000000000000000000000815260040180806020018281038252601e8152602001807f5072697a65506f6f6c2f746f6b656e2d6374726c722d6d69736d61746368000081525060200191505060405180910390fd5b61457c816098616adb90919063ffffffff16565b8073ffffffffffffffffffffffffffffffffffffffff167f460e712b4a5d801d031ed673dea209b73ab854f7ddeb86b6c48082e92c3eee6660405160405180910390a250565b600060019054906101000a900460ff16806145e157506145e0614331565b5b806145f7575060008054906101000a900460ff16155b61464c576040517f08c379a000000000000000000000000000000000000000000000000000000000815260040180806020018281038252602e815260200180618138602e913960400191505060405180910390fd5b60008060019054906101000a900460ff16159050801561469c576001600060016101000a81548160ff02191690831515021790555060016000806101000a81548160ff0219169083151502179055505b6146a4616e31565b6146ac616f2f565b80156146cd5760008060016101000a81548160ff0219169083151502179055505b50565b600060019054906101000a900460ff16806146ef57506146ee614331565b5b80614705575060008054906101000a900460ff16155b61475a576040517f08c379a000000000000000000000000000000000000000000000000000000000815260040180806020018281038252602e815260200180618138602e913960400191505060405180910390fd5b60008060019054906101000a900460ff1615905080156147aa576001600060016101000a81548160ff02191690831515021790555060016000806101000a81548160ff0219169083151502179055505b6147b26170d6565b80156147d35760008060016101000a81548160ff0219169083151502179055505b50565b80609f819055507f3ff20538222f568f27ff436c0c49dfd3e48d5b8f86533a3f759dc1c7089775ab816040518082815260200191505060405180910390a150565b600080614831609e54609d546165a590919063ffffffff16565b9050600061483f60986171dc565b90505b600073ffffffffffffffffffffffffffffffffffffffff168173ffffffffffffffffffffffffffffffffffffffff16141580156148b457506148846098617248565b73ffffffffffffffffffffffffffffffffffffffff168173ffffffffffffffffffffffffffffffffffffffff1614155b156149695761494c8173ffffffffffffffffffffffffffffffffffffffff166318160ddd6040518163ffffffff1660e01b815260040160206040518083038186803b15801561490257600080fd5b505afa158015614916573d6000803e3d6000fd5b505050506040513d602081101561492c57600080fd5b8101908080519060200190929190505050836165a590919063ffffffff16565b915061496281609861725390919063ffffffff16565b9050614842565b819250505090565b600033905090565b600061498483614a3f565b6149f6576040517f08c379a00000000000000000000000000000000000000000000000000000000081526004018080602001828103825260208152602001807f5072697a65506f6f6c2f696e76616c69642d65787465726e616c2d746f6b656e81525060200191505060405180910390fd5b6000821415614a085760009050614a38565b614a3384838573ffffffffffffffffffffffffffffffffffffffff166152f89092919063ffffffff16565b600190505b9392505050565b600060a560009054906101000a900473ffffffffffffffffffffffffffffffffffffffff1673ffffffffffffffffffffffffffffffffffffffff168273ffffffffffffffffffffffffffffffffffffffff1614158015614b6d575060a560009054906101000a900473ffffffffffffffffffffffffffffffffffffffff1673ffffffffffffffffffffffffffffffffffffffff1663fc0c546a6040518163ffffffff1660e01b815260040160206040518083038186803b158015614b0257600080fd5b505afa158015614b16573d6000803e3d6000fd5b505050506040513d6020811015614b2c57600080fd5b810190808051906020019092919050505073ffffffffffffffffffffffffffffffffffffffff168273ffffffffffffffffffffffffffffffffffffffff1614155b9050919050565b600080614b7f614971565b90506060835167ffffffffffffffff81118015614b9b57600080fd5b50604051908082528060200260200182016040528015614bca5781602001602082028036833780820191505090505b509050600080600090505b8551811015614d41576000868281518110614bec57fe5b60200260200101519050614bfe61659d565b60a260008373ffffffffffffffffffffffffffffffffffffffff1673ffffffffffffffffffffffffffffffffffffffff1681526020019081526020016000205411614d3357614c9560a160008373ffffffffffffffffffffffffffffffffffffffff1673ffffffffffffffffffffffffffffffffffffffff16815260200190815260200160002054846165a590919063ffffffff16565b925060a160008273ffffffffffffffffffffffffffffffffffffffff1673ffffffffffffffffffffffffffffffffffffffff16815260200190815260200160002054848381518110614ce357fe5b60200260200101818152505060a160008273ffffffffffffffffffffffffffffffffffffffff1673ffffffffffffffffffffffffffffffffffffffff168152602001908152602001600020600090555b508080600101915050614bd5565b6000821415614d57576000945050505050614f25565b614d6c82609d5461539a90919063ffffffff16565b609d819055506000614d7d83614f63565b90506000614d896152ce565b9050600092505b8751831015614f1b576000858481518110614da757fe5b60200260200101511115614f0e5760a26000898581518110614dc557fe5b602002602001015173ffffffffffffffffffffffffffffffffffffffff1673ffffffffffffffffffffffffffffffffffffffff168152602001908152602001600020600090556000614e2a868581518110614e1c57fe5b6020026020010151866172bf565b90506000614e388483616300565b9050614e788a8681518110614e4957fe5b6020026020010151828573ffffffffffffffffffffffffffffffffffffffff166152f89092919063ffffffff16565b898581518110614e8457fe5b602002602001015173ffffffffffffffffffffffffffffffffffffffff168873ffffffffffffffffffffffffffffffffffffffff167fbb0b86d17da09eb201fde0b40e5129e29184c65db2bf7e6ec15cf199daccd1d2898881518110614ee657fe5b602002602001015184604051808381526020018281526020019250505060405180910390a350505b8280600101935050614d90565b8396505050505050505b919050565b6000614f408260986172fe90919063ffffffff16565b9050919050565b614f5d8484614f58878787876156ee565b6158b7565b50505050565b6000614f6d61659d565b60a560009054906101000a900473ffffffffffffffffffffffffffffffffffffffff1673ffffffffffffffffffffffffffffffffffffffff1663bf0ae48c336040518263ffffffff1660e01b8152600401808273ffffffffffffffffffffffffffffffffffffffff16815260200191505060206040518083038186803b158015614ff657600080fd5b505afa15801561500a573d6000803e3d6000fd5b505050506040513d602081101561502057600080fd5b810190808051906020019092919050505011156150a5576040517f08c379a00000000000000000000000000000000000000000000000000000000081526004018080602001828103825260198152602001807f4261726e5072697a65506f6f6c2f757365722d6c6f636b65640000000000000081525060200191505060405180910390fd5b60006150af6152ce565b905060008173ffffffffffffffffffffffffffffffffffffffff166370a08231306040518263ffffffff1660e01b8152600401808273ffffffffffffffffffffffffffffffffffffffff16815260200191505060206040518083038186803b15801561511a57600080fd5b505afa15801561512e573d6000803e3d6000fd5b505050506040513d602081101561514457600080fd5b8101908080519060200190929190505050905083811015615205576000615174828661539a90919063ffffffff16565b905060a660009054906101000a900473ffffffffffffffffffffffffffffffffffffffff1673ffffffffffffffffffffffffffffffffffffffff1663379607f5826040518263ffffffff1660e01b815260040180828152602001915050600060405180830381600087803b1580156151eb57600080fd5b505af11580156151ff573d6000803e3d6000fd5b50505050505b60008273ffffffffffffffffffffffffffffffffffffffff166370a08231306040518263ffffffff1660e01b8152600401808273ffffffffffffffffffffffffffffffffffffffff16815260200191505060206040518083038186803b15801561526e57600080fd5b505afa158015615282573d6000803e3d6000fd5b505050506040513d602081101561529857600080fd5b8101908080519060200190929190505050905060006152c0838361539a90919063ffffffff16565b905080945050505050919050565b600060a760009054906101000a900473ffffffffffffffffffffffffffffffffffffffff16905090565b6153958363a9059cbb60e01b8484604051602401808373ffffffffffffffffffffffffffffffffffffffff16815260200182815260200192505050604051602081830303815290604052907bffffffffffffffffffffffffffffffffffffffffffffffffffffffff19166020820180517bffffffffffffffffffffffffffffffffffffffffffffffffffffffff838183161783525050505061740c565b505050565b60006153dc83836040518060400160405280601e81526020017f536166654d6174683a207375627472616374696f6e206f766572666c6f7700008152506174fb565b905092915050565b600073ffffffffffffffffffffffffffffffffffffffff16609a60009054906101000a900473ffffffffffffffffffffffffffffffffffffffff1673ffffffffffffffffffffffffffffffffffffffff161461552257609a60009054906101000a900473ffffffffffffffffffffffffffffffffffffffff1673ffffffffffffffffffffffffffffffffffffffff16634d7f3db0858585856040518563ffffffff1660e01b8152600401808573ffffffffffffffffffffffffffffffffffffffff1681526020018481526020018373ffffffffffffffffffffffffffffffffffffffff1681526020018273ffffffffffffffffffffffffffffffffffffffff168152602001945050505050600060405180830381600087803b15801561550957600080fd5b505af115801561551d573d6000803e3d6000fd5b505050505b8173ffffffffffffffffffffffffffffffffffffffff16635d7b075885856040518363ffffffff1660e01b8152600401808373ffffffffffffffffffffffffffffffffffffffff16815260200182815260200192505050600060405180830381600087803b15801561559357600080fd5b505af11580156155a7573d6000803e3d6000fd5b5050505050505050565b6000615636826156318460a360008873ffffffffffffffffffffffffffffffffffffffff1673ffffffffffffffffffffffffffffffffffffffff16815260200190815260200160002060000160009054906101000a90046fffffffffffffffffffffffffffffffff166fffffffffffffffffffffffffffffffff16616300565b6175bb565b905092915050565b6000806156bb8460a360008873ffffffffffffffffffffffffffffffffffffffff1673ffffffffffffffffffffffffffffffffffffffff16815260200190815260200160002060000160109054906101000a90046fffffffffffffffffffffffffffffffff166fffffffffffffffffffffffffffffffff16616300565b905060008114156156d05760009150506156e7565b6156e381846175e290919063ffffffff16565b9150505b9392505050565b600080600060a460008773ffffffffffffffffffffffffffffffffffffffff1673ffffffffffffffffffffffffffffffffffffffff16815260200190815260200160002060008873ffffffffffffffffffffffffffffffffffffffff1673ffffffffffffffffffffffffffffffffffffffff168152602001908152602001600020905080600001601c9054906101000a900460ff166157905760009150615814565b600061579d88888861762c565b9050615810878761580b886157fd868860000160009054906101000a900477ffffffffffffffffffffffffffffffffffffffffffffffff1677ffffffffffffffffffffffffffffffffffffffffffffffff166165a590919063ffffffff16565b6165a590919063ffffffff16565b615821565b9250505b8192505050949350505050565b60008061589e8460a360008873ffffffffffffffffffffffffffffffffffffffff1673ffffffffffffffffffffffffffffffffffffffff16815260200190815260200160002060000160009054906101000a90046fffffffffffffffffffffffffffffffff166fffffffffffffffffffffffffffffffff16616300565b9050808311156158ac578092505b829150509392505050565b600060a460008473ffffffffffffffffffffffffffffffffffffffff1673ffffffffffffffffffffffffffffffffffffffff16815260200190815260200160002060008573ffffffffffffffffffffffffffffffffffffffff1673ffffffffffffffffffffffffffffffffffffffff16815260200190815260200160002060000160009054906101000a900477ffffffffffffffffffffffffffffffffffffffffffffffff1677ffffffffffffffffffffffffffffffffffffffffffffffff169050604051806060016040528061598d8461781e565b6fffffffffffffffffffffffffffffffff1677ffffffffffffffffffffffffffffffffffffffffffffffff1681526020016159ce6159c961659d565b617891565b63ffffffff1681526020016001151581525060a460008573ffffffffffffffffffffffffffffffffffffffff1673ffffffffffffffffffffffffffffffffffffffff16815260200190815260200160002060008673ffffffffffffffffffffffffffffffffffffffff1673ffffffffffffffffffffffffffffffffffffffff16815260200190815260200160002060008201518160000160006101000a81548177ffffffffffffffffffffffffffffffffffffffffffffffff021916908377ffffffffffffffffffffffffffffffffffffffffffffffff16021790555060208201518160000160186101000a81548163ffffffff021916908363ffffffff160217905550604082015181600001601c6101000a81548160ff02191690831515021790555090505081811015615b79578273ffffffffffffffffffffffffffffffffffffffff168473ffffffffffffffffffffffffffffffffffffffff167f2f92d56910619b38bc29fd8e4ca5e56359edac7a0c086cdcd305fb603fa37491615b5f848661539a90919063ffffffff16565b6040518082815260200191505060405180910390a3615bf1565b8273ffffffffffffffffffffffffffffffffffffffff168473ffffffffffffffffffffffffffffffffffffffff167ff584c579437bc25785b953cc4d8d247251812751e1871c6130cbdecf95a106cf615bdb858561539a90919063ffffffff16565b6040518082815260200191505060405180910390a35b50505050565b60008060008473ffffffffffffffffffffffffffffffffffffffff166370a08231876040518263ffffffff1660e01b8152600401808273ffffffffffffffffffffffffffffffffffffffff16815260200191505060206040518083038186803b158015615c6357600080fd5b505afa158015615c77573d6000803e3d6000fd5b505050506040513d6020811015615c8d57600080fd5b8101908080519060200190929190505050905083811015615d16576040517f08c379a00000000000000000000000000000000000000000000000000000000081526004018080602001828103825260168152602001807f5072697a65506f6f6c2f696e737566662d66756e64730000000000000000000081525060200191505060405180910390fd5b615d238686836000614f47565b6000615d4186615d3c878561539a90919063ffffffff16565b6155b1565b905060008160a460008973ffffffffffffffffffffffffffffffffffffffff1673ffffffffffffffffffffffffffffffffffffffff16815260200190815260200160002060008a73ffffffffffffffffffffffffffffffffffffffff1673ffffffffffffffffffffffffffffffffffffffff16815260200190815260200160002060000160009054906101000a900477ffffffffffffffffffffffffffffffffffffffffffffffff1677ffffffffffffffffffffffffffffffffffffffffffffffff1610615edc57615ed98260a460008a73ffffffffffffffffffffffffffffffffffffffff1673ffffffffffffffffffffffffffffffffffffffff16815260200190815260200160002060008b73ffffffffffffffffffffffffffffffffffffffff1673ffffffffffffffffffffffffffffffffffffffff16815260200190815260200160002060000160009054906101000a900477ffffffffffffffffffffffffffffffffffffffffffffffff1677ffffffffffffffffffffffffffffffffffffffffffffffff1661539a90919063ffffffff16565b90505b6000615ee888886155b1565b9050808211615ef75781615ef9565b805b9450615f0e858261539a90919063ffffffff16565b955050505050935093915050565b600073ffffffffffffffffffffffffffffffffffffffff168173ffffffffffffffffffffffffffffffffffffffff161415615fbf576040517f08c379a00000000000000000000000000000000000000000000000000000000081526004018080602001828103825260208152602001807f5072697a65506f6f6c2f7072697a6553747261746567792d6e6f742d7a65726f81525060200191505060405180910390fd5b615fef63ff5e34e760e01b8273ffffffffffffffffffffffffffffffffffffffff166178f890919063ffffffff16565b616061576040517f08c379a000000000000000000000000000000000000000000000000000000000815260040180806020018281038252601f8152602001807f5072697a65506f6f6c2f7072697a6553747261746567792d696e76616c69640081525060200191505060405180910390fd5b80609a60006101000a81548173ffffffffffffffffffffffffffffffffffffffff021916908373ffffffffffffffffffffffffffffffffffffffff1602179055508073ffffffffffffffffffffffffffffffffffffffff167f7f58dc86bc2e435cb77ca0edb1df55e25f90caf2d6bd866971715437d456a21260405160405180910390a250565b6000806160f3614817565b9050609f5461610b84836165a590919063ffffffff16565b1115915050919050565b606080826000015467ffffffffffffffff8111801561613357600080fd5b506040519080825280602002602001820160405280156161625781602001602082028036833780820191505090505b509050600080846001016000600173ffffffffffffffffffffffffffffffffffffffff1673ffffffffffffffffffffffffffffffffffffffff16815260200190815260200160002060009054906101000a900473ffffffffffffffffffffffffffffffffffffffff1690505b600073ffffffffffffffffffffffffffffffffffffffff168173ffffffffffffffffffffffffffffffffffffffff16141580156162385750600173ffffffffffffffffffffffffffffffffffffffff168173ffffffffffffffffffffffffffffffffffffffff1614155b156162f5578083838151811061624a57fe5b602002602001019073ffffffffffffffffffffffffffffffffffffffff16908173ffffffffffffffffffffffffffffffffffffffff16815250508460010160008273ffffffffffffffffffffffffffffffffffffffff1673ffffffffffffffffffffffffffffffffffffffff16815260200190815260200160002060009054906101000a900473ffffffffffffffffffffffffffffffffffffffff16905081806001019250506161ce565b829350505050919050565b600080616316848461791d90919063ffffffff16565b9050616333670de0b6b3a7640000826179a390919063ffffffff16565b90508091505092915050565b6164176164128260a460008673ffffffffffffffffffffffffffffffffffffffff1673ffffffffffffffffffffffffffffffffffffffff16815260200190815260200160002060008773ffffffffffffffffffffffffffffffffffffffff1673ffffffffffffffffffffffffffffffffffffffff16815260200190815260200160002060000160009054906101000a900477ffffffffffffffffffffffffffffffffffffffffffffffff1677ffffffffffffffffffffffffffffffffffffffffffffffff1661539a90919063ffffffff16565b61781e565b6fffffffffffffffffffffffffffffffff1660a460008473ffffffffffffffffffffffffffffffffffffffff1673ffffffffffffffffffffffffffffffffffffffff16815260200190815260200160002060008573ffffffffffffffffffffffffffffffffffffffff1673ffffffffffffffffffffffffffffffffffffffff16815260200190815260200160002060000160006101000a81548177ffffffffffffffffffffffffffffffffffffffffffffffff021916908377ffffffffffffffffffffffffffffffffffffffffffffffff1602179055508173ffffffffffffffffffffffffffffffffffffffff168373ffffffffffffffffffffffffffffffffffffffff167ff584c579437bc25785b953cc4d8d247251812751e1871c6130cbdecf95a106cf836040518082815260200191505060405180910390a3505050565b600080600080616569878787615bf7565b91509150600061657a87878561563e565b9050609c5481111561658c57609c5490505b808294509450505050935093915050565b600042905090565b600080828401905083811015616623576040517f08c379a000000000000000000000000000000000000000000000000000000000815260040180806020018281038252601b8152602001807f536166654d6174683a206164646974696f6e206f766572666c6f77000000000081525060200191505060405180910390fd5b8091505092915050565b6060600167ffffffffffffffff8111801561664757600080fd5b506040519080825280602002602001820160405280156166765781602001602082028036833780820191505090505b509050838160008151811061668757fe5b602002602001019073ffffffffffffffffffffffffffffffffffffffff16908173ffffffffffffffffffffffffffffffffffffffff16815250506166ca81614b74565b506166e083609d546165a590919063ffffffff16565b609d819055506167388360a160008773ffffffffffffffffffffffffffffffffffffffff1673ffffffffffffffffffffffffffffffffffffffff168152602001908152602001600020546165a590919063ffffffff16565b60a160008673ffffffffffffffffffffffffffffffffffffffff1673ffffffffffffffffffffffffffffffffffffffff168152602001908152602001600020819055508160a260008673ffffffffffffffffffffffffffffffffffffffff1673ffffffffffffffffffffffffffffffffffffffff168152602001908152602001600020819055506167c761659d565b82116167d8576167d681614b74565b505b50505050565b60008060a660009054906101000a900473ffffffffffffffffffffffffffffffffffffffff1673ffffffffffffffffffffffffffffffffffffffff1663df18e047306040518263ffffffff1660e01b8152600401808273ffffffffffffffffffffffffffffffffffffffff16815260200191505060206040518083038186803b15801561686a57600080fd5b505afa15801561687e573d6000803e3d6000fd5b505050506040513d602081101561689457600080fd5b810190808051906020019092919050505090508091505090565b616969846323b872dd60e01b858585604051602401808473ffffffffffffffffffffffffffffffffffffffff1681526020018373ffffffffffffffffffffffffffffffffffffffff1681526020018281526020019350505050604051602081830303815290604052907bffffffffffffffffffffffffffffffffffffffffffffffffffffffff19166020820180517bffffffffffffffffffffffffffffffffffffffffffffffffffffffff838183161783525050505061740c565b50505050565b60006169796152ce565b90508073ffffffffffffffffffffffffffffffffffffffff1663095ea7b360a560009054906101000a900473ffffffffffffffffffffffffffffffffffffffff16846040518363ffffffff1660e01b8152600401808373ffffffffffffffffffffffffffffffffffffffff16815260200182815260200192505050602060405180830381600087803b158015616a0e57600080fd5b505af1158015616a22573d6000803e3d6000fd5b505050506040513d6020811015616a3857600080fd5b81019080805190602001909291905050505060a560009054906101000a900473ffffffffffffffffffffffffffffffffffffffff1673ffffffffffffffffffffffffffffffffffffffff1663b6b55f25836040518263ffffffff1660e01b815260040180828152602001915050600060405180830381600087803b158015616abf57600080fd5b505af1158015616ad3573d6000803e3d6000fd5b505050505050565b600173ffffffffffffffffffffffffffffffffffffffff168173ffffffffffffffffffffffffffffffffffffffff1614158015616b455750600073ffffffffffffffffffffffffffffffffffffffff168173ffffffffffffffffffffffffffffffffffffffff1614155b616bb7576040517f08c379a000000000000000000000000000000000000000000000000000000000815260040180806020018281038252600f8152602001807f496e76616c69642061646472657373000000000000000000000000000000000081525060200191505060405180910390fd5b600073ffffffffffffffffffffffffffffffffffffffff168260010160008373ffffffffffffffffffffffffffffffffffffffff1673ffffffffffffffffffffffffffffffffffffffff16815260200190815260200160002060009054906101000a900473ffffffffffffffffffffffffffffffffffffffff1673ffffffffffffffffffffffffffffffffffffffff1614616cba576040517f08c379a000000000000000000000000000000000000000000000000000000000815260040180806020018281038252600d8152602001807f416c72656164792061646465640000000000000000000000000000000000000081525060200191505060405180910390fd5b816001016000600173ffffffffffffffffffffffffffffffffffffffff1673ffffffffffffffffffffffffffffffffffffffff16815260200190815260200160002060009054906101000a900473ffffffffffffffffffffffffffffffffffffffff168260010160008373ffffffffffffffffffffffffffffffffffffffff1673ffffffffffffffffffffffffffffffffffffffff16815260200190815260200160002060006101000a81548173ffffffffffffffffffffffffffffffffffffffff021916908373ffffffffffffffffffffffffffffffffffffffff16021790555080826001016000600173ffffffffffffffffffffffffffffffffffffffff1673ffffffffffffffffffffffffffffffffffffffff16815260200190815260200160002060006101000a81548173ffffffffffffffffffffffffffffffffffffffff021916908373ffffffffffffffffffffffffffffffffffffffff160217905550600182600001540182600001819055505050565b600060019054906101000a900460ff1680616e505750616e4f614331565b5b80616e66575060008054906101000a900460ff16155b616ebb576040517f08c379a000000000000000000000000000000000000000000000000000000000815260040180806020018281038252602e815260200180618138602e913960400191505060405180910390fd5b60008060019054906101000a900460ff161590508015616f0b576001600060016101000a81548160ff02191690831515021790555060016000806101000a81548160ff0219169083151502179055505b8015616f2c5760008060016101000a81548160ff0219169083151502179055505b50565b600060019054906101000a900460ff1680616f4e5750616f4d614331565b5b80616f64575060008054906101000a900460ff16155b616fb9576040517f08c379a000000000000000000000000000000000000000000000000000000000815260040180806020018281038252602e815260200180618138602e913960400191505060405180910390fd5b60008060019054906101000a900460ff161590508015617009576001600060016101000a81548160ff02191690831515021790555060016000806101000a81548160ff0219169083151502179055505b6000617013614971565b905080603360006101000a81548173ffffffffffffffffffffffffffffffffffffffff021916908373ffffffffffffffffffffffffffffffffffffffff1602179055508073ffffffffffffffffffffffffffffffffffffffff16600073ffffffffffffffffffffffffffffffffffffffff167f8be0079c531659141344cd1fd0a4f28419497f9722a3daafe3b4186f6b6457e060405160405180910390a35080156170d35760008060016101000a81548160ff0219169083151502179055505b50565b600060019054906101000a900460ff16806170f557506170f4614331565b5b8061710b575060008054906101000a900460ff16155b617160576040517f08c379a000000000000000000000000000000000000000000000000000000000815260040180806020018281038252602e815260200180618138602e913960400191505060405180910390fd5b60008060019054906101000a900460ff1615905080156171b0576001600060016101000a81548160ff02191690831515021790555060016000806101000a81548160ff0219169083151502179055505b600160658190555080156171d95760008060016101000a81548160ff0219169083151502179055505b50565b6000816001016000600173ffffffffffffffffffffffffffffffffffffffff1673ffffffffffffffffffffffffffffffffffffffff16815260200190815260200160002060009054906101000a900473ffffffffffffffffffffffffffffffffffffffff169050919050565b600060019050919050565b60008260010160008373ffffffffffffffffffffffffffffffffffffffff1673ffffffffffffffffffffffffffffffffffffffff16815260200190815260200160002060009054906101000a900473ffffffffffffffffffffffffffffffffffffffff16905092915050565b6000806172dd670de0b6b3a76400008561791d90919063ffffffff16565b90506172f283826179a390919063ffffffff16565b90508091505092915050565b6000600173ffffffffffffffffffffffffffffffffffffffff168273ffffffffffffffffffffffffffffffffffffffff161415801561736a5750600073ffffffffffffffffffffffffffffffffffffffff168273ffffffffffffffffffffffffffffffffffffffff1614155b80156174045750600073ffffffffffffffffffffffffffffffffffffffff168360010160008473ffffffffffffffffffffffffffffffffffffffff1673ffffffffffffffffffffffffffffffffffffffff16815260200190815260200160002060009054906101000a900473ffffffffffffffffffffffffffffffffffffffff1673ffffffffffffffffffffffffffffffffffffffff1614155b905092915050565b606061746e826040518060400160405280602081526020017f5361666545524332303a206c6f772d6c6576656c2063616c6c206661696c65648152508573ffffffffffffffffffffffffffffffffffffffff166179ed9092919063ffffffff16565b90506000815111156174f65780806020019051602081101561748f57600080fd5b81019080805190602001909291905050506174f5576040517f08c379a000000000000000000000000000000000000000000000000000000000815260040180806020018281038252602a8152602001806181d4602a913960400191505060405180910390fd5b5b505050565b60008383111582906175a8576040517f08c379a00000000000000000000000000000000000000000000000000000000081526004018080602001828103825283818151815260200191508051906020019080838360005b8381101561756d578082015181840152602081019050617552565b50505050905090810190601f16801561759a5780820380516001836020036101000a031916815260200191505b509250505060405180910390fd5b5060008385039050809150509392505050565b6000806175ca84609b54616300565b9050808311156175d8578092505b8291505092915050565b600061762483836040518060400160405280601a81526020017f536166654d6174683a206469766973696f6e206279207a65726f000000000000815250617a05565b905092915050565b60008060a460008573ffffffffffffffffffffffffffffffffffffffff1673ffffffffffffffffffffffffffffffffffffffff16815260200190815260200160002060008673ffffffffffffffffffffffffffffffffffffffff1673ffffffffffffffffffffffffffffffffffffffff16815260200190815260200160002060000160189054906101000a900463ffffffff1663ffffffff16905060a460008573ffffffffffffffffffffffffffffffffffffffff1673ffffffffffffffffffffffffffffffffffffffff16815260200190815260200160002060008673ffffffffffffffffffffffffffffffffffffffff1673ffffffffffffffffffffffffffffffffffffffff168152602001908152602001600020600001601c9054906101000a900460ff16617762576000915050617817565b600061777e8261777061659d565b61539a90919063ffffffff16565b905060006177fc8560a360008973ffffffffffffffffffffffffffffffffffffffff1673ffffffffffffffffffffffffffffffffffffffff16815260200190815260200160002060000160109054906101000a90046fffffffffffffffffffffffffffffffff166fffffffffffffffffffffffffffffffff16616300565b90506178118183617acb90919063ffffffff16565b93505050505b9392505050565b60007001000000000000000000000000000000008210617889576040517f08c379a00000000000000000000000000000000000000000000000000000000081526004018080602001828103825260278152602001806180c96027913960400191505060405180910390fd5b819050919050565b600064010000000082106178f0576040517f08c379a00000000000000000000000000000000000000000000000000000000081526004018080602001828103825260268152602001806181ae6026913960400191505060405180910390fd5b819050919050565b600061790383617b51565b801561791557506179148383617b85565b5b905092915050565b600080831415617930576000905061799d565b600082840290508284828161794157fe5b0414617998576040517f08c379a00000000000000000000000000000000000000000000000000000000081526004018080602001828103825260218152602001806181666021913960400191505060405180910390fd5b809150505b92915050565b60006179e583836040518060400160405280601a81526020017f536166654d6174683a206469766973696f6e206279207a65726f000000000000815250617bac565b905092915050565b60606179fc8484600085617c72565b90509392505050565b60008083118290617ab1576040517f08c379a00000000000000000000000000000000000000000000000000000000081526004018080602001828103825283818151815260200191508051906020019080838360005b83811015617a76578082015181840152602081019050617a5b565b50505050905090810190601f168015617aa35780820380516001836020036101000a031916815260200191505b509250505060405180910390fd5b506000838581617abd57fe5b049050809150509392505050565b600080831415617ade5760009050617b4b565b6000828402905082848281617aef57fe5b0414617b46576040517f08c379a00000000000000000000000000000000000000000000000000000000081526004018080602001828103825260218152602001806181666021913960400191505060405180910390fd5b809150505b92915050565b6000617b64826301ffc9a760e01b617b85565b8015617b7e5750617b7c8263ffffffff60e01b617b85565b155b9050919050565b6000806000617b948585617e1b565b91509150818015617ba25750805b9250505092915050565b60008083118290617c58576040517f08c379a00000000000000000000000000000000000000000000000000000000081526004018080602001828103825283818151815260200191508051906020019080838360005b83811015617c1d578082015181840152602081019050617c02565b50505050905090810190601f168015617c4a5780820380516001836020036101000a031916815260200191505b509250505060405180910390fd5b506000838581617c6457fe5b049050809150509392505050565b606082471015617ccd576040517f08c379a00000000000000000000000000000000000000000000000000000000081526004018080602001828103825260268152602001806181126026913960400191505060405180910390fd5b617cd685617fc3565b617d48576040517f08c379a000000000000000000000000000000000000000000000000000000000815260040180806020018281038252601d8152602001807f416464726573733a2063616c6c20746f206e6f6e2d636f6e747261637400000081525060200191505060405180910390fd5b600060608673ffffffffffffffffffffffffffffffffffffffff1685876040518082805190602001908083835b60208310617d985780518252602082019150602081019050602083039250617d75565b6001836020036101000a03801982511681845116808217855250505050505090500191505060006040518083038185875af1925050503d8060008114617dfa576040519150601f19603f3d011682016040523d82523d6000602084013e617dff565b606091505b5091509150617e0f828286617fd6565b92505050949350505050565b60008060606301ffc9a760e01b8460405160240180827bffffffffffffffffffffffffffffffffffffffffffffffffffffffff19168152602001915050604051602081830303815290604052907bffffffffffffffffffffffffffffffffffffffffffffffffffffffff19166020820180517bffffffffffffffffffffffffffffffffffffffffffffffffffffffff83818316178352505050509050600060608673ffffffffffffffffffffffffffffffffffffffff16617530846040518082805190602001908083835b60208310617f095780518252602082019150602081019050602083039250617ee6565b6001836020036101000a0380198251168184511680821785525050505050509050019150506000604051808303818686fa925050503d8060008114617f6a576040519150601f19603f3d011682016040523d82523d6000602084013e617f6f565b606091505b5091509150602081511015617f8d5760008094509450505050617fbc565b81818060200190516020811015617fa357600080fd5b8101908080519060200190929190505050945094505050505b9250929050565b600080823b905060008111915050919050565b60608315617fe65782905061809b565b600083511115617ff95782518084602001fd5b816040517f08c379a00000000000000000000000000000000000000000000000000000000081526004018080602001828103825283818151815260200191508051906020019080838360005b83811015618060578082015181840152602081019050618045565b50505050905090810190601f16801561808d5780820380516001836020036101000a031916815260200191505b509250505060405180910390fd5b939250505056fe4f776e61626c653a206e6577206f776e657220697320746865207a65726f206164647265737353616665436173743a2076616c756520646f65736e27742066697420696e2031323820626974735072697a65506f6f6c2f7265736572766552656769737472792d6e6f742d7a65726f416464726573733a20696e73756666696369656e742062616c616e636520666f722063616c6c496e697469616c697a61626c653a20636f6e747261637420697320616c726561647920696e697469616c697a6564536166654d6174683a206d756c7469706c69636174696f6e206f766572666c6f775072697a65506f6f6c2f657869742d6665652d657863656564732d757365722d6d6178696d756d53616665436173743a2076616c756520646f65736e27742066697420696e20333220626974735361666545524332303a204552433230206f7065726174696f6e20646964206e6f742073756363656564a26469706673582212209f22ab80360493321829e591498bccb4843a29bfb76566fefd71a5bd5dec09fa64736f6c634300060c0033",
  "linkReferences": {},
  "deployedLinkReferences": {}
}