{
  "contractName": "ControlledToken",
  "abi": [
    {
      "anonymous": false,
      "inputs": [
        {
          "indexed": true,
          "internalType": "address",
          "name": "owner",
          "type": "address"
        },
        {
          "indexed": true,
          "internalType": "address",
          "name": "spender",
          "type": "address"
        },
        {
          "indexed": false,
          "internalType": "uint256",
          "name": "value",
          "type": "uint256"
        }
      ],
      "name": "Approval",
      "type": "event"
    },
    {
      "anonymous": false,
      "inputs": [
        {
          "indexed": true,
          "internalType": "address",
          "name": "from",
          "type": "address"
        },
        {
          "indexed": true,
          "internalType": "address",
          "name": "to",
          "type": "address"
        },
        {
          "indexed": false,
          "internalType": "uint256",
          "name": "value",
          "type": "uint256"
        }
      ],
      "name": "Transfer",
      "type": "event"
    },
    {
      "inputs": [
        {
          "internalType": "address",
          "name": "owner",
          "type": "address"
        },
        {
          "internalType": "address",
          "name": "spender",
          "type": "address"
        }
      ],
      "name": "allowance",
      "outputs": [
        {
          "internalType": "uint256",
          "name": "",
          "type": "uint256"
        }
      ],
      "stateMutability": "view",
      "type": "function"
    },
    {
      "inputs": [
        {
          "internalType": "address",
          "name": "spender",
          "type": "address"
        },
        {
          "internalType": "uint256",
          "name": "amount",
          "type": "uint256"
        }
      ],
      "name": "approve",
      "outputs": [
        {
          "internalType": "bool",
          "name": "",
          "type": "bool"
        }
      ],
      "stateMutability": "nonpayable",
      "type": "function"
    },
    {
      "inputs": [
        {
          "internalType": "address",
          "name": "account",
          "type": "address"
        }
      ],
      "name": "balanceOf",
      "outputs": [
        {
          "internalType": "uint256",
          "name": "",
          "type": "uint256"
        }
      ],
      "stateMutability": "view",
      "type": "function"
    },
    {
      "inputs": [],
      "name": "controller",
      "outputs": [
        {
          "internalType": "contract TokenControllerInterface",
          "name": "",
          "type": "address"
        }
      ],
      "stateMutability": "view",
      "type": "function"
    },
    {
      "inputs": [],
      "name": "decimals",
      "outputs": [
        {
          "internalType": "uint8",
          "name": "",
          "type": "uint8"
        }
      ],
      "stateMutability": "view",
      "type": "function"
    },
    {
      "inputs": [
        {
          "internalType": "address",
          "name": "spender",
          "type": "address"
        },
        {
          "internalType": "uint256",
          "name": "subtractedValue",
          "type": "uint256"
        }
      ],
      "name": "decreaseAllowance",
      "outputs": [
        {
          "internalType": "bool",
          "name": "",
          "type": "bool"
        }
      ],
      "stateMutability": "nonpayable",
      "type": "function"
    },
    {
      "inputs": [
        {
          "internalType": "address",
          "name": "spender",
          "type": "address"
        },
        {
          "internalType": "uint256",
          "name": "addedValue",
          "type": "uint256"
        }
      ],
      "name": "increaseAllowance",
      "outputs": [
        {
          "internalType": "bool",
          "name": "",
          "type": "bool"
        }
      ],
      "stateMutability": "nonpayable",
      "type": "function"
    },
    {
      "inputs": [],
      "name": "name",
      "outputs": [
        {
          "internalType": "string",
          "name": "",
          "type": "string"
        }
      ],
      "stateMutability": "view",
      "type": "function"
    },
    {
      "inputs": [],
      "name": "symbol",
      "outputs": [
        {
          "internalType": "string",
          "name": "",
          "type": "string"
        }
      ],
      "stateMutability": "view",
      "type": "function"
    },
    {
      "inputs": [],
      "name": "totalSupply",
      "outputs": [
        {
          "internalType": "uint256",
          "name": "",
          "type": "uint256"
        }
      ],
      "stateMutability": "view",
      "type": "function"
    },
    {
      "inputs": [
        {
          "internalType": "address",
          "name": "recipient",
          "type": "address"
        },
        {
          "internalType": "uint256",
          "name": "amount",
          "type": "uint256"
        }
      ],
      "name": "transfer",
      "outputs": [
        {
          "internalType": "bool",
          "name": "",
          "type": "bool"
        }
      ],
      "stateMutability": "nonpayable",
      "type": "function"
    },
    {
      "inputs": [
        {
          "internalType": "address",
          "name": "sender",
          "type": "address"
        },
        {
          "internalType": "address",
          "name": "recipient",
          "type": "address"
        },
        {
          "internalType": "uint256",
          "name": "amount",
          "type": "uint256"
        }
      ],
      "name": "transferFrom",
      "outputs": [
        {
          "internalType": "bool",
          "name": "",
          "type": "bool"
        }
      ],
      "stateMutability": "nonpayable",
      "type": "function"
    },
    {
      "inputs": [
        {
          "internalType": "string",
          "name": "_name",
          "type": "string"
        },
        {
          "internalType": "string",
          "name": "_symbol",
          "type": "string"
        },
        {
          "internalType": "uint8",
          "name": "_decimals",
          "type": "uint8"
        },
        {
          "internalType": "contract TokenControllerInterface",
          "name": "_controller",
          "type": "address"
        }
      ],
      "name": "initialize",
      "outputs": [],
      "stateMutability": "nonpayable",
      "type": "function"
    },
    {
      "inputs": [
        {
          "internalType": "address",
          "name": "_user",
          "type": "address"
        },
        {
          "internalType": "uint256",
          "name": "_amount",
          "type": "uint256"
        }
      ],
      "name": "controllerMint",
      "outputs": [],
      "stateMutability": "nonpayable",
      "type": "function"
    },
    {
      "inputs": [
        {
          "internalType": "address",
          "name": "_user",
          "type": "address"
        },
        {
          "internalType": "uint256",
          "name": "_amount",
          "type": "uint256"
        }
      ],
      "name": "controllerBurn",
      "outputs": [],
      "stateMutability": "nonpayable",
      "type": "function"
    },
    {
      "inputs": [
        {
          "internalType": "address",
          "name": "_operator",
          "type": "address"
        },
        {
          "internalType": "address",
          "name": "_user",
          "type": "address"
        },
        {
          "internalType": "uint256",
          "name": "_amount",
          "type": "uint256"
        }
      ],
      "name": "controllerBurnFrom",
      "outputs": [],
      "stateMutability": "nonpayable",
      "type": "function"
    }
  ],
  "bytecode": "0x608060405234801561001057600080fd5b50611532806100206000396000f3fe608060405234801561001057600080fd5b50600436106101005760003560e01c806370a0823111610097578063a9059cbb11610066578063a9059cbb14610346578063dd62ed3e14610372578063de7ea79d146103a0578063f77c4791146104de57610100565b806370a08231146102c057806390596dd1146102e657806395d89b4114610312578063a457c2d71461031a57610100565b8063313ce567116100d3578063313ce5671461021257806339509351146102305780635d7b07581461025c578063631b5dfb1461028a57610100565b806306fdde0314610105578063095ea7b31461018257806318160ddd146101c257806323b872dd146101dc575b600080fd5b61010d610502565b6040805160208082528351818301528351919283929083019185019080838360005b8381101561014757818101518382015260200161012f565b50505050905090810190601f1680156101745780820380516001836020036101000a031916815260200191505b509250505060405180910390f35b6101ae6004803603604081101561019857600080fd5b506001600160a01b038135169060200135610598565b604080519115158252519081900360200190f35b6101ca6105b5565b60408051918252519081900360200190f35b6101ae600480360360608110156101f257600080fd5b506001600160a01b038135811691602081013590911690604001356105bb565b61021a610642565b6040805160ff9092168252519081900360200190f35b6101ae6004803603604081101561024657600080fd5b506001600160a01b03813516906020013561064b565b6102886004803603604081101561027257600080fd5b506001600160a01b038135169060200135610699565b005b610288600480360360608110156102a057600080fd5b506001600160a01b03813581169160208101359091169060400135610716565b6101ca600480360360208110156102d657600080fd5b50356001600160a01b03166107ec565b610288600480360360408110156102fc57600080fd5b506001600160a01b038135169060200135610807565b61010d610880565b6101ae6004803603604081101561033057600080fd5b506001600160a01b0381351690602001356108e1565b6101ae6004803603604081101561035c57600080fd5b506001600160a01b038135169060200135610949565b6101ca6004803603604081101561038857600080fd5b506001600160a01b038135811691602001351661095d565b610288600480360360808110156103b657600080fd5b8101906020810181356401000000008111156103d157600080fd5b8201836020820111156103e357600080fd5b8035906020019184600183028401116401000000008311171561040557600080fd5b91908080601f016020809104026020016040519081016040528093929190818152602001838380828437600092019190915250929594936020810193503591505064010000000081111561045857600080fd5b82018360208201111561046a57600080fd5b8035906020019184600183028401116401000000008311171561048c57600080fd5b91908080601f0160208091040260200160405190810160405280939291908181526020018383808284376000920191909152509295505050813560ff16925050602001356001600160a01b0316610988565b6104e6610a74565b604080516001600160a01b039092168252519081900360200190f35b60368054604080516020601f600260001961010060018816150201909516949094049384018190048102820181019092528281526060939092909183018282801561058e5780601f106105635761010080835404028352916020019161058e565b820191906000526020600020905b81548152906001019060200180831161057157829003601f168201915b5050505050905090565b60006105ac6105a5610a83565b8484610a87565b50600192915050565b60355490565b60006105c8848484610b73565b610638846105d4610a83565b61063385604051806060016040528060288152602001611425602891396001600160a01b038a16600090815260346020526040812090610612610a83565b6001600160a01b031681526020810191909152604001600020549190610cd0565b610a87565b5060019392505050565b60385460ff1690565b60006105ac610658610a83565b846106338560346000610669610a83565b6001600160a01b03908116825260208083019390935260409182016000908120918c168152925290205490610d67565b6065546001600160a01b03166106ad610a83565b6001600160a01b031614610708576040805162461bcd60e51b815260206004820152601f60248201527f436f6e74726f6c6c6564546f6b656e2f6f6e6c792d636f6e74726f6c6c657200604482015290519081900360640190fd5b6107128282610dc8565b5050565b6065546001600160a01b031661072a610a83565b6001600160a01b031614610785576040805162461bcd60e51b815260206004820152601f60248201527f436f6e74726f6c6c6564546f6b656e2f6f6e6c792d636f6e74726f6c6c657200604482015290519081900360640190fd5b816001600160a01b0316836001600160a01b0316146107dd5760006107ce8260405180606001604052806021815260200161144d602191396107c7868861095d565b9190610cd0565b90506107db838583610a87565b505b6107e78282610eba565b505050565b6001600160a01b031660009081526033602052604090205490565b6065546001600160a01b031661081b610a83565b6001600160a01b031614610876576040805162461bcd60e51b815260206004820152601f60248201527f436f6e74726f6c6c6564546f6b656e2f6f6e6c792d636f6e74726f6c6c657200604482015290519081900360640190fd5b6107128282610eba565b60378054604080516020601f600260001961010060018816150201909516949094049384018190048102820181019092528281526060939092909183018282801561058e5780601f106105635761010080835404028352916020019161058e565b60006105ac6108ee610a83565b84610633856040518060600160405280602581526020016114d86025913960346000610918610a83565b6001600160a01b03908116825260208083019390935260409182016000908120918d16815292529020549190610cd0565b60006105ac610956610a83565b8484610b73565b6001600160a01b03918216600090815260346020908152604080832093909416825291909152205490565b600054610100900460ff16806109a157506109a1610fb6565b806109af575060005460ff16155b6109ea5760405162461bcd60e51b815260040180806020018281038252602e8152602001806113f7602e913960400191505060405180910390fd5b600054610100900460ff16158015610a15576000805460ff1961ff0019909116610100171660011790555b610a1f8585610fbc565b606580547fffffffffffffffffffffffff0000000000000000000000000000000000000000166001600160a01b038416179055610a5b83611071565b8015610a6d576000805461ff00191690555b5050505050565b6065546001600160a01b031681565b3390565b6001600160a01b038316610acc5760405162461bcd60e51b81526004018080602001828103825260248152602001806114b46024913960400191505060405180910390fd5b6001600160a01b038216610b115760405162461bcd60e51b81526004018080602001828103825260228152602001806113af6022913960400191505060405180910390fd5b6001600160a01b03808416600081815260346020908152604080832094871680845294825291829020859055815185815291517f8c5be1e5ebec7d5bd14f71427d1e84f3dd0314c0f7b2291e5b200ac8c7c3b9259281900390910190a3505050565b6001600160a01b038316610bb85760405162461bcd60e51b815260040180806020018281038252602581526020018061148f6025913960400191505060405180910390fd5b6001600160a01b038216610bfd5760405162461bcd60e51b815260040180806020018281038252602381526020018061136a6023913960400191505060405180910390fd5b610c08838383611087565b610c45816040518060600160405280602681526020016113d1602691396001600160a01b0386166000908152603360205260409020549190610cd0565b6001600160a01b038085166000908152603360205260408082209390935590841681522054610c749082610d67565b6001600160a01b0380841660008181526033602090815260409182902094909455805185815290519193928716927fddf252ad1be2c89b69c2b068fc378daa952ba7f163c4a11628f55a4df523b3ef92918290030190a3505050565b60008184841115610d5f5760405162461bcd60e51b81526004018080602001828103825283818151815260200191508051906020019080838360005b83811015610d24578181015183820152602001610d0c565b50505050905090810190601f168015610d515780820380516001836020036101000a031916815260200191505b509250505060405180910390fd5b505050900390565b600082820183811015610dc1576040805162461bcd60e51b815260206004820152601b60248201527f536166654d6174683a206164646974696f6e206f766572666c6f770000000000604482015290519081900360640190fd5b9392505050565b6001600160a01b038216610e23576040805162461bcd60e51b815260206004820152601f60248201527f45524332303a206d696e7420746f20746865207a65726f206164647265737300604482015290519081900360640190fd5b610e2f60008383611087565b603554610e3c9082610d67565b6035556001600160a01b038216600090815260336020526040902054610e629082610d67565b6001600160a01b03831660008181526033602090815260408083209490945583518581529351929391927fddf252ad1be2c89b69c2b068fc378daa952ba7f163c4a11628f55a4df523b3ef9281900390910190a35050565b6001600160a01b038216610eff5760405162461bcd60e51b815260040180806020018281038252602181526020018061146e6021913960400191505060405180910390fd5b610f0b82600083611087565b610f488160405180606001604052806022815260200161138d602291396001600160a01b0385166000908152603360205260409020549190610cd0565b6001600160a01b038316600090815260336020526040902055603554610f6e908261111a565b6035556040805182815290516000916001600160a01b038516917fddf252ad1be2c89b69c2b068fc378daa952ba7f163c4a11628f55a4df523b3ef9181900360200190a35050565b303b1590565b600054610100900460ff1680610fd55750610fd5610fb6565b80610fe3575060005460ff16155b61101e5760405162461bcd60e51b815260040180806020018281038252602e8152602001806113f7602e913960400191505060405180910390fd5b600054610100900460ff16158015611049576000805460ff1961ff0019909116610100171660011790555b61105161115c565b61105b83836111fe565b80156107e7576000805461ff0019169055505050565b6038805460ff191660ff92909216919091179055565b606554604080517f7cbab1c70000000000000000000000000000000000000000000000000000000081526001600160a01b03868116600483015285811660248301526044820185905291519190921691637cbab1c791606480830192600092919082900301818387803b1580156110fd57600080fd5b505af1158015611111573d6000803e3d6000fd5b50505050505050565b6000610dc183836040518060400160405280601e81526020017f536166654d6174683a207375627472616374696f6e206f766572666c6f770000815250610cd0565b600054610100900460ff16806111755750611175610fb6565b80611183575060005460ff16155b6111be5760405162461bcd60e51b815260040180806020018281038252602e8152602001806113f7602e913960400191505060405180910390fd5b600054610100900460ff161580156111e9576000805460ff1961ff0019909116610100171660011790555b80156111fb576000805461ff00191690555b50565b600054610100900460ff16806112175750611217610fb6565b80611225575060005460ff16155b6112605760405162461bcd60e51b815260040180806020018281038252602e8152602001806113f7602e913960400191505060405180910390fd5b600054610100900460ff1615801561128b576000805460ff1961ff0019909116610100171660011790555b825161129e9060369060208601906112d6565b5081516112b29060379060208501906112d6565b506038805460ff1916601217905580156107e7576000805461ff0019169055505050565b828054600181600116156101000203166002900490600052602060002090601f016020900481019282601f1061131757805160ff1916838001178555611344565b82800160010185558215611344579182015b82811115611344578251825591602001919060010190611329565b50611350929150611354565b5090565b5b80821115611350576000815560010161135556fe45524332303a207472616e7366657220746f20746865207a65726f206164647265737345524332303a206275726e20616d6f756e7420657863656564732062616c616e636545524332303a20617070726f766520746f20746865207a65726f206164647265737345524332303a207472616e7366657220616d6f756e7420657863656564732062616c616e6365496e697469616c697a61626c653a20636f6e747261637420697320616c726561647920696e697469616c697a656445524332303a207472616e7366657220616d6f756e74206578636565647320616c6c6f77616e6365436f6e74726f6c6c6564546f6b656e2f657863656564732d616c6c6f77616e636545524332303a206275726e2066726f6d20746865207a65726f206164647265737345524332303a207472616e736665722066726f6d20746865207a65726f206164647265737345524332303a20617070726f76652066726f6d20746865207a65726f206164647265737345524332303a2064656372656173656420616c6c6f77616e63652062656c6f77207a65726fa2646970667358221220c04a1a308298cfde410037b04958b954c93d8a7634d7547aaa4514a0023558d564736f6c634300060c0033",
  "source": "// SPDX-License-Identifier: GPL-3.0\n\npragma solidity >=0.6.0 <0.7.0;\n\nimport \"@openzeppelin/contracts-upgradeable/token/ERC20/ERC20Upgradeable.sol\";\n\nimport \"./TokenControllerInterface.sol\";\nimport \"./ControlledTokenInterface.sol\";\n\n/// @title Controlled ERC20 Token\n/// @notice ERC20 Tokens with a controller for minting & burning\ncontract ControlledToken is ERC20Upgradeable, ControlledTokenInterface {\n\n  /// @notice Interface to the contract responsible for controlling mint/burn\n  TokenControllerInterface public override controller;\n\n  /// @notice Initializes the Controlled Token with Token Details and the Controller\n  /// @param _name The name of the Token\n  /// @param _symbol The symbol for the Token\n  /// @param _decimals The number of decimals for the Token\n  /// @param _controller Address of the Controller contract for minting & burning\n  function initialize(\n    string memory _name,\n    string memory _symbol,\n    uint8 _decimals,\n    TokenControllerInterface _controller\n  )\n    public\n    virtual\n    initializer\n  {\n    __ERC20_init(_name, _symbol);\n    controller = _controller;\n    _setupDecimals(_decimals);\n  }\n\n  /// @notice Allows the controller to mint tokens for a user account\n  /// @dev May be overridden to provide more granular control over minting\n  /// @param _user Address of the receiver of the minted tokens\n  /// @param _amount Amount of tokens to mint\n  function controllerMint(address _user, uint256 _amount) external virtual override onlyController {\n    _mint(_user, _amount);\n  }\n\n  /// @notice Allows the controller to burn tokens from a user account\n  /// @dev May be overridden to provide more granular control over burning\n  /// @param _user Address of the holder account to burn tokens from\n  /// @param _amount Amount of tokens to burn\n  function controllerBurn(address _user, uint256 _amount) external virtual override onlyController {\n    _burn(_user, _amount);\n  }\n\n  /// @notice Allows an operator via the controller to burn tokens on behalf of a user account\n  /// @dev May be overridden to provide more granular control over operator-burning\n  /// @param _operator Address of the operator performing the burn action via the controller contract\n  /// @param _user Address of the holder account to burn tokens from\n  /// @param _amount Amount of tokens to burn\n  function controllerBurnFrom(address _operator, address _user, uint256 _amount) external virtual override onlyController {\n    if (_operator != _user) {\n      uint256 decreasedAllowance = allowance(_user, _operator).sub(_amount, \"ControlledToken/exceeds-allowance\");\n      _approve(_user, _operator, decreasedAllowance);\n    }\n    _burn(_user, _amount);\n  }\n\n  /// @dev Function modifier to ensure that the caller is the controller contract\n  modifier onlyController {\n    require(_msgSender() == address(controller), \"ControlledToken/only-controller\");\n    _;\n  }\n\n  /// @dev Controller hook to provide notifications & rule validations on token transfers to the controller.\n  /// This includes minting and burning.\n  /// May be overridden to provide more granular control over operator-burning\n  /// @param from Address of the account sending the tokens (address(0x0) on minting)\n  /// @param to Address of the account receiving the tokens (address(0x0) on burning)\n  /// @param amount Amount of tokens being transferred\n  function _beforeTokenTransfer(address from, address to, uint256 amount) internal virtual override {\n    controller.beforeTokenTransfer(from, to, amount);\n  }\n}\n",
  "sourcePath": "/Users/stelyangeorgiev/Documents/Coding/BarnBridge/pooltogether-pool-contracts/contracts/token/ControlledToken.sol",
  "compiler": {
    "name": "solc",
    "version": "0.6.12+commit.27d51765.Emscripten.clang",
    "optimizer": true,
    "runs": 999
  },
  "schemaVersion": "2.3.3",
  "updatedAt": "2021-01-22T15:28:42.553Z"
}