{
  "contractName": "StakePrizePool",
  "abi": [
    {
      "anonymous": false,
      "inputs": [
        {
          "indexed": false,
          "internalType": "uint256",
          "name": "amount",
          "type": "uint256"
        }
      ],
      "name": "AwardCaptured",
      "type": "event"
    },
    {
      "anonymous": false,
      "inputs": [
        {
          "indexed": true,
          "internalType": "address",
          "name": "winner",
          "type": "address"
        },
        {
          "indexed": true,
          "internalType": "address",
          "name": "token",
          "type": "address"
        },
        {
          "indexed": false,
          "internalType": "uint256",
          "name": "amount",
          "type": "uint256"
        }
      ],
      "name": "Awarded",
      "type": "event"
    },
    {
      "anonymous": false,
      "inputs": [
        {
          "indexed": true,
          "internalType": "address",
          "name": "winner",
          "type": "address"
        },
        {
          "indexed": true,
          "internalType": "address",
          "name": "token",
          "type": "address"
        },
        {
          "indexed": false,
          "internalType": "uint256",
          "name": "amount",
          "type": "uint256"
        }
      ],
      "name": "AwardedExternalERC20",
      "type": "event"
    },
    {
      "anonymous": false,
      "inputs": [
        {
          "indexed": true,
          "internalType": "address",
          "name": "winner",
          "type": "address"
        },
        {
          "indexed": true,
          "internalType": "address",
          "name": "token",
          "type": "address"
        },
        {
          "indexed": false,
          "internalType": "uint256[]",
          "name": "tokenIds",
          "type": "uint256[]"
        }
      ],
      "name": "AwardedExternalERC721",
      "type": "event"
    },
    {
      "anonymous": false,
      "inputs": [
        {
          "indexed": true,
          "internalType": "contract ControlledTokenInterface",
          "name": "token",
          "type": "address"
        }
      ],
      "name": "ControlledTokenAdded",
      "type": "event"
    },
    {
      "anonymous": false,
      "inputs": [
        {
          "indexed": true,
          "internalType": "address",
          "name": "user",
          "type": "address"
        },
        {
          "indexed": true,
          "internalType": "address",
          "name": "token",
          "type": "address"
        },
        {
          "indexed": false,
          "internalType": "uint256",
          "name": "amount",
          "type": "uint256"
        }
      ],
      "name": "CreditBurned",
      "type": "event"
    },
    {
      "anonymous": false,
      "inputs": [
        {
          "indexed": true,
          "internalType": "address",
          "name": "user",
          "type": "address"
        },
        {
          "indexed": true,
          "internalType": "address",
          "name": "token",
          "type": "address"
        },
        {
          "indexed": false,
          "internalType": "uint256",
          "name": "amount",
          "type": "uint256"
        }
      ],
      "name": "CreditMinted",
      "type": "event"
    },
    {
      "anonymous": false,
      "inputs": [
        {
          "indexed": false,
          "internalType": "address",
          "name": "token",
          "type": "address"
        },
        {
          "indexed": false,
          "internalType": "uint128",
          "name": "creditLimitMantissa",
          "type": "uint128"
        },
        {
          "indexed": false,
          "internalType": "uint128",
          "name": "creditRateMantissa",
          "type": "uint128"
        }
      ],
      "name": "CreditPlanSet",
      "type": "event"
    },
    {
      "anonymous": false,
      "inputs": [
        {
          "indexed": true,
          "internalType": "address",
          "name": "operator",
          "type": "address"
        },
        {
          "indexed": true,
          "internalType": "address",
          "name": "to",
          "type": "address"
        },
        {
          "indexed": true,
          "internalType": "address",
          "name": "token",
          "type": "address"
        },
        {
          "indexed": false,
          "internalType": "uint256",
          "name": "amount",
          "type": "uint256"
        },
        {
          "indexed": false,
          "internalType": "address",
          "name": "referrer",
          "type": "address"
        }
      ],
      "name": "Deposited",
      "type": "event"
    },
    {
      "anonymous": false,
      "inputs": [
        {
          "indexed": false,
          "internalType": "address",
          "name": "reserveRegistry",
          "type": "address"
        },
        {
          "indexed": false,
          "internalType": "uint256",
          "name": "maxExitFeeMantissa",
          "type": "uint256"
        },
        {
          "indexed": false,
          "internalType": "uint256",
          "name": "maxTimelockDuration",
          "type": "uint256"
        }
      ],
      "name": "Initialized",
      "type": "event"
    },
    {
      "anonymous": false,
      "inputs": [
        {
          "indexed": true,
          "internalType": "address",
          "name": "operator",
          "type": "address"
        },
        {
          "indexed": true,
          "internalType": "address",
          "name": "from",
          "type": "address"
        },
        {
          "indexed": true,
          "internalType": "address",
          "name": "token",
          "type": "address"
        },
        {
          "indexed": false,
          "internalType": "uint256",
          "name": "amount",
          "type": "uint256"
        },
        {
          "indexed": false,
          "internalType": "uint256",
          "name": "redeemed",
          "type": "uint256"
        },
        {
          "indexed": false,
          "internalType": "uint256",
          "name": "exitFee",
          "type": "uint256"
        }
      ],
      "name": "InstantWithdrawal",
      "type": "event"
    },
    {
      "anonymous": false,
      "inputs": [
        {
          "indexed": false,
          "internalType": "uint256",
          "name": "liquidityCap",
          "type": "uint256"
        }
      ],
      "name": "LiquidityCapSet",
      "type": "event"
    },
    {
      "anonymous": false,
      "inputs": [
        {
          "indexed": true,
          "internalType": "address",
          "name": "previousOwner",
          "type": "address"
        },
        {
          "indexed": true,
          "internalType": "address",
          "name": "newOwner",
          "type": "address"
        }
      ],
      "name": "OwnershipTransferred",
      "type": "event"
    },
    {
      "anonymous": false,
      "inputs": [
        {
          "indexed": true,
          "internalType": "address",
          "name": "prizeStrategy",
          "type": "address"
        }
      ],
      "name": "PrizeStrategySet",
      "type": "event"
    },
    {
      "anonymous": false,
      "inputs": [
        {
          "indexed": false,
          "internalType": "uint256",
          "name": "amount",
          "type": "uint256"
        }
      ],
      "name": "ReserveFeeCaptured",
      "type": "event"
    },
    {
      "anonymous": false,
      "inputs": [
        {
          "indexed": true,
          "internalType": "address",
          "name": "to",
          "type": "address"
        },
        {
          "indexed": false,
          "internalType": "uint256",
          "name": "amount",
          "type": "uint256"
        }
      ],
      "name": "ReserveWithdrawal",
      "type": "event"
    },
    {
      "anonymous": false,
      "inputs": [
        {
          "indexed": true,
          "internalType": "address",
          "name": "stakeToken",
          "type": "address"
        }
      ],
      "name": "StakePrizePoolInitialized",
      "type": "event"
    },
    {
      "anonymous": false,
      "inputs": [
        {
          "indexed": true,
          "internalType": "address",
          "name": "operator",
          "type": "address"
        },
        {
          "indexed": true,
          "internalType": "address",
          "name": "to",
          "type": "address"
        },
        {
          "indexed": true,
          "internalType": "address",
          "name": "token",
          "type": "address"
        },
        {
          "indexed": false,
          "internalType": "uint256",
          "name": "amount",
          "type": "uint256"
        }
      ],
      "name": "TimelockDeposited",
      "type": "event"
    },
    {
      "anonymous": false,
      "inputs": [
        {
          "indexed": true,
          "internalType": "address",
          "name": "operator",
          "type": "address"
        },
        {
          "indexed": true,
          "internalType": "address",
          "name": "from",
          "type": "address"
        },
        {
          "indexed": true,
          "internalType": "address",
          "name": "token",
          "type": "address"
        },
        {
          "indexed": false,
          "internalType": "uint256",
          "name": "amount",
          "type": "uint256"
        },
        {
          "indexed": false,
          "internalType": "uint256",
          "name": "unlockTimestamp",
          "type": "uint256"
        }
      ],
      "name": "TimelockedWithdrawal",
      "type": "event"
    },
    {
      "anonymous": false,
      "inputs": [
        {
          "indexed": true,
          "internalType": "address",
          "name": "operator",
          "type": "address"
        },
        {
          "indexed": true,
          "internalType": "address",
          "name": "from",
          "type": "address"
        },
        {
          "indexed": false,
          "internalType": "uint256",
          "name": "amount",
          "type": "uint256"
        },
        {
          "indexed": false,
          "internalType": "uint256",
          "name": "redeemed",
          "type": "uint256"
        }
      ],
      "name": "TimelockedWithdrawalSwept",
      "type": "event"
    },
    {
      "anonymous": false,
      "inputs": [
        {
          "indexed": true,
          "internalType": "address",
          "name": "to",
          "type": "address"
        },
        {
          "indexed": true,
          "internalType": "address",
          "name": "token",
          "type": "address"
        },
        {
          "indexed": false,
          "internalType": "uint256",
          "name": "amount",
          "type": "uint256"
        }
      ],
      "name": "TransferredExternalERC20",
      "type": "event"
    },
    {
      "inputs": [],
      "name": "accountedBalance",
      "outputs": [
        {
          "internalType": "uint256",
          "name": "",
          "type": "uint256"
        }
      ],
      "stateMutability": "view",
      "type": "function"
    },
    {
      "inputs": [
        {
          "internalType": "contract ControlledTokenInterface",
          "name": "_controlledToken",
          "type": "address"
        }
      ],
      "name": "addControlledToken",
      "outputs": [],
      "stateMutability": "nonpayable",
      "type": "function"
    },
    {
      "inputs": [
        {
          "internalType": "address",
          "name": "to",
          "type": "address"
        },
        {
          "internalType": "uint256",
          "name": "amount",
          "type": "uint256"
        },
        {
          "internalType": "address",
          "name": "controlledToken",
          "type": "address"
        }
      ],
      "name": "award",
      "outputs": [],
      "stateMutability": "nonpayable",
      "type": "function"
    },
    {
      "inputs": [],
      "name": "awardBalance",
      "outputs": [
        {
          "internalType": "uint256",
          "name": "",
          "type": "uint256"
        }
      ],
      "stateMutability": "view",
      "type": "function"
    },
    {
      "inputs": [
        {
          "internalType": "address",
          "name": "to",
          "type": "address"
        },
        {
          "internalType": "address",
          "name": "externalToken",
          "type": "address"
        },
        {
          "internalType": "uint256",
          "name": "amount",
          "type": "uint256"
        }
      ],
      "name": "awardExternalERC20",
      "outputs": [],
      "stateMutability": "nonpayable",
      "type": "function"
    },
    {
      "inputs": [
        {
          "internalType": "address",
          "name": "to",
          "type": "address"
        },
        {
          "internalType": "address",
          "name": "externalToken",
          "type": "address"
        },
        {
          "internalType": "uint256[]",
          "name": "tokenIds",
          "type": "uint256[]"
        }
      ],
      "name": "awardExternalERC721",
      "outputs": [],
      "stateMutability": "nonpayable",
      "type": "function"
    },
    {
      "inputs": [],
      "name": "balance",
      "outputs": [
        {
          "internalType": "uint256",
          "name": "",
          "type": "uint256"
        }
      ],
      "stateMutability": "nonpayable",
      "type": "function"
    },
    {
      "inputs": [
        {
          "internalType": "address",
          "name": "user",
          "type": "address"
        },
        {
          "internalType": "address",
          "name": "controlledToken",
          "type": "address"
        }
      ],
      "name": "balanceOfCredit",
      "outputs": [
        {
          "internalType": "uint256",
          "name": "",
          "type": "uint256"
        }
      ],
      "stateMutability": "nonpayable",
      "type": "function"
    },
    {
      "inputs": [
        {
          "internalType": "address",
          "name": "from",
          "type": "address"
        },
        {
          "internalType": "address",
          "name": "to",
          "type": "address"
        },
        {
          "internalType": "uint256",
          "name": "amount",
          "type": "uint256"
        }
      ],
      "name": "beforeTokenTransfer",
      "outputs": [],
      "stateMutability": "nonpayable",
      "type": "function"
    },
    {
      "inputs": [
        {
          "internalType": "address",
          "name": "from",
          "type": "address"
        },
        {
          "internalType": "address",
          "name": "controlledToken",
          "type": "address"
        },
        {
          "internalType": "uint256",
          "name": "amount",
          "type": "uint256"
        }
      ],
      "name": "calculateEarlyExitFee",
      "outputs": [
        {
          "internalType": "uint256",
          "name": "exitFee",
          "type": "uint256"
        },
        {
          "internalType": "uint256",
          "name": "burnedCredit",
          "type": "uint256"
        }
      ],
      "stateMutability": "nonpayable",
      "type": "function"
    },
    {
      "inputs": [
        {
          "internalType": "uint256",
          "name": "amount",
          "type": "uint256"
        }
      ],
      "name": "calculateReserveFee",
      "outputs": [
        {
          "internalType": "uint256",
          "name": "",
          "type": "uint256"
        }
      ],
      "stateMutability": "view",
      "type": "function"
    },
    {
      "inputs": [
        {
          "internalType": "address",
          "name": "from",
          "type": "address"
        },
        {
          "internalType": "address",
          "name": "controlledToken",
          "type": "address"
        },
        {
          "internalType": "uint256",
          "name": "amount",
          "type": "uint256"
        }
      ],
      "name": "calculateTimelockDuration",
      "outputs": [
        {
          "internalType": "uint256",
          "name": "durationSeconds",
          "type": "uint256"
        },
        {
          "internalType": "uint256",
          "name": "burnedCredit",
          "type": "uint256"
        }
      ],
      "stateMutability": "nonpayable",
      "type": "function"
    },
    {
      "inputs": [
        {
          "internalType": "address",
          "name": "_externalToken",
          "type": "address"
        }
      ],
      "name": "canAwardExternal",
      "outputs": [
        {
          "internalType": "bool",
          "name": "",
          "type": "bool"
        }
      ],
      "stateMutability": "view",
      "type": "function"
    },
    {
      "inputs": [],
      "name": "captureAwardBalance",
      "outputs": [
        {
          "internalType": "uint256",
          "name": "",
          "type": "uint256"
        }
      ],
      "stateMutability": "nonpayable",
      "type": "function"
    },
    {
      "inputs": [
        {
          "internalType": "address",
          "name": "controlledToken",
          "type": "address"
        }
      ],
      "name": "creditPlanOf",
      "outputs": [
        {
          "internalType": "uint128",
          "name": "creditLimitMantissa",
          "type": "uint128"
        },
        {
          "internalType": "uint128",
          "name": "creditRateMantissa",
          "type": "uint128"
        }
      ],
      "stateMutability": "view",
      "type": "function"
    },
    {
      "inputs": [
        {
          "internalType": "address",
          "name": "to",
          "type": "address"
        },
        {
          "internalType": "uint256",
          "name": "amount",
          "type": "uint256"
        },
        {
          "internalType": "address",
          "name": "controlledToken",
          "type": "address"
        },
        {
          "internalType": "address",
          "name": "referrer",
          "type": "address"
        }
      ],
      "name": "depositTo",
      "outputs": [],
      "stateMutability": "nonpayable",
      "type": "function"
    },
    {
      "inputs": [
        {
          "internalType": "address",
          "name": "_controlledToken",
          "type": "address"
        },
        {
          "internalType": "uint256",
          "name": "_principal",
          "type": "uint256"
        },
        {
          "internalType": "uint256",
          "name": "_interest",
          "type": "uint256"
        }
      ],
      "name": "estimateCreditAccrualTime",
      "outputs": [
        {
          "internalType": "uint256",
          "name": "durationSeconds",
          "type": "uint256"
        }
      ],
      "stateMutability": "view",
      "type": "function"
    },
    {
      "inputs": [],
      "name": "liquidityCap",
      "outputs": [
        {
          "internalType": "uint256",
          "name": "",
          "type": "uint256"
        }
      ],
      "stateMutability": "view",
      "type": "function"
    },
    {
      "inputs": [],
      "name": "maxExitFeeMantissa",
      "outputs": [
        {
          "internalType": "uint256",
          "name": "",
          "type": "uint256"
        }
      ],
      "stateMutability": "view",
      "type": "function"
    },
    {
      "inputs": [],
      "name": "maxTimelockDuration",
      "outputs": [
        {
          "internalType": "uint256",
          "name": "",
          "type": "uint256"
        }
      ],
      "stateMutability": "view",
      "type": "function"
    },
    {
      "inputs": [],
      "name": "owner",
      "outputs": [
        {
          "internalType": "address",
          "name": "",
          "type": "address"
        }
      ],
      "stateMutability": "view",
      "type": "function"
    },
    {
      "inputs": [],
      "name": "prizeStrategy",
      "outputs": [
        {
          "internalType": "contract TokenListenerInterface",
          "name": "",
          "type": "address"
        }
      ],
      "stateMutability": "view",
      "type": "function"
    },
    {
      "inputs": [],
      "name": "renounceOwnership",
      "outputs": [],
      "stateMutability": "nonpayable",
      "type": "function"
    },
    {
      "inputs": [],
      "name": "reserveRegistry",
      "outputs": [
        {
          "internalType": "contract RegistryInterface",
          "name": "",
          "type": "address"
        }
      ],
      "stateMutability": "view",
      "type": "function"
    },
    {
      "inputs": [],
      "name": "reserveTotalSupply",
      "outputs": [
        {
          "internalType": "uint256",
          "name": "",
          "type": "uint256"
        }
      ],
      "stateMutability": "view",
      "type": "function"
    },
    {
      "inputs": [
        {
          "internalType": "address",
          "name": "_controlledToken",
          "type": "address"
        },
        {
          "internalType": "uint128",
          "name": "_creditRateMantissa",
          "type": "uint128"
        },
        {
          "internalType": "uint128",
          "name": "_creditLimitMantissa",
          "type": "uint128"
        }
      ],
      "name": "setCreditPlanOf",
      "outputs": [],
      "stateMutability": "nonpayable",
      "type": "function"
    },
    {
      "inputs": [
        {
          "internalType": "uint256",
          "name": "_liquidityCap",
          "type": "uint256"
        }
      ],
      "name": "setLiquidityCap",
      "outputs": [],
      "stateMutability": "nonpayable",
      "type": "function"
    },
    {
      "inputs": [
        {
          "internalType": "contract TokenListenerInterface",
          "name": "_prizeStrategy",
          "type": "address"
        }
      ],
      "name": "setPrizeStrategy",
      "outputs": [],
      "stateMutability": "nonpayable",
      "type": "function"
    },
    {
      "inputs": [
        {
          "internalType": "address[]",
          "name": "users",
          "type": "address[]"
        }
      ],
      "name": "sweepTimelockBalances",
      "outputs": [
        {
          "internalType": "uint256",
          "name": "",
          "type": "uint256"
        }
      ],
      "stateMutability": "nonpayable",
      "type": "function"
    },
    {
      "inputs": [
        {
          "internalType": "address",
          "name": "user",
          "type": "address"
        }
      ],
      "name": "timelockBalanceAvailableAt",
      "outputs": [
        {
          "internalType": "uint256",
          "name": "",
          "type": "uint256"
        }
      ],
      "stateMutability": "view",
      "type": "function"
    },
    {
      "inputs": [
        {
          "internalType": "address",
          "name": "user",
          "type": "address"
        }
      ],
      "name": "timelockBalanceOf",
      "outputs": [
        {
          "internalType": "uint256",
          "name": "",
          "type": "uint256"
        }
      ],
      "stateMutability": "view",
      "type": "function"
    },
    {
      "inputs": [
        {
          "internalType": "address",
          "name": "to",
          "type": "address"
        },
        {
          "internalType": "uint256",
          "name": "amount",
          "type": "uint256"
        },
        {
          "internalType": "address",
          "name": "controlledToken",
          "type": "address"
        }
      ],
      "name": "timelockDepositTo",
      "outputs": [],
      "stateMutability": "nonpayable",
      "type": "function"
    },
    {
      "inputs": [],
      "name": "timelockTotalSupply",
      "outputs": [
        {
          "internalType": "uint256",
          "name": "",
          "type": "uint256"
        }
      ],
      "stateMutability": "view",
      "type": "function"
    },
    {
      "inputs": [],
      "name": "token",
      "outputs": [
        {
          "internalType": "address",
          "name": "",
          "type": "address"
        }
      ],
      "stateMutability": "view",
      "type": "function"
    },
    {
      "inputs": [],
      "name": "tokens",
      "outputs": [
        {
          "internalType": "address[]",
          "name": "",
          "type": "address[]"
        }
      ],
      "stateMutability": "view",
      "type": "function"
    },
    {
      "inputs": [
        {
          "internalType": "address",
          "name": "to",
          "type": "address"
        },
        {
          "internalType": "address",
          "name": "externalToken",
          "type": "address"
        },
        {
          "internalType": "uint256",
          "name": "amount",
          "type": "uint256"
        }
      ],
      "name": "transferExternalERC20",
      "outputs": [],
      "stateMutability": "nonpayable",
      "type": "function"
    },
    {
      "inputs": [
        {
          "internalType": "address",
          "name": "newOwner",
          "type": "address"
        }
      ],
      "name": "transferOwnership",
      "outputs": [],
      "stateMutability": "nonpayable",
      "type": "function"
    },
    {
      "inputs": [
        {
          "internalType": "address",
          "name": "from",
          "type": "address"
        },
        {
          "internalType": "uint256",
          "name": "amount",
          "type": "uint256"
        },
        {
          "internalType": "address",
          "name": "controlledToken",
          "type": "address"
        },
        {
          "internalType": "uint256",
          "name": "maximumExitFee",
          "type": "uint256"
        }
      ],
      "name": "withdrawInstantlyFrom",
      "outputs": [
        {
          "internalType": "uint256",
          "name": "",
          "type": "uint256"
        }
      ],
      "stateMutability": "nonpayable",
      "type": "function"
    },
    {
      "inputs": [
        {
          "internalType": "address",
          "name": "to",
          "type": "address"
        }
      ],
      "name": "withdrawReserve",
      "outputs": [
        {
          "internalType": "uint256",
          "name": "",
          "type": "uint256"
        }
      ],
      "stateMutability": "nonpayable",
      "type": "function"
    },
    {
      "inputs": [
        {
          "internalType": "address",
          "name": "from",
          "type": "address"
        },
        {
          "internalType": "uint256",
          "name": "amount",
          "type": "uint256"
        },
        {
          "internalType": "address",
          "name": "controlledToken",
          "type": "address"
        }
      ],
      "name": "withdrawWithTimelockFrom",
      "outputs": [
        {
          "internalType": "uint256",
          "name": "",
          "type": "uint256"
        }
      ],
      "stateMutability": "nonpayable",
      "type": "function"
    },
    {
      "inputs": [
        {
          "internalType": "contract RegistryInterface",
          "name": "_reserveRegistry",
          "type": "address"
        },
        {
          "internalType": "contract ControlledTokenInterface[]",
          "name": "_controlledTokens",
          "type": "address[]"
        },
        {
          "internalType": "uint256",
          "name": "_maxExitFeeMantissa",
          "type": "uint256"
        },
        {
          "internalType": "uint256",
          "name": "_maxTimelockDuration",
          "type": "uint256"
        }
      ],
      "name": "initialize",
      "outputs": [],
      "stateMutability": "nonpayable",
      "type": "function"
    },
    {
      "inputs": [
        {
          "internalType": "contract RegistryInterface",
          "name": "_reserveRegistry",
          "type": "address"
        },
        {
          "internalType": "contract ControlledTokenInterface[]",
          "name": "_controlledTokens",
          "type": "address[]"
        },
        {
          "internalType": "uint256",
          "name": "_maxExitFeeMantissa",
          "type": "uint256"
        },
        {
          "internalType": "uint256",
          "name": "_maxTimelockDuration",
          "type": "uint256"
        },
        {
          "internalType": "contract IERC20Upgradeable",
          "name": "_stakeToken",
          "type": "address"
        }
      ],
      "name": "initialize",
      "outputs": [],
      "stateMutability": "nonpayable",
      "type": "function"
    }
  ],
  "bytecode": "0x608060405234801561001057600080fd5b5061499a806100206000396000f3fe608060405234801561001057600080fd5b50600436106102de5760003560e01c80638f03daef11610186578063abca6e71116100e3578063e323f82511610097578063f2fde38b11610071578063f2fde38b14610aa6578063f69bd42814610acc578063fc0c546a14610ad4576102de565b8063e323f82514610a5a578063e6d8a94b14610a96578063edb4e1cf14610a9e576102de565b8063b69ef8a8116100c8578063b69ef8a8146109f5578063d4a1361d146109fd578063db92f7f014610a52576102de565b8063abca6e7114610989578063b3a7b78a146109bf576102de565b80639d63848a1161013a5780639fe32a911161011f5780639fe32a91146108f5578063a016240b14610912578063a7b2cc311461094c576102de565b80639d63848a146108955780639e167519146108ed576102de565b8063941d505d1161016b578063941d505d1461083157806394d43e141461085757806398bf3eb61461088d576102de565b80638f03daef146107e557806391ca480e1461080b576102de565b80636a3fd4f91161023f5780637b99adb1116101f3578063897e3432116101cd578063897e3432146106f25780638da5cb5b146107b95780638e71c1f6146107dd576102de565b80637b99adb1146106505780637cbab1c71461066d578063888c2b6f146106a3576102de565b8063715018a611610224578063715018a61461060e57806376687d3d1461061657806379cb85631461061e576102de565b80636a3fd4f91461059e5780636b1b863a146105d8576102de565b80633e7580a91161029657806352a387ab1161027b57806352a387ab1461054a578063630665b4146105705780636968f8b314610578576102de565b80633e7580a9146104ac578063494de9f71461051c576102de565b806313f55e39116102c757806313f55e39146103b757806316960d55146103ed5780632b0ab14414610476576102de565b80630881cffb146102e35780630937eb541461039d575b600080fd5b61039b600480360360808110156102f957600080fd5b6001600160a01b03823516919081019060408101602082013564010000000081111561032457600080fd5b82018360208201111561033657600080fd5b8035906020019184602083028401116401000000008311171561035857600080fd5b9190808060200260200160405190810160405280939291908181526020018383602002808284376000920191909152509295505082359350505060200135610adc565b005b6103a5610c85565b60408051918252519081900360200190f35b61039b600480360360608110156103cd57600080fd5b506001600160a01b03813581169160208101359091169060400135610c94565b61039b6004803603606081101561040357600080fd5b6001600160a01b03823581169260208101359091169181019060608101604082013564010000000081111561043757600080fd5b82018360208201111561044957600080fd5b8035906020019184602083028401116401000000008311171561046b57600080fd5b509092509050610d64565b61039b6004803603606081101561048c57600080fd5b506001600160a01b03813581169160208101359091169060400135610f5f565b6103a5600480360360208110156104c257600080fd5b8101906020810181356401000000008111156104dd57600080fd5b8201836020820111156104ef57600080fd5b8035906020019184602083028401116401000000008311171561051157600080fd5b50909250905061102e565b6103a56004803603604081101561053257600080fd5b506001600160a01b03813581169160200135166110d2565b6103a56004803603602081101561056057600080fd5b50356001600160a01b03166111e5565b6103a561133b565b6103a56004803603602081101561058e57600080fd5b50356001600160a01b0316611341565b6105c4600480360360208110156105b457600080fd5b50356001600160a01b0316611360565b604080519115158252519081900360200190f35b61039b600480360360608110156105ee57600080fd5b506001600160a01b03813581169160208101359160409091013516611371565b61039b611597565b6103a561164b565b6103a56004803603606081101561063457600080fd5b506001600160a01b038135169060208101359060400135611651565b61039b6004803603602081101561066657600080fd5b5035611668565b61039b6004803603606081101561068357600080fd5b506001600160a01b038135811691602081013590911690604001356116de565b6106d9600480360360608110156106b957600080fd5b506001600160a01b0381358116916020810135909116906040013561194f565b6040805192835260208301919091528051918290030190f35b61039b600480360360a081101561070857600080fd5b6001600160a01b03823516919081019060408101602082013564010000000081111561073357600080fd5b82018360208201111561074557600080fd5b8035906020019184602083028401116401000000008311171561076757600080fd5b91908080602002602001604051908101604052809392919081815260200183836020028082843760009201919091525092955050823593505050602081013590604001356001600160a01b0316611969565b6107c1611a69565b604080516001600160a01b039092168252519081900360200190f35b6107c1611a78565b6103a5600480360360208110156107fb57600080fd5b50356001600160a01b0316611a87565b61039b6004803603602081101561082157600080fd5b50356001600160a01b0316611aa2565b61039b6004803603602081101561084757600080fd5b50356001600160a01b0316611b15565b61039b6004803603606081101561086d57600080fd5b506001600160a01b03813581169160208101359160409091013516611b88565b6107c1611d4e565b61089d611d5d565b60408051602080825283518183015283519192839290830191858101910280838360005b838110156108d95781810151838201526020016108c1565b505050509050019250505060405180910390f35b6103a5611d69565b6103a56004803603602081101561090b57600080fd5b5035611d6f565b6103a56004803603608081101561092857600080fd5b506001600160a01b0381358116916020810135916040820135169060600135611ea5565b61039b6004803603606081101561096257600080fd5b506001600160a01b03813516906001600160801b03602082013581169160400135166120e8565b6106d96004803603606081101561099f57600080fd5b506001600160a01b03813581169160208101359091169060400135612252565b6103a5600480360360608110156109d557600080fd5b506001600160a01b03813581169160208101359160409091013516612260565b6103a5612453565b610a2360048036036020811015610a1357600080fd5b50356001600160a01b031661245d565b60405180836001600160801b03168152602001826001600160801b031681526020019250505060405180910390f35b6103a561248d565b61039b60048036036080811015610a7057600080fd5b506001600160a01b03813581169160208101359160408201358116916060013516612493565b6103a5612654565b6103a56127ca565b61039b60048036036020811015610abc57600080fd5b50356001600160a01b03166127d0565b6103a56128db565b6107c16128e1565b600054610100900460ff1680610af55750610af56128eb565b80610b03575060005460ff16155b610b3e5760405162461bcd60e51b815260040180806020018281038252602e81526020018061489f602e913960400191505060405180910390fd5b600054610100900460ff16158015610b69576000805460ff1961ff0019909116610100171660011790555b6001600160a01b038516610bae5760405162461bcd60e51b81526004018080602001828103825260228152602001806148576022913960400191505060405180910390fd5b610bb860986128f1565b60005b8451811015610be857610be0858281518110610bd357fe5b602002602001015161296a565b600101610bbb565b50610bf1612a76565b610bf9612b27565b610c04600019612bbc565b609780546001600160a01b0387166001600160a01b03199091168117909155609b849055609c8390556040805191825260208201859052818101849052517f0f91882b50d9330af0b1d4998e6af7f2eaee90ce7e77ea54fea089af166d021d9181900360600190a18015610c7e576000805461ff00191690555b5050505050565b6000610c8f612bf7565b905090565b609a546001600160a01b0316610ca8612ce3565b6001600160a01b031614610d03576040805162461bcd60e51b815260206004820152601c60248201527f5072697a65506f6f6c2f6f6e6c792d7072697a65537472617465677900000000604482015290519081900360640190fd5b610d0e838383612ce7565b15610d5f57816001600160a01b0316836001600160a01b03167fb0bac59718cd343c80a813518afcf36846cfcfe6d56e2b3cab9bd49f5f9b251c836040518082815260200191505060405180910390a35b505050565b609a546001600160a01b0316610d78612ce3565b6001600160a01b031614610dd3576040805162461bcd60e51b815260206004820152601c60248201527f5072697a65506f6f6c2f6f6e6c792d7072697a65537472617465677900000000604482015290519081900360640190fd5b610ddc83612d6e565b610e2d576040805162461bcd60e51b815260206004820181905260248201527f5072697a65506f6f6c2f696e76616c69642d65787465726e616c2d746f6b656e604482015290519081900360640190fd5b80610e3757610f59565b60005b81811015610ee057836001600160a01b03166323b872dd3087868686818110610e5f57fe5b905060200201356040518463ffffffff1660e01b815260040180846001600160a01b03168152602001836001600160a01b031681526020018281526020019350505050600060405180830381600087803b158015610ebc57600080fd5b505af1158015610ed0573d6000803e3d6000fd5b505060019092019150610e3a9050565b50826001600160a01b0316846001600160a01b03167f69c2de32bc4d47f488e72626a6cfdee85089342e52675e7de79c4b417623960c848460405180806020018281038252848482818152602001925060200280828437600083820152604051601f909101601f19169092018290039550909350505050a35b50505050565b609a546001600160a01b0316610f73612ce3565b6001600160a01b031614610fce576040805162461bcd60e51b815260206004820152601c60248201527f5072697a65506f6f6c2f6f6e6c792d7072697a65537472617465677900000000604482015290519081900360640190fd5b610fd9838383612ce7565b15610d5f57816001600160a01b0316836001600160a01b03167fc65f48aca3b7a99b7443d04b8ffbb073156179bc628dc3f7def5047748973469836040518082815260200191505060405180910390a3505050565b600060026065541415611088576040805162461bcd60e51b815260206004820152601f60248201527f5265656e7472616e637947756172643a207265656e7472616e742063616c6c00604482015290519081900360640190fd5b600260655560408051602080850282810182019093528482526110c692869186918291850190849080828437600092019190915250612d8392505050565b60016065559392505050565b6000816110de81613037565b611129576040805162461bcd60e51b8152602060048201526017602482015276283934bd32a837b7b617bab735b737bbb716ba37b5b2b760491b604482015290519081900360640190fd5b6111ae8484856001600160a01b03166370a08231886040518263ffffffff1660e01b815260040180826001600160a01b0316815260200191505060206040518083038186803b15801561117b57600080fd5b505afa15801561118f573d6000803e3d6000fd5b505050506040513d60208110156111a557600080fd5b50516000613044565b50506001600160a01b03908116600090815260a460209081526040808320949093168252929092529020546001600160c01b031690565b600080609760009054906101000a90046001600160a01b03166001600160a01b031663f5e3542b6040518163ffffffff1660e01b815260040160206040518083038186803b15801561123657600080fd5b505afa15801561124a573d6000803e3d6000fd5b505050506040513d602081101561126057600080fd5b505190506001600160a01b03811633146112c1576040805162461bcd60e51b815260206004820152601660248201527f5072697a65506f6f6c2f6f6e6c792d7265736572766500000000000000000000604482015290519081900360640190fd5b609e8054600091829055906112d58261305a565b90506112f485826112e461305d565b6001600160a01b0316919061306c565b6040805183815290516001600160a01b038716917f1c71c8e11fd443227c8f8d3dc1a237a3a5e8310b540c7fbcf5169754aedf42c9919081900360200190a2949350505050565b60a05490565b6001600160a01b038116600090815260a160205260409020545b919050565b600061136b82612d6e565b92915050565b609a546001600160a01b0316611385612ce3565b6001600160a01b0316146113e0576040805162461bcd60e51b815260206004820152601c60248201527f5072697a65506f6f6c2f6f6e6c792d7072697a65537472617465677900000000604482015290519081900360640190fd5b806113ea81613037565b611435576040805162461bcd60e51b8152602060048201526017602482015276283934bd32a837b7b617bab735b737bbb716ba37b5b2b760491b604482015290519081900360640190fd5b8261143f57610f59565b60a054831115611496576040805162461bcd60e51b815260206004820152601d60248201527f5072697a65506f6f6c2f61776172642d657863656564732d617661696c000000604482015290519081900360640190fd5b60a0546114a390846130d7565b60a0556114b38484846000613119565b60006114bf8385613218565b90506115458584856001600160a01b03166370a08231896040518263ffffffff1660e01b815260040180826001600160a01b0316815260200191505060206040518083038186803b15801561151357600080fd5b505afa158015611527573d6000803e3d6000fd5b505050506040513d602081101561153d57600080fd5b505184613044565b826001600160a01b0316856001600160a01b03167fe2554529d99ab7a67db6b4cea2b32c7d55ae325f958861e05f304fdded867e31866040518082815260200191505060405180910390a35050505050565b61159f612ce3565b6033546001600160a01b03908116911614611601576040805162461bcd60e51b815260206004820181905260248201527f4f776e61626c653a2063616c6c6572206973206e6f7420746865206f776e6572604482015290519081900360640190fd5b6033546040516000916001600160a01b0316907f8be0079c531659141344cd1fd0a4f28419497f9722a3daafe3b4186f6b6457e0908390a3603380546001600160a01b0319169055565b609f5481565b600061165e848484613250565b90505b9392505050565b611670612ce3565b6033546001600160a01b039081169116146116d2576040805162461bcd60e51b815260206004820181905260248201527f4f776e61626c653a2063616c6c6572206973206e6f7420746865206f776e6572604482015290519081900360640190fd5b6116db81612bbc565b50565b336116e881613037565b611733576040805162461bcd60e51b8152602060048201526017602482015276283934bd32a837b7b617bab735b737bbb716ba37b5b2b760491b604482015290519081900360640190fd5b6001600160a01b0384161561180d576000336001600160a01b03166370a08231866040518263ffffffff1660e01b815260040180826001600160a01b0316815260200191505060206040518083038186803b15801561179157600080fd5b505afa1580156117a5573d6000803e3d6000fd5b505050506040513d60208110156117bb57600080fd5b5051905060006117cd863384846132aa565b9050846001600160a01b0316866001600160a01b0316146117ff576117fc336117f684876130d7565b83613339565b90505b61180a86338361337f565b50505b6001600160a01b038316158015906118375750836001600160a01b0316836001600160a01b031614155b1561188e5761188e8333336001600160a01b03166370a08231876040518263ffffffff1660e01b815260040180826001600160a01b0316815260200191505060206040518083038186803b15801561117b57600080fd5b6001600160a01b038416158015906118b05750609a546001600160a01b031615155b15610f5957609a54604080517fb22109570000000000000000000000000000000000000000000000000000000081526001600160a01b0387811660048301528681166024830152604482018690523360648301529151919092169163b221095791608480830192600092919082900301818387803b15801561193157600080fd5b505af1158015611945573d6000803e3d6000fd5b5050505050505050565b60008061195d858585613560565b91509150935093915050565b600054610100900460ff168061198257506119826128eb565b80611990575060005460ff16155b6119cb5760405162461bcd60e51b815260040180806020018281038252602e81526020018061489f602e913960400191505060405180910390fd5b600054610100900460ff161580156119f6576000805460ff1961ff0019909116610100171660011790555b611a0286868686610adc565b60a580546001600160a01b0319166001600160a01b0384811691909117918290556040519116907fa81053747b04e643171034e5426f6deebb058fc29dfe032e33345a109224b31b90600090a28015611a61576000805461ff00191690555b505050505050565b6033546001600160a01b031690565b6097546001600160a01b031681565b6001600160a01b0316600090815260a2602052604090205490565b611aaa612ce3565b6033546001600160a01b03908116911614611b0c576040805162461bcd60e51b815260206004820181905260248201527f4f776e61626c653a2063616c6c6572206973206e6f7420746865206f776e6572604482015290519081900360640190fd5b6116db81613705565b611b1d612ce3565b6033546001600160a01b03908116911614611b7f576040805162461bcd60e51b815260206004820181905260248201527f4f776e61626c653a2063616c6c6572206973206e6f7420746865206f776e6572604482015290519081900360640190fd5b6116db8161296a565b80611b9281613037565b611bdd576040805162461bcd60e51b8152602060048201526017602482015276283934bd32a837b7b617bab735b737bbb716ba37b5b2b760491b604482015290519081900360640190fd5b82611be78161382e565b611c38576040805162461bcd60e51b815260206004820152601f60248201527f5072697a65506f6f6c2f657863656564732d6c69717569646974792d63617000604482015290519081900360640190fd5b60026065541415611c90576040805162461bcd60e51b815260206004820152601f60248201527f5265656e7472616e637947756172643a207265656e7472616e742063616c6c00604482015290519081900360640190fd5b60026065556000611c9f612ce3565b9050611cae8686866000613119565b6001600160a01b038116600090815260a16020526040902054611cd190866130d7565b6001600160a01b038216600090815260a16020526040902055609d54611cf790866130d7565b609d556040805186815290516001600160a01b038087169289821692918516917f5e2892708ad1e30084c9b26159ffc666e18a9bffef3e61c8020110b5542db9cf9181900360200190a45050600160655550505050565b609a546001600160a01b031681565b6060610c8f6098613852565b609b5481565b600080609760009054906101000a90046001600160a01b03166001600160a01b031663f5e3542b6040518163ffffffff1660e01b815260040160206040518083038186803b158015611dc057600080fd5b505afa158015611dd4573d6000803e3d6000fd5b505050506040513d6020811015611dea57600080fd5b505190506001600160a01b038116611e0657600091505061135b565b6000816001600160a01b031663010dfa58306040518263ffffffff1660e01b815260040180826001600160a01b0316815260200191505060206040518083038186803b158015611e5557600080fd5b505afa158015611e69573d6000803e3d6000fd5b505050506040513d6020811015611e7f57600080fd5b5051905080611e935760009250505061135b565b611e9d8482613929565b949350505050565b600060026065541415611eff576040805162461bcd60e51b815260206004820152601f60248201527f5265656e7472616e637947756172643a207265656e7472616e742063616c6c00604482015290519081900360640190fd5b600260655582611f0e81613037565b611f59576040805162461bcd60e51b8152602060048201526017602482015276283934bd32a837b7b617bab735b737bbb716ba37b5b2b760491b604482015290519081900360640190fd5b600080611f67888789613560565b9150915084821115611faa5760405162461bcd60e51b81526004018080602001828103825260278152602001806148ee6027913960400191505060405180910390fd5b611fb588878361394a565b856001600160a01b031663631b5dfb611fcc612ce3565b8a8a6040518463ffffffff1660e01b815260040180846001600160a01b03168152602001836001600160a01b031681526020018281526020019350505050600060405180830381600087803b15801561202457600080fd5b505af1158015612038573d6000803e3d6000fd5b50505050600061205183896130d790919063ffffffff16565b9050600061205e8261305a565b905061206d8a826112e461305d565b876001600160a01b03168a6001600160a01b0316612089612ce3565b604080518d81526020810186905280820189905290516001600160a01b0392909216917f0271704a58fd2953e49b87d67a0a3ce28a58147de98a5457f60b4686f63850309181900360600190a450506001606555509695505050505050565b826120f281613037565b61213d576040805162461bcd60e51b8152602060048201526017602482015276283934bd32a837b7b617bab735b737bbb716ba37b5b2b760491b604482015290519081900360640190fd5b612145612ce3565b6033546001600160a01b039081169116146121a7576040805162461bcd60e51b815260206004820181905260248201527f4f776e61626c653a2063616c6c6572206973206e6f7420746865206f776e6572604482015290519081900360640190fd5b6040805180820182526001600160801b0380851680835286821660208085018281526001600160a01b038b16600081815260a384528890209651875492518716600160801b029087166fffffffffffffffffffffffffffffffff1990931692909217909516179094558451928352928201528083019190915290517ffb0ba2cf86a2b03bcf387753a2192da80a006afa99dd022bb301c78e323bf1b99181900360600190a150505050565b60008061195d858585613a23565b6000600260655414156122ba576040805162461bcd60e51b815260206004820152601f60248201527f5265656e7472616e637947756172643a207265656e7472616e742063616c6c00604482015290519081900360640190fd5b6002606555816122c981613037565b612314576040805162461bcd60e51b8152602060048201526017602482015276283934bd32a837b7b617bab735b737bbb716ba37b5b2b760491b604482015290519081900360640190fd5b600061231e613a62565b905060008061232e888789613a23565b9092509050600061233f8484613a66565b905061234c89888461394a565b866001600160a01b031663631b5dfb612363612ce3565b8b8b6040518463ffffffff1660e01b815260040180846001600160a01b03168152602001836001600160a01b031681526020018281526020019350505050600060405180830381600087803b1580156123bb57600080fd5b505af11580156123cf573d6000803e3d6000fd5b505050506123de898983613ac0565b866001600160a01b0316896001600160a01b03166123fa612ce3565b6001600160a01b03167f8525b0d0266acfc7f6134894f8c4bea88f1beb343d5a3c11b0f3b982a8becfab8b85604051808381526020018281526020019250505060405180910390a4600160655598975050505050505050565b6000610c8f613b8b565b6001600160a01b0316600090815260a360205260409020546001600160801b0380821692600160801b9092041690565b609d5481565b8161249d81613037565b6124e8576040805162461bcd60e51b8152602060048201526017602482015276283934bd32a837b7b617bab735b737bbb716ba37b5b2b760491b604482015290519081900360640190fd5b836124f28161382e565b612543576040805162461bcd60e51b815260206004820152601f60248201527f5072697a65506f6f6c2f657863656564732d6c69717569646974792d63617000604482015290519081900360640190fd5b6002606554141561259b576040805162461bcd60e51b815260206004820152601f60248201527f5265656e7472616e637947756172643a207265656e7472616e742063616c6c00604482015290519081900360640190fd5b600260655560006125aa612ce3565b90506125b887878787613119565b6125d78130886125c661305d565b6001600160a01b0316929190613c20565b6125e0866116db565b846001600160a01b0316876001600160a01b0316826001600160a01b03167f6ce569498e0f86f147466ac49211cb2a1ffe06195adb805e383b3f2365109160898860405180838152602001826001600160a01b031681526020019250505060405180910390a4505060016065555050505050565b6000600260655414156126ae576040805162461bcd60e51b815260206004820152601f60248201527f5265656e7472616e637947756172643a207265656e7472616e742063616c6c00604482015290519081900360640190fd5b600260655560006126bd612bf7565b905060006126c9613b8b565b905060008282116126db5760006126e5565b6126e582846130d7565b9050600060a05482116126f9576000612707565b60a0546127079083906130d7565b905080156127b957600061271a82611d6f565b9050801561277457609e5461272f9082613a66565b609e5561273c82826130d7565b6040805183815290519193507f5f1703ccfa2730d4245350f228079926a37f26a44ecf6978a7eeafff0af11407919081900360200190a15b60a0546127819083613a66565b60a0556040805183815290517fce2b6e507c7ca1a20ce136810f524eefc19ba4c7e4866eb6cc0cba76e778d4be9181900360200190a1505b60a054945050505050600160655590565b609e5481565b6127d8612ce3565b6033546001600160a01b0390811691161461283a576040805162461bcd60e51b815260206004820181905260248201527f4f776e61626c653a2063616c6c6572206973206e6f7420746865206f776e6572604482015290519081900360640190fd5b6001600160a01b03811661287f5760405162461bcd60e51b815260040180806020018281038252602681526020018061480a6026913960400191505060405180910390fd5b6033546040516001600160a01b038084169216907f8be0079c531659141344cd1fd0a4f28419497f9722a3daafe3b4186f6b6457e090600090a3603380546001600160a01b0319166001600160a01b0392909216919091179055565b609c5481565b6000610c8f61305d565b303b1590565b805415612945576040805162461bcd60e51b815260206004820152600c60248201527f416c726561647920696e69740000000000000000000000000000000000000000604482015290519081900360640190fd5b60016000818152918101602052604090912080546001600160a01b0319169091179055565b306001600160a01b0316816001600160a01b031663f77c47916040518163ffffffff1660e01b815260040160206040518083038186803b1580156129ad57600080fd5b505afa1580156129c1573d6000803e3d6000fd5b505050506040513d60208110156129d757600080fd5b50516001600160a01b031614612a34576040805162461bcd60e51b815260206004820152601e60248201527f5072697a65506f6f6c2f746f6b656e2d6374726c722d6d69736d617463680000604482015290519081900360640190fd5b612a3f609882613c93565b6040516001600160a01b038216907f460e712b4a5d801d031ed673dea209b73ab854f7ddeb86b6c48082e92c3eee6690600090a250565b600054610100900460ff1680612a8f5750612a8f6128eb565b80612a9d575060005460ff16155b612ad85760405162461bcd60e51b815260040180806020018281038252602e81526020018061489f602e913960400191505060405180910390fd5b600054610100900460ff16158015612b03576000805460ff1961ff0019909116610100171660011790555b612b0b613dc5565b612b13613e65565b80156116db576000805461ff001916905550565b600054610100900460ff1680612b405750612b406128eb565b80612b4e575060005460ff16155b612b895760405162461bcd60e51b815260040180806020018281038252602e81526020018061489f602e913960400191505060405180910390fd5b600054610100900460ff16158015612bb4576000805460ff1961ff0019909116610100171660011790555b612b13613f5e565b609f8190556040805182815290517f3ff20538222f568f27ff436c0c49dfd3e48d5b8f86533a3f759dc1c7089775ab9181900360200190a150565b600080612c11609e54609d54613a6690919063ffffffff16565b90506000612c1f6098614004565b90505b6001600160a01b03811615801590612c555750612c3f6098614021565b6001600160a01b0316816001600160a01b031614155b15612cdd57612cc9816001600160a01b03166318160ddd6040518163ffffffff1660e01b815260040160206040518083038186803b158015612c9657600080fd5b505afa158015612caa573d6000803e3d6000fd5b505050506040513d6020811015612cc057600080fd5b50518390613a66565b9150612cd6609882614027565b9050612c22565b50905090565b3390565b6000612cf283612d6e565b612d43576040805162461bcd60e51b815260206004820181905260248201527f5072697a65506f6f6c2f696e76616c69642d65787465726e616c2d746f6b656e604482015290519081900360640190fd5b81612d5057506000611661565b612d646001600160a01b038416858461306c565b5060019392505050565b60a5546001600160a01b039182169116141590565b600080612d8e612ce3565b90506060835167ffffffffffffffff81118015612daa57600080fd5b50604051908082528060200260200182016040528015612dd4578160200160208202803683370190505b5090506000805b8551811015612ea3576000868281518110612df257fe5b60200260200101519050612e04613a62565b6001600160a01b038216600090815260a2602052604090205411612e9a576001600160a01b038116600090815260a16020526040902054612e46908490613a66565b6001600160a01b038216600090815260a16020526040902054855191945090859084908110612e7157fe5b6020908102919091018101919091526001600160a01b038216600090815260a190915260408120555b50600101612ddb565b81612eb557600094505050505061135b565b609d54612ec290836130d7565b609d556000612ed08361305a565b90506000612edc61305d565b9050600092505b875183101561302b576000858481518110612efa57fe5b602002602001015111156130205760a26000898581518110612f1857fe5b60200260200101516001600160a01b03166001600160a01b03168152602001908152602001600020600090556000612f63868581518110612f5557fe5b60200260200101518661404a565b90506000612f718483613929565b9050612fa48a8681518110612f8257fe5b602002602001015182856001600160a01b031661306c9092919063ffffffff16565b898581518110612fb057fe5b60200260200101516001600160a01b0316886001600160a01b03167fbb0b86d17da09eb201fde0b40e5129e29184c65db2bf7e6ec15cf199daccd1d2898881518110612ff857fe5b602002602001015184604051808381526020018281526020019250505060405180910390a350505b600190920191612ee3565b50919695505050505050565b600061136b60988361406b565b610f598484613055878787876132aa565b61337f565b90565b60a5546001600160a01b031690565b604080516001600160a01b038416602482015260448082018490528251808303909101815260649091019091526020810180516001600160e01b03167fa9059cbb00000000000000000000000000000000000000000000000000000000179052610d5f9084906140bc565b600061166183836040518060400160405280601e81526020017f536166654d6174683a207375627472616374696f6e206f766572666c6f77000081525061416d565b609a546001600160a01b0316156131c157609a54604080517f4d7f3db00000000000000000000000000000000000000000000000000000000081526001600160a01b038781166004830152602482018790528581166044830152848116606483015291519190921691634d7f3db091608480830192600092919082900301818387803b1580156131a857600080fd5b505af11580156131bc573d6000803e3d6000fd5b505050505b816001600160a01b0316635d7b075885856040518363ffffffff1660e01b815260040180836001600160a01b0316815260200182815260200192505050600060405180830381600087803b15801561193157600080fd5b6001600160a01b038216600090815260a3602052604081205461166190839061324b9082906001600160801b0316613929565b614204565b6001600160a01b038316600090815260a360205260408120548190613286908590600160801b90046001600160801b0316613929565b905080613297576000915050611661565b6132a18382614229565b95945050505050565b6001600160a01b03838116600090815260a46020908152604080832093881683529290529081208054829190600160e01b900460ff166132ed576000915061332f565b60006132fa88888861426b565b825490915061332b9088908890613326908990613320906001600160c01b031687613a66565b90613a66565b613339565b9250505b5095945050505050565b6001600160a01b038316600090815260a3602052604081205481906133689085906001600160801b0316613929565b905080831115613376578092505b50909392505050565b6001600160a01b03808316600090815260a4602090815260408083209387168352929052819020548151606081019092526001600160c01b031690806133c48461431c565b6001600160801b031681526020016133e26133dd613a62565b614364565b63ffffffff908116825260016020928301526001600160a01b03868116600090815260a484526040808220928a168252918452819020845181549486015195909201517fffffffffffffffff0000000000000000000000000000000000000000000000009094166001600160c01b03909216919091177fffffffff00000000ffffffffffffffffffffffffffffffffffffffffffffffff16600160c01b9490921693909302177fffffff00ffffffffffffffffffffffffffffffffffffffffffffffffffffffff16600160e01b9115159190910217905581811015613510576001600160a01b038084169085167f2f92d56910619b38bc29fd8e4ca5e56359edac7a0c086cdcd305fb603fa374916134fa85856130d7565b60408051918252519081900360200190a3610f59565b6001600160a01b038084169085167ff584c579437bc25785b953cc4d8d247251812751e1871c6130cbdecf95a106cf61354984866130d7565b60408051918252519081900360200190a350505050565b6000806000846001600160a01b03166370a08231876040518263ffffffff1660e01b815260040180826001600160a01b0316815260200191505060206040518083038186803b1580156135b257600080fd5b505afa1580156135c6573d6000803e3d6000fd5b505050506040513d60208110156135dc57600080fd5b5051905083811015613635576040805162461bcd60e51b815260206004820152601660248201527f5072697a65506f6f6c2f696e737566662d66756e647300000000000000000000604482015290519081900360640190fd5b6136428686836000613044565b60006136578661365284886130d7565b613218565b6001600160a01b03808816600090815260a460209081526040808320938c16835292905290812054919250906001600160c01b031682116136ce576001600160a01b03808816600090815260a460209081526040808320938c16835292905220546136cb906001600160c01b0316836130d7565b90505b60006136da8888613218565b90508082116136e957816136eb565b805b94506136f781866130d7565b955050505050935093915050565b6001600160a01b038116613760576040805162461bcd60e51b815260206004820181905260248201527f5072697a65506f6f6c2f7072697a6553747261746567792d6e6f742d7a65726f604482015290519081900360640190fd5b6137936001600160a01b0382167fff5e34e7000000000000000000000000000000000000000000000000000000006143a9565b6137e4576040805162461bcd60e51b815260206004820152601f60248201527f5072697a65506f6f6c2f7072697a6553747261746567792d696e76616c696400604482015290519081900360640190fd5b609a80546001600160a01b0319166001600160a01b0383169081179091556040517f7f58dc86bc2e435cb77ca0edb1df55e25f90caf2d6bd866971715437d456a21290600090a250565b600080613839612bf7565b609f549091506138498285613a66565b11159392505050565b606080826000015467ffffffffffffffff8111801561387057600080fd5b5060405190808252806020026020018201604052801561389a578160200160208202803683370190505b50600160008181529085016020526040812054919250906001600160a01b03165b6001600160a01b038116158015906138dd57506001600160a01b038116600114155b1561337657808383815181106138ef57fe5b6001600160a01b039283166020918202929092018101919091529181166000908152600180880190935260409020549290910191166138bb565b60008061393683856143c5565b9050611e9d81670de0b6b3a7640000614229565b6001600160a01b03808316600090815260a4602090815260408083209387168352929052205461398c90613987906001600160c01b0316836130d7565b61431c565b6001600160a01b03808416600081815260a4602090815260408083209489168084529482529182902080547fffffffffffffffff000000000000000000000000000000000000000000000000166001600160801b0396909616959095179094558051858152905191937ff584c579437bc25785b953cc4d8d247251812751e1871c6130cbdecf95a106cf92918290030190a3505050565b600080600080613a34878787613560565b915091506000613a45878785613250565b9050609c54811115613a565750609c545b97909650945050505050565b4290565b600082820183811015611661576040805162461bcd60e51b815260206004820152601b60248201527f536166654d6174683a206164646974696f6e206f766572666c6f770000000000604482015290519081900360640190fd5b604080516001808252818301909252606091602080830190803683370190505090508381600081518110613af057fe5b60200260200101906001600160a01b031690816001600160a01b031681525050613b1981612d83565b50609d54613b279084613a66565b609d556001600160a01b038416600090815260a16020526040902054613b4d9084613a66565b6001600160a01b038516600090815260a1602090815260408083209390935560a2905220829055613b7c613a62565b8211610f5957610c7e81612d83565b60a554604080517f70a0823100000000000000000000000000000000000000000000000000000000815230600482015290516000926001600160a01b0316916370a08231916024808301926020929190829003018186803b158015613bef57600080fd5b505afa158015613c03573d6000803e3d6000fd5b505050506040513d6020811015613c1957600080fd5b5051905090565b604080516001600160a01b0380861660248301528416604482015260648082018490528251808303909101815260849091019091526020810180516001600160e01b03167f23b872dd00000000000000000000000000000000000000000000000000000000179052610f599085906140bc565b6001600160a01b038116600114801590613cb557506001600160a01b03811615155b613d06576040805162461bcd60e51b815260206004820152600f60248201527f496e76616c696420616464726573730000000000000000000000000000000000604482015290519081900360640190fd5b6001600160a01b0381811660009081526001840160205260409020541615613d75576040805162461bcd60e51b815260206004820152600d60248201527f416c726561647920616464656400000000000000000000000000000000000000604482015290519081900360640190fd5b60016000818152838201602052604080822080546001600160a01b039586168085529284208054969091166001600160a01b03199687161790559183905281549093169092179091558154019055565b600054610100900460ff1680613dde5750613dde6128eb565b80613dec575060005460ff16155b613e275760405162461bcd60e51b815260040180806020018281038252602e81526020018061489f602e913960400191505060405180910390fd5b600054610100900460ff16158015612b13576000805460ff1961ff00199091166101001716600117905580156116db576000805461ff001916905550565b600054610100900460ff1680613e7e5750613e7e6128eb565b80613e8c575060005460ff16155b613ec75760405162461bcd60e51b815260040180806020018281038252602e81526020018061489f602e913960400191505060405180910390fd5b600054610100900460ff16158015613ef2576000805460ff1961ff0019909116610100171660011790555b6000613efc612ce3565b603380546001600160a01b0319166001600160a01b038316908117909155604051919250906000907f8be0079c531659141344cd1fd0a4f28419497f9722a3daafe3b4186f6b6457e0908290a35080156116db576000805461ff001916905550565b600054610100900460ff1680613f775750613f776128eb565b80613f85575060005460ff16155b613fc05760405162461bcd60e51b815260040180806020018281038252602e81526020018061489f602e913960400191505060405180910390fd5b600054610100900460ff16158015613feb576000805460ff1961ff0019909116610100171660011790555b600160655580156116db576000805461ff001916905550565b60016000818152910160205260409020546001600160a01b031690565b50600190565b6001600160a01b0380821660009081526001840160205260409020541692915050565b60008061405f84670de0b6b3a76400006143c5565b9050611e9d8184614229565b60006001600160a01b03821660011480159061408f57506001600160a01b03821615155b80156116615750506001600160a01b03908116600090815260019290920160205260409091205416151590565b6060614111826040518060400160405280602081526020017f5361666545524332303a206c6f772d6c6576656c2063616c6c206661696c6564815250856001600160a01b031661441e9092919063ffffffff16565b805190915015610d5f5780806020019051602081101561413057600080fd5b5051610d5f5760405162461bcd60e51b815260040180806020018281038252602a81526020018061493b602a913960400191505060405180910390fd5b600081848411156141fc5760405162461bcd60e51b81526004018080602001828103825283818151815260200191508051906020019080838360005b838110156141c15781810151838201526020016141a9565b50505050905090810190601f1680156141ee5780820380516001836020036101000a031916815260200191505b509250505060405180910390fd5b505050900390565b60008061421384609b54613929565b905080831115614221578092505b509092915050565b600061166183836040518060400160405280601a81526020017f536166654d6174683a206469766973696f6e206279207a65726f00000000000081525061442d565b6001600160a01b03828116600090815260a460209081526040808320938716835292905290812054600160c01b810463ffffffff1690600160e01b900460ff166142b9576000915050611661565b60006142cd826142c7613a62565b906130d7565b6001600160a01b038616600090815260a3602052604081205491925090614305908690600160801b90046001600160801b0316613929565b905061431182826143c5565b979650505050505050565b6000600160801b82106143605760405162461bcd60e51b81526004018080602001828103825260278152602001806148306027913960400191505060405180910390fd5b5090565b600064010000000082106143605760405162461bcd60e51b81526004018080602001828103825260268152602001806149156026913960400191505060405180910390fd5b60006143b483614492565b8015611661575061166183836144dd565b6000826143d45750600061136b565b828202828482816143e157fe5b04146116615760405162461bcd60e51b81526004018080602001828103825260218152602001806148cd6021913960400191505060405180910390fd5b606061165e8484600085614500565b6000818361447c5760405162461bcd60e51b81526020600482018181528351602484015283519092839260449091019190850190808383600083156141c15781810151838201526020016141a9565b50600083858161448857fe5b0495945050505050565b60006144a5826301ffc9a760e01b6144dd565b801561136b57506144d6827fffffffff000000000000000000000000000000000000000000000000000000006144dd565b1592915050565b60008060006144ec8585614651565b915091508180156132a15750949350505050565b6060824710156145415760405162461bcd60e51b81526004018080602001828103825260268152602001806148796026913960400191505060405180910390fd5b61454a8561479d565b61459b576040805162461bcd60e51b815260206004820152601d60248201527f416464726573733a2063616c6c20746f206e6f6e2d636f6e7472616374000000604482015290519081900360640190fd5b60006060866001600160a01b031685876040518082805190602001908083835b602083106145da5780518252601f1990920191602091820191016145bb565b6001836020036101000a03801982511681845116808217855250505050505090500191505060006040518083038185875af1925050503d806000811461463c576040519150601f19603f3d011682016040523d82523d6000602084013e614641565b606091505b50915091506143118282866147a3565b604080517fffffffff00000000000000000000000000000000000000000000000000000000831660248083019190915282518083039091018152604490910182526020810180516001600160e01b03166301ffc9a760e01b1781529151815160009384939284926060926001600160a01b038a169261753092879282918083835b602083106146f15780518252601f1990920191602091820191016146d2565b6001836020036101000a0380198251168184511680821785525050505050509050019150506000604051808303818686fa925050503d8060008114614752576040519150601f19603f3d011682016040523d82523d6000602084013e614757565b606091505b50915091506020815110156147755760008094509450505050614796565b8181806020019051602081101561478b57600080fd5b505190955093505050505b9250929050565b3b151590565b606083156147b2575081611661565b8251156147c25782518084602001fd5b60405162461bcd60e51b81526020600482018181528451602484015284518593919283926044019190850190808383600083156141c15781810151838201526020016141a956fe4f776e61626c653a206e6577206f776e657220697320746865207a65726f206164647265737353616665436173743a2076616c756520646f65736e27742066697420696e2031323820626974735072697a65506f6f6c2f7265736572766552656769737472792d6e6f742d7a65726f416464726573733a20696e73756666696369656e742062616c616e636520666f722063616c6c496e697469616c697a61626c653a20636f6e747261637420697320616c726561647920696e697469616c697a6564536166654d6174683a206d756c7469706c69636174696f6e206f766572666c6f775072697a65506f6f6c2f657869742d6665652d657863656564732d757365722d6d6178696d756d53616665436173743a2076616c756520646f65736e27742066697420696e20333220626974735361666545524332303a204552433230206f7065726174696f6e20646964206e6f742073756363656564a26469706673582212209946f12bac327b9f5adfad393bc48764f83bfe7e738ed002e5bc9b4177320e1d64736f6c634300060c0033",
  "source": "// SPDX-License-Identifier: GPL-3.0\n\npragma solidity >=0.6.0 <0.7.0;\n\nimport \"@openzeppelin/contracts-upgradeable/token/ERC20/IERC20Upgradeable.sol\";\n\nimport \"../PrizePool.sol\";\n\ncontract StakePrizePool is PrizePool {\n\n  IERC20Upgradeable private stakeToken;\n\n  event StakePrizePoolInitialized(address indexed stakeToken);\n\n  /// @notice Initializes the Prize Pool and Yield Service with the required contract connections\n  /// @param _controlledTokens Array of addresses for the Ticket and Sponsorship Tokens controlled by the Prize Pool\n  /// @param _maxExitFeeMantissa The maximum exit fee size, relative to the withdrawal amount\n  /// @param _maxTimelockDuration The maximum length of time the withdraw timelock could be\n  /// @param _stakeToken Address of the stake token\n  function initialize (\n    RegistryInterface _reserveRegistry,\n    ControlledTokenInterface[] memory _controlledTokens,\n    uint256 _maxExitFeeMantissa,\n    uint256 _maxTimelockDuration,\n    IERC20Upgradeable _stakeToken\n  )\n    public\n    initializer\n  {\n    PrizePool.initialize(\n      _reserveRegistry,\n      _controlledTokens,\n      _maxExitFeeMantissa,\n      _maxTimelockDuration\n    );\n    stakeToken = _stakeToken;\n\n    emit StakePrizePoolInitialized(address(stakeToken));\n  }\n\n  /// @notice Determines whether the passed token can be transferred out as an external award.\n  /// @dev Different yield sources will hold the deposits as another kind of token: such a Compound's cToken.  The\n  /// prize strategy should not be allowed to move those tokens.\n  /// @param _externalToken The address of the token to check\n  /// @return True if the token may be awarded, false otherwise\n  function _canAwardExternal(address _externalToken) internal override view returns (bool) {\n    return address(stakeToken) != _externalToken;\n  }\n\n  /// @notice Returns the total balance (in asset tokens).  This includes the deposits and interest.\n  /// @return The underlying balance of asset tokens\n  function _balance() internal override returns (uint256) {\n    return stakeToken.balanceOf(address(this));\n  }\n\n  function _token() internal override view returns (IERC20Upgradeable) {\n    return stakeToken;\n  }\n\n  /// @notice Supplies asset tokens to the yield source.\n  /// @param mintAmount The amount of asset tokens to be supplied\n  function _supply(uint256 mintAmount) internal override {\n    // no-op because nothing else needs to be done\n  }\n\n  /// @notice Redeems asset tokens from the yield source.\n  /// @param redeemAmount The amount of yield-bearing tokens to be redeemed\n  /// @return The actual amount of tokens that were redeemed.\n  function _redeem(uint256 redeemAmount) internal override returns (uint256) {\n    return redeemAmount;\n  }\n}",
  "sourcePath": "/Users/stelyangeorgiev/Documents/Coding/BarnBridge/pooltogether-pool-contracts/contracts/prize-pool/stake/StakePrizePool.sol",
  "compiler": {
    "name": "solc",
    "version": "0.6.12+commit.27d51765.Emscripten.clang",
    "optimizer": true,
    "runs": 999
  },
  "schemaVersion": "2.3.3",
  "updatedAt": "2021-01-22T15:28:42.488Z"
}